{
  "_format": "hh-sol-artifact-1",
  "contractName": "Num2",
  "sourceName": "contracts/Num2.sol",
  "abi": [
    {
      "inputs": [],
      "name": "get",
      "outputs": [
        {
          "internalType": "uint256",
          "name": "",
          "type": "uint256"
        }
      ],
      "stateMutability": "view",
      "type": "function"
    },
    {
      "inputs": [],
      "name": "inc",
      "outputs": [],
      "stateMutability": "nonpayable",
      "type": "function"
    },
    {
      "inputs": [],
      "name": "num",
      "outputs": [
        {
          "internalType": "uint256",
          "name": "",
          "type": "uint256"
        }
      ],
      "stateMutability": "view",
      "type": "function"
    },
    {
      "inputs": [
        {
          "internalType": "uint256",
          "name": "_num",
          "type": "uint256"
        }
      ],
      "name": "update",
      "outputs": [],
      "stateMutability": "nonpayable",
      "type": "function"
    }
  ],
  "bytecode": "0x608060405234801561001057600080fd5b50610230806100206000396000f3fe608060405234801561001057600080fd5b506004361061004c5760003560e01c8063371303c0146100515780634e70b1dc1461005b5780636d4ce63c1461007957806382ab890a14610097575b600080fd5b6100596100b3565b005b6100636100ca565b60405161007091906100fc565b60405180910390f35b6100816100d0565b60405161008e91906100fc565b60405180910390f35b6100b160048036038101906100ac9190610148565b6100d9565b005b60016000546100c291906101a4565b600081905550565b60005481565b60008054905090565b8060008190555050565b6000819050919050565b6100f6816100e3565b82525050565b600060208201905061011160008301846100ed565b92915050565b600080fd5b610125816100e3565b811461013057600080fd5b50565b6000813590506101428161011c565b92915050565b60006020828403121561015e5761015d610117565b5b600061016c84828501610133565b91505092915050565b7f4e487b7100000000000000000000000000000000000000000000000000000000600052601160045260246000fd5b60006101af826100e3565b91506101ba836100e3565b9250827fffffffffffffffffffffffffffffffffffffffffffffffffffffffffffffffff038211156101ef576101ee610175565b5b82820190509291505056fea26469706673582212206352eb86f6f1f0d5b76b78e2cfb4c01c211d2acc10b0f545e7a308d5d93fc9ec64736f6c634300080a0033",
  "linkReferences": {},
  "deployedLinkReferences": {}
}