{
  "_format": "hh-sol-artifact-1",
  "contractName": "InvestmentClub",
  "sourceName": "contracts/InvestmentClub.sol",
  "abi": [
    {
      "inputs": [],
      "stateMutability": "nonpayable",
      "type": "constructor"
    },
    {
      "inputs": [
        {
          "internalType": "uint256",
          "name": "clubId",
          "type": "uint256"
        },
        {
          "internalType": "uint256",
          "name": "proposalId",
          "type": "uint256"
        }
      ],
      "name": "closeProposal",
      "outputs": [],
      "stateMutability": "nonpayable",
      "type": "function"
    },
    {
      "inputs": [
        {
          "internalType": "uint256",
          "name": "clubId",
          "type": "uint256"
        }
      ],
      "name": "contributeToClub",
      "outputs": [],
      "stateMutability": "payable",
      "type": "function"
    },
    {
      "inputs": [
        {
          "internalType": "string",
          "name": "name",
          "type": "string"
        },
        {
          "internalType": "string",
          "name": "Cid",
          "type": "string"
        }
      ],
      "name": "createClub",
      "outputs": [
        {
          "internalType": "uint256",
          "name": "",
          "type": "uint256"
        }
      ],
      "stateMutability": "nonpayable",
      "type": "function"
    },
    {
      "inputs": [
        {
          "internalType": "uint256",
          "name": "clubId",
          "type": "uint256"
        },
        {
          "internalType": "uint256",
          "name": "amount",
          "type": "uint256"
        },
        {
          "internalType": "address",
          "name": "destination",
          "type": "address"
        },
        {
          "internalType": "string",
          "name": "description",
          "type": "string"
        },
        {
          "internalType": "string",
          "name": "Cid",
          "type": "string"
        }
      ],
      "name": "createProposal",
      "outputs": [],
      "stateMutability": "nonpayable",
      "type": "function"
    },
    {
      "inputs": [
        {
          "internalType": "uint256",
          "name": "clubId",
          "type": "uint256"
        },
        {
          "internalType": "uint256",
          "name": "proposalId",
          "type": "uint256"
        }
      ],
      "name": "executeProposal",
      "outputs": [],
      "stateMutability": "payable",
      "type": "function"
    },
    {
      "inputs": [
        {
          "internalType": "address",
          "name": "userAddress",
          "type": "address"
        },
        {
          "internalType": "uint256",
          "name": "clubId",
          "type": "uint256"
        }
      ],
      "name": "getBalanceByClub",
      "outputs": [
        {
          "internalType": "uint256",
          "name": "",
          "type": "uint256"
        }
      ],
      "stateMutability": "view",
      "type": "function"
    },
    {
      "inputs": [
        {
          "internalType": "uint256",
          "name": "clubId",
          "type": "uint256"
        },
        {
          "internalType": "uint256",
          "name": "proposalId",
          "type": "uint256"
        },
        {
          "internalType": "string",
          "name": "_Piece",
          "type": "string"
        },
        {
          "internalType": "string",
          "name": "_carsize",
          "type": "string"
        }
      ],
      "name": "getCarpiece",
      "outputs": [],
      "stateMutability": "nonpayable",
      "type": "function"
    },
    {
      "inputs": [
        {
          "internalType": "uint256",
          "name": "clubId",
          "type": "uint256"
        }
      ],
      "name": "getClubById",
      "outputs": [
        {
          "components": [
            {
              "internalType": "uint256",
              "name": "clubId",
              "type": "uint256"
            },
            {
              "internalType": "string",
              "name": "name",
              "type": "string"
            },
            {
              "internalType": "uint256",
              "name": "memberCount",
              "type": "uint256"
            },
            {
              "internalType": "uint256",
              "name": "proposalCount",
              "type": "uint256"
            },
            {
              "internalType": "uint256",
              "name": "pool",
              "type": "uint256"
            },
            {
              "internalType": "string",
              "name": "CID",
              "type": "string"
            },
            {
              "internalType": "string",
              "name": "posdiverification",
              "type": "string"
            },
            {
              "internalType": "uint256",
              "name": "DealId",
              "type": "uint256"
            }
          ],
          "internalType": "struct InvestmentClub.ClubInfo",
          "name": "",
          "type": "tuple"
        }
      ],
      "stateMutability": "view",
      "type": "function"
    },
    {
      "inputs": [],
      "name": "getMyClubs",
      "outputs": [
        {
          "components": [
            {
              "internalType": "uint256",
              "name": "clubId",
              "type": "uint256"
            },
            {
              "internalType": "string",
              "name": "name",
              "type": "string"
            },
            {
              "internalType": "uint256",
              "name": "memberCount",
              "type": "uint256"
            },
            {
              "internalType": "uint256",
              "name": "proposalCount",
              "type": "uint256"
            },
            {
              "internalType": "uint256",
              "name": "pool",
              "type": "uint256"
            },
            {
              "internalType": "string",
              "name": "CID",
              "type": "string"
            },
            {
              "internalType": "string",
              "name": "posdiverification",
              "type": "string"
            },
            {
              "internalType": "uint256",
              "name": "DealId",
              "type": "uint256"
            }
          ],
          "internalType": "struct InvestmentClub.ClubInfo[]",
          "name": "",
          "type": "tuple[]"
        }
      ],
      "stateMutability": "view",
      "type": "function"
    },
    {
      "inputs": [
        {
          "internalType": "uint256",
          "name": "clubId",
          "type": "uint256"
        },
        {
          "internalType": "uint256",
          "name": "proposalId",
          "type": "uint256"
        }
      ],
      "name": "getProposalById",
      "outputs": [
        {
          "components": [
            {
              "internalType": "uint256",
              "name": "id",
              "type": "uint256"
            },
            {
              "internalType": "address",
              "name": "creator",
              "type": "address"
            },
            {
              "internalType": "uint256",
              "name": "amount",
              "type": "uint256"
            },
            {
              "internalType": "address",
              "name": "destination",
              "type": "address"
            },
            {
              "internalType": "string",
              "name": "status",
              "type": "string"
            },
            {
              "internalType": "string",
              "name": "description",
              "type": "string"
            },
            {
              "internalType": "uint256",
              "name": "votesFor",
              "type": "uint256"
            },
            {
              "internalType": "uint256",
              "name": "votesAgainst",
              "type": "uint256"
            },
            {
              "internalType": "uint256",
              "name": "proposedAt",
              "type": "uint256"
            },
            {
              "internalType": "uint256",
              "name": "proposalExpireAt",
              "type": "uint256"
            },
            {
              "internalType": "string",
              "name": "Cid",
              "type": "string"
            },
            {
              "internalType": "string",
              "name": "PieceCid",
              "type": "string"
            },
            {
              "internalType": "string",
              "name": "carsize",
              "type": "string"
            },
            {
              "internalType": "string",
              "name": "posdiverification",
              "type": "string"
            },
            {
              "internalType": "string",
              "name": "storageProvider",
              "type": "string"
            },
            {
              "internalType": "uint256",
              "name": "DealId",
              "type": "uint256"
            }
          ],
          "internalType": "struct InvestmentClub.ProposalInfo",
          "name": "",
          "type": "tuple"
        }
      ],
      "stateMutability": "view",
      "type": "function"
    },
    {
      "inputs": [
        {
          "internalType": "uint256",
          "name": "clubId",
          "type": "uint256"
        }
      ],
      "name": "getProposalsByClub",
      "outputs": [
        {
          "components": [
            {
              "internalType": "uint256",
              "name": "id",
              "type": "uint256"
            },
            {
              "internalType": "address",
              "name": "creator",
              "type": "address"
            },
            {
              "internalType": "uint256",
              "name": "amount",
              "type": "uint256"
            },
            {
              "internalType": "address",
              "name": "destination",
              "type": "address"
            },
            {
              "internalType": "string",
              "name": "status",
              "type": "string"
            },
            {
              "internalType": "string",
              "name": "description",
              "type": "string"
            },
            {
              "internalType": "uint256",
              "name": "votesFor",
              "type": "uint256"
            },
            {
              "internalType": "uint256",
              "name": "votesAgainst",
              "type": "uint256"
            },
            {
              "internalType": "uint256",
              "name": "proposedAt",
              "type": "uint256"
            },
            {
              "internalType": "uint256",
              "name": "proposalExpireAt",
              "type": "uint256"
            },
            {
              "internalType": "string",
              "name": "Cid",
              "type": "string"
            },
            {
              "internalType": "string",
              "name": "PieceCid",
              "type": "string"
            },
            {
              "internalType": "string",
              "name": "carsize",
              "type": "string"
            },
            {
              "internalType": "string",
              "name": "posdiverification",
              "type": "string"
            },
            {
              "internalType": "string",
              "name": "storageProvider",
              "type": "string"
            },
            {
              "internalType": "uint256",
              "name": "DealId",
              "type": "uint256"
            }
          ],
          "internalType": "struct InvestmentClub.ProposalInfo[]",
          "name": "",
          "type": "tuple[]"
        }
      ],
      "stateMutability": "view",
      "type": "function"
    },
    {
      "inputs": [
        {
          "internalType": "uint256",
          "name": "clubId",
          "type": "uint256"
        },
        {
          "internalType": "uint256",
          "name": "proposalId",
          "type": "uint256"
        },
        {
          "internalType": "uint256",
          "name": "_dealId",
          "type": "uint256"
        },
        {
          "internalType": "string",
          "name": "_storage",
          "type": "string"
        }
      ],
      "name": "getdelandstorgae",
      "outputs": [],
      "stateMutability": "nonpayable",
      "type": "function"
    },
    {
      "inputs": [
        {
          "internalType": "address",
          "name": "sender",
          "type": "address"
        },
        {
          "internalType": "uint256",
          "name": "proposalId",
          "type": "uint256"
        },
        {
          "internalType": "uint256",
          "name": "clubId",
          "type": "uint256"
        }
      ],
      "name": "hasVoted",
      "outputs": [
        {
          "internalType": "bool",
          "name": "",
          "type": "bool"
        }
      ],
      "stateMutability": "view",
      "type": "function"
    },
    {
      "inputs": [
        {
          "internalType": "uint256",
          "name": "clubId",
          "type": "uint256"
        }
      ],
      "name": "isClubFull",
      "outputs": [
        {
          "internalType": "bool",
          "name": "",
          "type": "bool"
        }
      ],
      "stateMutability": "view",
      "type": "function"
    },
    {
      "inputs": [
        {
          "internalType": "uint256",
          "name": "clubId",
          "type": "uint256"
        }
      ],
      "name": "isClubIdExist",
      "outputs": [
        {
          "internalType": "bool",
          "name": "",
          "type": "bool"
        }
      ],
      "stateMutability": "view",
      "type": "function"
    },
    {
      "inputs": [
        {
          "internalType": "address",
          "name": "memberAddress",
          "type": "address"
        },
        {
          "internalType": "uint256",
          "name": "clubId",
          "type": "uint256"
        }
      ],
      "name": "isMemberOfClub",
      "outputs": [
        {
          "internalType": "bool",
          "name": "",
          "type": "bool"
        }
      ],
      "stateMutability": "view",
      "type": "function"
    },
    {
      "inputs": [
        {
          "internalType": "uint256",
          "name": "proposalId",
          "type": "uint256"
        },
        {
          "internalType": "uint256",
          "name": "clubId",
          "type": "uint256"
        }
      ],
      "name": "isProposalIdExist",
      "outputs": [
        {
          "internalType": "bool",
          "name": "",
          "type": "bool"
        }
      ],
      "stateMutability": "view",
      "type": "function"
    },
    {
      "inputs": [
        {
          "internalType": "uint256",
          "name": "clubId",
          "type": "uint256"
        },
        {
          "internalType": "uint256",
          "name": "proposalId",
          "type": "uint256"
        }
      ],
      "name": "isVotingOn",
      "outputs": [
        {
          "internalType": "bool",
          "name": "",
          "type": "bool"
        }
      ],
      "stateMutability": "view",
      "type": "function"
    },
    {
      "inputs": [
        {
          "internalType": "uint256",
          "name": "clubId",
          "type": "uint256"
        }
      ],
      "name": "joinClub",
      "outputs": [],
      "stateMutability": "nonpayable",
      "type": "function"
    },
    {
      "inputs": [
        {
          "internalType": "uint256",
          "name": "clubId",
          "type": "uint256"
        }
      ],
      "name": "leaveClub",
      "outputs": [],
      "stateMutability": "nonpayable",
      "type": "function"
    },
    {
      "inputs": [],
      "name": "listClubs",
      "outputs": [
        {
          "components": [
            {
              "internalType": "uint256",
              "name": "clubId",
              "type": "uint256"
            },
            {
              "internalType": "string",
              "name": "name",
              "type": "string"
            },
            {
              "internalType": "uint256",
              "name": "memberCount",
              "type": "uint256"
            },
            {
              "internalType": "uint256",
              "name": "proposalCount",
              "type": "uint256"
            },
            {
              "internalType": "uint256",
              "name": "pool",
              "type": "uint256"
            },
            {
              "internalType": "string",
              "name": "CID",
              "type": "string"
            },
            {
              "internalType": "string",
              "name": "posdiverification",
              "type": "string"
            },
            {
              "internalType": "uint256",
              "name": "DealId",
              "type": "uint256"
            }
          ],
          "internalType": "struct InvestmentClub.ClubInfo[]",
          "name": "",
          "type": "tuple[]"
        }
      ],
      "stateMutability": "view",
      "type": "function"
    },
    {
      "inputs": [
        {
          "internalType": "uint256",
          "name": "clubId",
          "type": "uint256"
        },
        {
          "internalType": "uint256",
          "name": "proposalId",
          "type": "uint256"
        }
      ],
      "name": "proverifiydocs",
      "outputs": [],
      "stateMutability": "nonpayable",
      "type": "function"
    },
    {
      "inputs": [
        {
          "internalType": "uint256",
          "name": "clubId",
          "type": "uint256"
        }
      ],
      "name": "verifiydocs",
      "outputs": [],
      "stateMutability": "nonpayable",
      "type": "function"
    },
    {
      "inputs": [
        {
          "internalType": "uint256",
          "name": "clubId",
          "type": "uint256"
        },
        {
          "internalType": "uint256",
          "name": "proposalId",
          "type": "uint256"
        },
        {
          "internalType": "bool",
          "name": "vote",
          "type": "bool"
        }
      ],
      "name": "voteOnProposal",
      "outputs": [],
      "stateMutability": "nonpayable",
      "type": "function"
    }
  ],
  "bytecode": "0x608060405234801561001057600080fd5b506000600181905550614abf806100286000396000f3fe60806040526004361061014b5760003560e01c8063647e598b116100b6578063ab7ca3481161006f578063ab7ca348146104a8578063c3741fed146104e5578063c467087814610522578063e15427421461055f578063e7613ea814610588578063eec8e0db146105b15761014b565b8063647e598b1461038a5780636764fd48146103b357806382b7661b146103f0578063890e24561461041957806389972a32146104565780639d9087b91461047f5761014b565b806334fa3d831161010857806334fa3d831461026857806335a1930f146102a55780634d7f75c3146102e2578063549710be1461030b57806354a2e233146103365780635ff847fb1461035f5761014b565b8063058694a9146101505780630ee294041461018d5780631063fd19146101ca57806314204fc6146101f35780631ab7671214610230578063288509b41461024c575b600080fd5b34801561015c57600080fd5b50610177600480360381019061017291906131ce565b6105ee565b6040516101849190613528565b60405180910390f35b34801561019957600080fd5b506101b460048036038101906101af9190613576565b610bf0565b6040516101c191906135e4565b60405180910390f35b3480156101d657600080fd5b506101f160048036038101906101ec9190613734565b610c6f565b005b3480156101ff57600080fd5b5061021a600480360381019061021591906137b7565b610cc2565b6040516102279190613979565b60405180910390f35b61024a600480360381019061024591906137b7565b611262565b005b610266600480360381019061026191906131ce565b611575565b005b34801561027457600080fd5b5061028f600480360381019061028a919061399b565b6116df565b60405161029c91906135e4565b60405180910390f35b3480156102b157600080fd5b506102cc60048036038101906102c791906139db565b61178e565b6040516102d99190613a62565b60405180910390f35b3480156102ee57600080fd5b50610309600480360381019061030491906131ce565b611937565b005b34801561031757600080fd5b50610320611a71565b60405161032d9190613bfd565b60405180910390f35b34801561034257600080fd5b5061035d60048036038101906103589190613c4b565b611d43565b005b34801561036b57600080fd5b50610374611fc1565b6040516103819190613bfd565b60405180910390f35b34801561039657600080fd5b506103b160048036038101906103ac9190613c9e565b612278565b005b3480156103bf57600080fd5b506103da60048036038101906103d591906131ce565b6122db565b6040516103e791906135e4565b60405180910390f35b3480156103fc57600080fd5b50610417600480360381019061041291906131ce565b6122fd565b005b34801561042557600080fd5b50610440600480360381019061043b919061399b565b6123ad565b60405161044d9190613a62565b60405180910390f35b34801561046257600080fd5b5061047d60048036038101906104789190613d3d565b612418565b005b34801561048b57600080fd5b506104a660048036038101906104a191906137b7565b6127e1565b005b3480156104b457600080fd5b506104cf60048036038101906104ca91906137b7565b61285e565b6040516104dc91906135e4565b60405180910390f35b3480156104f157600080fd5b5061050c600480360381019061050791906131ce565b612899565b6040516105199190613eae565b60405180910390f35b34801561052e57600080fd5b50610549600480360381019061054491906131ce565b612aff565b60405161055691906135e4565b60405180910390f35b34801561056b57600080fd5b50610586600480360381019061058191906131ce565b612b21565b005b34801561059457600080fd5b506105af60048036038101906105aa91906137b7565b612cf8565b005b3480156105bd57600080fd5b506105d860048036038101906105d391906137b7565b612f2f565b6040516105e591906135e4565b60405180910390f35b60606105f9826122db565b610638576040517f08c379a000000000000000000000000000000000000000000000000000000000815260040161062f90613f2d565b60405180910390fd5b600080600084815260200190815260200160002090506000816006015467ffffffffffffffff81111561066e5761066d613609565b5b6040519080825280602002602001820160405280156106a757816020015b610694612ff3565b81526020019060019003908161068c5790505b509050600080600190505b83600601548111610be45760008460050160008381526020019081526020016000209050604051806102000160405280826000015481526020018260010160009054906101000a900473ffffffffffffffffffffffffffffffffffffffff1673ffffffffffffffffffffffffffffffffffffffff168152602001826002015481526020018260030160009054906101000a900473ffffffffffffffffffffffffffffffffffffffff1673ffffffffffffffffffffffffffffffffffffffff16815260200182600401805461078590613f7c565b80601f01602080910402602001604051908101604052809291908181526020018280546107b190613f7c565b80156107fe5780601f106107d3576101008083540402835291602001916107fe565b820191906000526020600020905b8154815290600101906020018083116107e157829003601f168201915b5050505050815260200182600501805461081790613f7c565b80601f016020809104026020016040519081016040528092919081815260200182805461084390613f7c565b80156108905780601f1061086557610100808354040283529160200191610890565b820191906000526020600020905b81548152906001019060200180831161087357829003601f168201915b505050505081526020018260060154815260200182600701548152602001826008015481526020018260090154815260200182600a0180546108d190613f7c565b80601f01602080910402602001604051908101604052809291908181526020018280546108fd90613f7c565b801561094a5780601f1061091f5761010080835404028352916020019161094a565b820191906000526020600020905b81548152906001019060200180831161092d57829003601f168201915b5050505050815260200182600b01805461096390613f7c565b80601f016020809104026020016040519081016040528092919081815260200182805461098f90613f7c565b80156109dc5780601f106109b1576101008083540402835291602001916109dc565b820191906000526020600020905b8154815290600101906020018083116109bf57829003601f168201915b5050505050815260200182600c0180546109f590613f7c565b80601f0160208091040260200160405190810160405280929190818152602001828054610a2190613f7c565b8015610a6e5780601f10610a4357610100808354040283529160200191610a6e565b820191906000526020600020905b815481529060010190602001808311610a5157829003601f168201915b5050505050815260200182600d018054610a8790613f7c565b80601f0160208091040260200160405190810160405280929190818152602001828054610ab390613f7c565b8015610b005780601f10610ad557610100808354040283529160200191610b00565b820191906000526020600020905b815481529060010190602001808311610ae357829003601f168201915b5050505050815260200182600e018054610b1990613f7c565b80601f0160208091040260200160405190810160405280929190818152602001828054610b4590613f7c565b8015610b925780601f10610b6757610100808354040283529160200191610b92565b820191906000526020600020905b815481529060010190602001808311610b7557829003601f168201915b5050505050815260200182600f0154815250848481518110610bb757610bb6613fae565b5b60200260200101819052508280610bcd9061400c565b935050508080610bdc9061400c565b9150506106b2565b50819350505050919050565b6000806000838152602001908152602001600020600501600084815260200190815260200160002060100160008573ffffffffffffffffffffffffffffffffffffffff1673ffffffffffffffffffffffffffffffffffffffff16815260200190815260200160002060009054906101000a900460ff1690509392505050565b6000806000868152602001908152602001600020600501600085815260200190815260200160002090508281600f01819055508181600e019080519060200190610cba92919061309c565b505050505050565b610cca612ff3565b610cd3836122db565b610d12576040517f08c379a0000000000000000000000000000000000000000000000000000000008152600401610d09906140a1565b60405180910390fd5b610d1c8284612f2f565b610d5b576040517f08c379a0000000000000000000000000000000000000000000000000000000008152600401610d529061410d565b60405180910390fd5b6000806000858152602001908152602001600020600501600084815260200190815260200160002090506000604051806102000160405280836000015481526020018360010160009054906101000a900473ffffffffffffffffffffffffffffffffffffffff1673ffffffffffffffffffffffffffffffffffffffff168152602001836002015481526020018360030160009054906101000a900473ffffffffffffffffffffffffffffffffffffffff1673ffffffffffffffffffffffffffffffffffffffff168152602001836004018054610e3690613f7c565b80601f0160208091040260200160405190810160405280929190818152602001828054610e6290613f7c565b8015610eaf5780601f10610e8457610100808354040283529160200191610eaf565b820191906000526020600020905b815481529060010190602001808311610e9257829003601f168201915b50505050508152602001836005018054610ec890613f7c565b80601f0160208091040260200160405190810160405280929190818152602001828054610ef490613f7c565b8015610f415780601f10610f1657610100808354040283529160200191610f41565b820191906000526020600020905b815481529060010190602001808311610f2457829003601f168201915b505050505081526020018360060154815260200183600701548152602001836008015481526020018360090154815260200183600a018054610f8290613f7c565b80601f0160208091040260200160405190810160405280929190818152602001828054610fae90613f7c565b8015610ffb5780601f10610fd057610100808354040283529160200191610ffb565b820191906000526020600020905b815481529060010190602001808311610fde57829003601f168201915b5050505050815260200183600b01805461101490613f7c565b80601f016020809104026020016040519081016040528092919081815260200182805461104090613f7c565b801561108d5780601f106110625761010080835404028352916020019161108d565b820191906000526020600020905b81548152906001019060200180831161107057829003601f168201915b5050505050815260200183600c0180546110a690613f7c565b80601f01602080910402602001604051908101604052809291908181526020018280546110d290613f7c565b801561111f5780601f106110f45761010080835404028352916020019161111f565b820191906000526020600020905b81548152906001019060200180831161110257829003601f168201915b5050505050815260200183600d01805461113890613f7c565b80601f016020809104026020016040519081016040528092919081815260200182805461116490613f7c565b80156111b15780601f10611186576101008083540402835291602001916111b1565b820191906000526020600020905b81548152906001019060200180831161119457829003601f168201915b5050505050815260200183600e0180546111ca90613f7c565b80601f01602080910402602001604051908101604052809291908181526020018280546111f690613f7c565b80156112435780601f1061121857610100808354040283529160200191611243565b820191906000526020600020905b81548152906001019060200180831161122657829003601f168201915b5050505050815260200183600f01548152509050809250505092915050565b600080600084815260200190815260200160002090506000816005016000848152602001908152602001600020905061129a846122db565b6112d9576040517f08c379a00000000000000000000000000000000000000000000000000000000081526004016112d0906140a1565b60405180910390fd5b6112e333856116df565b611322576040517f08c379a000000000000000000000000000000000000000000000000000000000815260040161131990614179565b60405180910390fd5b61132c8385612f2f565b61136b576040517f08c379a00000000000000000000000000000000000000000000000000000000081526004016113629061410d565b60405180910390fd5b6113758484612f66565b6113b4576040517f08c379a00000000000000000000000000000000000000000000000000000000081526004016113ab9061420b565b60405180910390fd5b8060020154826004015410156113ff576040517f08c379a00000000000000000000000000000000000000000000000000000000081526004016113f69061429d565b60405180910390fd5b8060070154816006015411611449576040517f08c379a00000000000000000000000000000000000000000000000000000000081526004016114409061432f565b60405180910390fd5b611453848461285e565b15611493576040517f08c379a000000000000000000000000000000000000000000000000000000000815260040161148a906143c1565b60405180910390fd5b6040518060400160405280600881526020017f45786563757465640000000000000000000000000000000000000000000000008152508160040190805190602001906114e092919061309c565b5080600201548260040160008282546114f991906143e1565b925050819055508060030160009054906101000a900473ffffffffffffffffffffffffffffffffffffffff1673ffffffffffffffffffffffffffffffffffffffff166108fc82600201549081150290604051600060405180830381858888f1935050505015801561156e573d6000803e3d6000fd5b5050505050565b61157e816122db565b6115bd576040517f08c379a00000000000000000000000000000000000000000000000000000000081526004016115b4906140a1565b60405180910390fd5b600080600083815260200190815260200160002090506115dd33836116df565b61161c576040517f08c379a000000000000000000000000000000000000000000000000000000000815260040161161390614179565b60405180910390fd5b6000341161165f576040517f08c379a000000000000000000000000000000000000000000000000000000000815260040161165690614487565b60405180910390fd5b60008160020160003373ffffffffffffffffffffffffffffffffffffffff1673ffffffffffffffffffffffffffffffffffffffff1681526020019081526020016000209050348160010160008282546116b891906144a7565b92505081905550348260040160008282546116d391906144a7565b92505081905550505050565b60008073ffffffffffffffffffffffffffffffffffffffff1660008084815260200190815260200160002060020160008573ffffffffffffffffffffffffffffffffffffffff1673ffffffffffffffffffffffffffffffffffffffff16815260200190815260200160002060000160009054906101000a900473ffffffffffffffffffffffffffffffffffffffff1673ffffffffffffffffffffffffffffffffffffffff161415905092915050565b6000806001805461179f91906144a7565b905060008060008381526020019081526020016000209050818160000181905550848160010190805190602001906117d892919061309c565b506000816004018190555060008160060181905550600181600301819055508381600701908051906020019061180f92919061309c565b506040518060400160405280600b81526020017f556e2d566572696669656400000000000000000000000000000000000000000081525081600801908051906020019061185d92919061309c565b50600060405180604001604052803373ffffffffffffffffffffffffffffffffffffffff16815260200160008152509050808260020160003373ffffffffffffffffffffffffffffffffffffffff1673ffffffffffffffffffffffffffffffffffffffff16815260200190815260200160002060008201518160000160006101000a81548173ffffffffffffffffffffffffffffffffffffffff021916908373ffffffffffffffffffffffffffffffffffffffff160217905550602082015181600101559050508260018190555082935050505092915050565b611940816122db565b61197f576040517f08c379a0000000000000000000000000000000000000000000000000000000008152600401611976906140a1565b60405180910390fd5b6000806000838152602001908152602001600020905061199f33836116df565b6119de576040517f08c379a00000000000000000000000000000000000000000000000000000000081526004016119d590614179565b60405180910390fd5b60018160030160008282546119f391906143e1565b925050819055508060020160003373ffffffffffffffffffffffffffffffffffffffff1673ffffffffffffffffffffffffffffffffffffffff168152602001908152602001600020600080820160006101000a81549073ffffffffffffffffffffffffffffffffffffffff0219169055600182016000905550505050565b6060600060015467ffffffffffffffff811115611a9157611a90613609565b5b604051908082528060200260200182016040528015611aca57816020015b611ab7613122565b815260200190600190039081611aaf5790505b509050600080600190505b6001548111611d3a5760008060008381526020019081526020016000209050611b023382600001546116df565b15611d265760405180610100016040528082600001548152602001826001018054611b2c90613f7c565b80601f0160208091040260200160405190810160405280929190818152602001828054611b5890613f7c565b8015611ba55780601f10611b7a57610100808354040283529160200191611ba5565b820191906000526020600020905b815481529060010190602001808311611b8857829003601f168201915b50505050508152602001826003015481526020018260060154815260200182600401548152602001826007018054611bdc90613f7c565b80601f0160208091040260200160405190810160405280929190818152602001828054611c0890613f7c565b8015611c555780601f10611c2a57610100808354040283529160200191611c55565b820191906000526020600020905b815481529060010190602001808311611c3857829003601f168201915b50505050508152602001826008018054611c6e90613f7c565b80601f0160208091040260200160405190810160405280929190818152602001828054611c9a90613f7c565b8015611ce75780601f10611cbc57610100808354040283529160200191611ce7565b820191906000526020600020905b815481529060010190602001808311611cca57829003601f168201915b505050505081526020018260090154815250848481518110611d0c57611d0b613fae565b5b60200260200101819052508280611d229061400c565b9350505b508080611d329061400c565b915050611ad5565b50819250505090565b611d4c836122db565b611d8b576040517f08c379a0000000000000000000000000000000000000000000000000000000008152600401611d82906140a1565b60405180910390fd5b611d95838361285e565b611dd4576040517f08c379a0000000000000000000000000000000000000000000000000000000008152600401611dcb90614549565b60405180910390fd5b60008060008581526020019081526020016000209050611df433856116df565b611e33576040517f08c379a0000000000000000000000000000000000000000000000000000000008152600401611e2a90614179565b60405180910390fd5b611e3d8385612f2f565b611e7c576040517f08c379a0000000000000000000000000000000000000000000000000000000008152600401611e739061410d565b60405180910390fd5b60008160050160008581526020019081526020016000209050611ea0338587610bf0565b15611ee0576040517f08c379a0000000000000000000000000000000000000000000000000000000008152600401611ed7906145db565b60405180910390fd5b6040518060400160405280600781526020017f50656e64696e67000000000000000000000000000000000000000000000000008152508051906020012081600401604051611f2e919061469a565b604051809103902014611f76576040517f08c379a0000000000000000000000000000000000000000000000000000000008152600401611f6d90614723565b60405180910390fd5b8215611f9d576001816006016000828254611f9191906144a7565b92505081905550611fba565b6001816007016000828254611fb291906144a7565b925050819055505b5050505050565b6060600060015467ffffffffffffffff811115611fe157611fe0613609565b5b60405190808252806020026020018201604052801561201a57816020015b612007613122565b815260200190600190039081611fff5790505b50905060005b60015481101561227057600080600060018461203c91906144a7565b815260200190815260200160002090506040518061010001604052808260000154815260200182600101805461207190613f7c565b80601f016020809104026020016040519081016040528092919081815260200182805461209d90613f7c565b80156120ea5780601f106120bf576101008083540402835291602001916120ea565b820191906000526020600020905b8154815290600101906020018083116120cd57829003601f168201915b5050505050815260200182600301548152602001826006015481526020018260040154815260200182600701805461212190613f7c565b80601f016020809104026020016040519081016040528092919081815260200182805461214d90613f7c565b801561219a5780601f1061216f5761010080835404028352916020019161219a565b820191906000526020600020905b81548152906001019060200180831161217d57829003601f168201915b505050505081526020018260080180546121b390613f7c565b80601f01602080910402602001604051908101604052809291908181526020018280546121df90613f7c565b801561222c5780601f106122015761010080835404028352916020019161222c565b820191906000526020600020905b81548152906001019060200180831161220f57829003601f168201915b50505050508152602001826009015481525083838151811061225157612250613fae565b5b60200260200101819052505080806122689061400c565b915050612020565b508091505090565b6000806000868152602001908152602001600020600501600085815260200190815260200160002090508281600b0190805190602001906122ba92919061309c565b508181600c0190805190602001906122d392919061309c565b505050505050565b6000806000808481526020019081526020016000206000015414159050919050565b612306816122db565b612345576040517f08c379a000000000000000000000000000000000000000000000000000000000815260040161233c9061478f565b60405180910390fd5b600080600083815260200190815260200160002090506040518060400160405280600881526020017f56657269666965640000000000000000000000000000000000000000000000008152508160080190805190602001906123a892919061309c565b505050565b600080600080848152602001908152602001600020905060008160020160008673ffffffffffffffffffffffffffffffffffffffff1673ffffffffffffffffffffffffffffffffffffffff168152602001908152602001600020905080600101549250505092915050565b612421856122db565b612460576040517f08c379a0000000000000000000000000000000000000000000000000000000008152600401612457906140a1565b60405180910390fd5b6000806000878152602001908152602001600020905061248033876116df565b6124bf576040517f08c379a00000000000000000000000000000000000000000000000000000000081526004016124b690614179565b60405180910390fd5b60008511612502576040517f08c379a00000000000000000000000000000000000000000000000000000000081526004016124f990614821565b60405180910390fd5b60006001826006015461251591906144a7565b9050600080600089815260200190815260200160002060050160008381526020019081526020016000209050818160000181905550338160010160006101000a81548173ffffffffffffffffffffffffffffffffffffffff021916908373ffffffffffffffffffffffffffffffffffffffff160217905550868160020181905550858160030160006101000a81548173ffffffffffffffffffffffffffffffffffffffff021916908373ffffffffffffffffffffffffffffffffffffffff1602179055506040518060400160405280600781526020017f50656e64696e670000000000000000000000000000000000000000000000000081525081600401908051906020019061262692919061309c565b508481600501908051906020019061263f92919061309c565b50600081600601819055506000816007018190555042816008018190555061012c4261266b91906144a7565b81600901819055508381600a01908051906020019061268b92919061309c565b506040518060400160405280600a81526020017f494e2050726f636573730000000000000000000000000000000000000000000081525081600b0190805190602001906126d992919061309c565b506040518060400160405280600a81526020017f494e2d50726f636573730000000000000000000000000000000000000000000081525081600c01908051906020019061272792919061309c565b50600081600f01819055506040518060400160405280600a81526020017f494e2d50726f636573730000000000000000000000000000000000000000000081525081600e01908051906020019061277f92919061309c565b506040518060400160405280600b81526020017f556e2d566572696669656400000000000000000000000000000000000000000081525081600d0190805190602001906127cd92919061309c565b508183600601819055505050505050505050565b6000806000848152602001908152602001600020600501600083815260200190815260200160002090506040518060400160405280600881526020017f566572696669656400000000000000000000000000000000000000000000000081525081600d01908051906020019061285892919061309c565b50505050565b600080600080858152602001908152602001600020600501600084815260200190815260200160002090504281600901541191505092915050565b6128a1613122565b6128aa826122db565b6128e9576040517f08c379a00000000000000000000000000000000000000000000000000000000081526004016128e0906140a1565b60405180910390fd5b6000806000848152602001908152602001600020905060006040518061010001604052808360000154815260200183600101805461292690613f7c565b80601f016020809104026020016040519081016040528092919081815260200182805461295290613f7c565b801561299f5780601f106129745761010080835404028352916020019161299f565b820191906000526020600020905b81548152906001019060200180831161298257829003601f168201915b505050505081526020018360030154815260200183600601548152602001836004015481526020018360070180546129d690613f7c565b80601f0160208091040260200160405190810160405280929190818152602001828054612a0290613f7c565b8015612a4f5780601f10612a2457610100808354040283529160200191612a4f565b820191906000526020600020905b815481529060010190602001808311612a3257829003601f168201915b50505050508152602001836008018054612a6890613f7c565b80601f0160208091040260200160405190810160405280929190818152602001828054612a9490613f7c565b8015612ae15780601f10612ab657610100808354040283529160200191612ae1565b820191906000526020600020905b815481529060010190602001808311612ac457829003601f168201915b50505050508152602001836009015481525090508092505050919050565b6000606360008084815260200190815260200160002060030154109050919050565b612b2a816122db565b612b69576040517f08c379a0000000000000000000000000000000000000000000000000000000008152600401612b609061478f565b60405180910390fd5b60008060008381526020019081526020016000209050612b8882612aff565b612bc7576040517f08c379a0000000000000000000000000000000000000000000000000000000008152600401612bbe906148b3565b60405180910390fd5b612bd133836116df565b15612c11576040517f08c379a0000000000000000000000000000000000000000000000000000000008152600401612c0890614945565b60405180910390fd5b600060405180604001604052803373ffffffffffffffffffffffffffffffffffffffff16815260200160008152509050808260020160003373ffffffffffffffffffffffffffffffffffffffff1673ffffffffffffffffffffffffffffffffffffffff16815260200190815260200160002060008201518160000160006101000a81548173ffffffffffffffffffffffffffffffffffffffff021916908373ffffffffffffffffffffffffffffffffffffffff160217905550602082015181600101559050506001826003016000828254612cec91906144a7565b92505081905550505050565b612d01826122db565b612d40576040517f08c379a0000000000000000000000000000000000000000000000000000000008152600401612d37906140a1565b60405180910390fd5b612d4a8183612f2f565b612d89576040517f08c379a0000000000000000000000000000000000000000000000000000000008152600401612d809061410d565b60405180910390fd5b612d93828261285e565b15612dd3576040517f08c379a0000000000000000000000000000000000000000000000000000000008152600401612dca906143c1565b60405180910390fd5b6000806000848152602001908152602001600020600501600083815260200190815260200160002090506040518060400160405280600781526020017f50656e64696e67000000000000000000000000000000000000000000000000008152508051906020012081600401604051612e4b919061469a565b604051809103902014612e93576040517f08c379a0000000000000000000000000000000000000000000000000000000008152600401612e8a906149d7565b60405180910390fd5b612e9d8383612f66565b612edc576040517f08c379a0000000000000000000000000000000000000000000000000000000008152600401612ed390614a69565b60405180910390fd5b6040518060400160405280600681526020017f436c6f7365640000000000000000000000000000000000000000000000000000815250816004019080519060200190612f2992919061309c565b50505050565b6000806000808481526020019081526020016000206005016000858152602001908152602001600020600001541415905092915050565b6000806000808581526020019081526020016000209050600081600501600085815260200190815260200160002090508060010160009054906101000a900473ffffffffffffffffffffffffffffffffffffffff1673ffffffffffffffffffffffffffffffffffffffff163373ffffffffffffffffffffffffffffffffffffffff16149250505092915050565b60405180610200016040528060008152602001600073ffffffffffffffffffffffffffffffffffffffff16815260200160008152602001600073ffffffffffffffffffffffffffffffffffffffff1681526020016060815260200160608152602001600081526020016000815260200160008152602001600081526020016060815260200160608152602001606081526020016060815260200160608152602001600081525090565b8280546130a890613f7c565b90600052602060002090601f0160209004810192826130ca5760008555613111565b82601f106130e357805160ff1916838001178555613111565b82800160010185558215613111579182015b828111156131105782518255916020019190600101906130f5565b5b50905061311e9190613167565b5090565b60405180610100016040528060008152602001606081526020016000815260200160008152602001600081526020016060815260200160608152602001600081525090565b5b80821115613180576000816000905550600101613168565b5090565b6000604051905090565b600080fd5b600080fd5b6000819050919050565b6131ab81613198565b81146131b657600080fd5b50565b6000813590506131c8816131a2565b92915050565b6000602082840312156131e4576131e361318e565b5b60006131f2848285016131b9565b91505092915050565b600081519050919050565b600082825260208201905092915050565b6000819050602082019050919050565b61323081613198565b82525050565b600073ffffffffffffffffffffffffffffffffffffffff82169050919050565b600061326182613236565b9050919050565b61327181613256565b82525050565b600081519050919050565b600082825260208201905092915050565b60005b838110156132b1578082015181840152602081019050613296565b838111156132c0576000848401525b50505050565b6000601f19601f8301169050919050565b60006132e282613277565b6132ec8185613282565b93506132fc818560208601613293565b613305816132c6565b840191505092915050565b6000610200830160008301516133296000860182613227565b50602083015161333c6020860182613268565b50604083015161334f6040860182613227565b5060608301516133626060860182613268565b506080830151848203608086015261337a82826132d7565b91505060a083015184820360a086015261339482826132d7565b91505060c08301516133a960c0860182613227565b5060e08301516133bc60e0860182613227565b506101008301516133d1610100860182613227565b506101208301516133e6610120860182613227565b5061014083015184820361014086015261340082826132d7565b91505061016083015184820361016086015261341c82826132d7565b91505061018083015184820361018086015261343882826132d7565b9150506101a08301518482036101a086015261345482826132d7565b9150506101c08301518482036101c086015261347082826132d7565b9150506101e08301516134876101e0860182613227565b508091505092915050565b600061349e8383613310565b905092915050565b6000602082019050919050565b60006134be826131fb565b6134c88185613206565b9350836020820285016134da85613217565b8060005b8581101561351657848403895281516134f78582613492565b9450613502836134a6565b925060208a019950506001810190506134de565b50829750879550505050505092915050565b6000602082019050818103600083015261354281846134b3565b905092915050565b61355381613256565b811461355e57600080fd5b50565b6000813590506135708161354a565b92915050565b60008060006060848603121561358f5761358e61318e565b5b600061359d86828701613561565b93505060206135ae868287016131b9565b92505060406135bf868287016131b9565b9150509250925092565b60008115159050919050565b6135de816135c9565b82525050565b60006020820190506135f960008301846135d5565b92915050565b600080fd5b600080fd5b7f4e487b7100000000000000000000000000000000000000000000000000000000600052604160045260246000fd5b613641826132c6565b810181811067ffffffffffffffff821117156136605761365f613609565b5b80604052505050565b6000613673613184565b905061367f8282613638565b919050565b600067ffffffffffffffff82111561369f5761369e613609565b5b6136a8826132c6565b9050602081019050919050565b82818337600083830152505050565b60006136d76136d284613684565b613669565b9050828152602081018484840111156136f3576136f2613604565b5b6136fe8482856136b5565b509392505050565b600082601f83011261371b5761371a6135ff565b5b813561372b8482602086016136c4565b91505092915050565b6000806000806080858703121561374e5761374d61318e565b5b600061375c878288016131b9565b945050602061376d878288016131b9565b935050604061377e878288016131b9565b925050606085013567ffffffffffffffff81111561379f5761379e613193565b5b6137ab87828801613706565b91505092959194509250565b600080604083850312156137ce576137cd61318e565b5b60006137dc858286016131b9565b92505060206137ed858286016131b9565b9150509250929050565b6000610200830160008301516138106000860182613227565b5060208301516138236020860182613268565b5060408301516138366040860182613227565b5060608301516138496060860182613268565b506080830151848203608086015261386182826132d7565b91505060a083015184820360a086015261387b82826132d7565b91505060c083015161389060c0860182613227565b5060e08301516138a360e0860182613227565b506101008301516138b8610100860182613227565b506101208301516138cd610120860182613227565b506101408301518482036101408601526138e782826132d7565b91505061016083015184820361016086015261390382826132d7565b91505061018083015184820361018086015261391f82826132d7565b9150506101a08301518482036101a086015261393b82826132d7565b9150506101c08301518482036101c086015261395782826132d7565b9150506101e083015161396e6101e0860182613227565b508091505092915050565b6000602082019050818103600083015261399381846137f7565b905092915050565b600080604083850312156139b2576139b161318e565b5b60006139c085828601613561565b92505060206139d1858286016131b9565b9150509250929050565b600080604083850312156139f2576139f161318e565b5b600083013567ffffffffffffffff811115613a1057613a0f613193565b5b613a1c85828601613706565b925050602083013567ffffffffffffffff811115613a3d57613a3c613193565b5b613a4985828601613706565b9150509250929050565b613a5c81613198565b82525050565b6000602082019050613a776000830184613a53565b92915050565b600081519050919050565b600082825260208201905092915050565b6000819050602082019050919050565b600061010083016000830151613ac26000860182613227565b5060208301518482036020860152613ada82826132d7565b9150506040830151613aef6040860182613227565b506060830151613b026060860182613227565b506080830151613b156080860182613227565b5060a083015184820360a0860152613b2d82826132d7565b91505060c083015184820360c0860152613b4782826132d7565b91505060e0830151613b5c60e0860182613227565b508091505092915050565b6000613b738383613aa9565b905092915050565b6000602082019050919050565b6000613b9382613a7d565b613b9d8185613a88565b935083602082028501613baf85613a99565b8060005b85811015613beb5784840389528151613bcc8582613b67565b9450613bd783613b7b565b925060208a01995050600181019050613bb3565b50829750879550505050505092915050565b60006020820190508181036000830152613c178184613b88565b905092915050565b613c28816135c9565b8114613c3357600080fd5b50565b600081359050613c4581613c1f565b92915050565b600080600060608486031215613c6457613c6361318e565b5b6000613c72868287016131b9565b9350506020613c83868287016131b9565b9250506040613c9486828701613c36565b9150509250925092565b60008060008060808587031215613cb857613cb761318e565b5b6000613cc6878288016131b9565b9450506020613cd7878288016131b9565b935050604085013567ffffffffffffffff811115613cf857613cf7613193565b5b613d0487828801613706565b925050606085013567ffffffffffffffff811115613d2557613d24613193565b5b613d3187828801613706565b91505092959194509250565b600080600080600060a08688031215613d5957613d5861318e565b5b6000613d67888289016131b9565b9550506020613d78888289016131b9565b9450506040613d8988828901613561565b935050606086013567ffffffffffffffff811115613daa57613da9613193565b5b613db688828901613706565b925050608086013567ffffffffffffffff811115613dd757613dd6613193565b5b613de388828901613706565b9150509295509295909350565b600061010083016000830151613e096000860182613227565b5060208301518482036020860152613e2182826132d7565b9150506040830151613e366040860182613227565b506060830151613e496060860182613227565b506080830151613e5c6080860182613227565b5060a083015184820360a0860152613e7482826132d7565b91505060c083015184820360c0860152613e8e82826132d7565b91505060e0830151613ea360e0860182613227565b508091505092915050565b60006020820190508181036000830152613ec88184613df0565b905092915050565b600082825260208201905092915050565b7f436c756220646f6573206e6f7420657869737400000000000000000000000000600082015250565b6000613f17601383613ed0565b9150613f2282613ee1565b602082019050919050565b60006020820190508181036000830152613f4681613f0a565b9050919050565b7f4e487b7100000000000000000000000000000000000000000000000000000000600052602260045260246000fd5b60006002820490506001821680613f9457607f821691505b60208210811415613fa857613fa7613f4d565b5b50919050565b7f4e487b7100000000000000000000000000000000000000000000000000000000600052603260045260246000fd5b7f4e487b7100000000000000000000000000000000000000000000000000000000600052601160045260246000fd5b600061401782613198565b91507fffffffffffffffffffffffffffffffffffffffffffffffffffffffffffffffff82141561404a57614049613fdd565b5b600182019050919050565b7f74686520636c756220646f6573206e6f74206578697374000000000000000000600082015250565b600061408b601783613ed0565b915061409682614055565b602082019050919050565b600060208201905081810360008301526140ba8161407e565b9050919050565b7f5468652070726f706f73616c20646f6573206e6f742065786973740000000000600082015250565b60006140f7601b83613ed0565b9150614102826140c1565b602082019050919050565b60006020820190508181036000830152614126816140ea565b9050919050565b7f596f7520617265206e6f742061206d656d626572206f662074686520636c7562600082015250565b6000614163602083613ed0565b915061416e8261412d565b602082019050919050565b6000602082019050818103600083015261419281614156565b9050919050565b7f4f6e6c79207468652063726561746f72206f66207468652070726f706f73616c60008201527f2063616e20657865637574652069740000000000000000000000000000000000602082015250565b60006141f5602f83613ed0565b915061420082614199565b604082019050919050565b60006020820190508181036000830152614224816141e8565b9050919050565b7f54686520616d6f756e7420657863656564732074686520706f6f6c206f66207460008201527f686520636c756200000000000000000000000000000000000000000000000000602082015250565b6000614287602783613ed0565b91506142928261422b565b604082019050919050565b600060208201905081810360008301526142b68161427a565b9050919050565b7f5468652070726f706f73616c20686173206e6f74206265656e20617070726f7660008201527f6564000000000000000000000000000000000000000000000000000000000000602082015250565b6000614319602283613ed0565b9150614324826142bd565b604082019050919050565b600060208201905081810360008301526143488161430c565b9050919050565b7f596f752063616e2774206265666f72652074686520566f74696e67206465616460008201527f6c696e6500000000000000000000000000000000000000000000000000000000602082015250565b60006143ab602483613ed0565b91506143b68261434f565b604082019050919050565b600060208201905081810360008301526143da8161439e565b9050919050565b60006143ec82613198565b91506143f783613198565b92508282101561440a57614409613fdd565b5b828203905092915050565b7f596f75206d7573742073656e642045564d4f5320746f20636f6e74726962757460008201527f6500000000000000000000000000000000000000000000000000000000000000602082015250565b6000614471602183613ed0565b915061447c82614415565b604082019050919050565b600060208201905081810360008301526144a081614464565b9050919050565b60006144b282613198565b91506144bd83613198565b9250827fffffffffffffffffffffffffffffffffffffffffffffffffffffffffffffffff038211156144f2576144f1613fdd565b5b828201905092915050565b7f566f74696e6720506572696f642046696e697368656400000000000000000000600082015250565b6000614533601683613ed0565b915061453e826144fd565b602082019050919050565b6000602082019050818103600083015261456281614526565b9050919050565b7f596f75206861766520616c726561647920766f746564206f6e2074686973207060008201527f726f706f73616c00000000000000000000000000000000000000000000000000602082015250565b60006145c5602783613ed0565b91506145d082614569565b604082019050919050565b600060208201905081810360008301526145f4816145b8565b9050919050565b600081905092915050565b60008190508160005260206000209050919050565b6000815461462881613f7c565b61463281866145fb565b9450600182166000811461464d576001811461465e57614691565b60ff19831686528186019350614691565b61466785614606565b60005b838110156146895781548189015260018201915060208101905061466a565b838801955050505b50505092915050565b60006146a6828461461b565b915081905092915050565b7f5468652070726f706f73616c206973206e6f206c6f6e6765722070656e64696e60008201527f6700000000000000000000000000000000000000000000000000000000000000602082015250565b600061470d602183613ed0565b9150614718826146b1565b604082019050919050565b6000602082019050818103600083015261473c81614700565b9050919050565b7f54686520636c756220646f6573206e6f74206578697374000000000000000000600082015250565b6000614779601783613ed0565b915061478482614743565b602082019050919050565b600060208201905081810360008301526147a88161476c565b9050919050565b7f54686520616d6f756e74206f66207468652070726f706f73616c206d7573742060008201527f62652067726561746572207468616e2030000000000000000000000000000000602082015250565b600061480b603183613ed0565b9150614816826147af565b604082019050919050565b6000602082019050818103600083015261483a816147fe565b9050919050565b7f54686520636c75622069732066756c6c2c206e6f206d6f7265206d656d62657260008201527f732063616e206265206164646564000000000000000000000000000000000000602082015250565b600061489d602e83613ed0565b91506148a882614841565b604082019050919050565b600060208201905081810360008301526148cc81614890565b9050919050565b7f596f752061726520616c72656164792061206d656d626572206f66207468652060008201527f636c756200000000000000000000000000000000000000000000000000000000602082015250565b600061492f602483613ed0565b915061493a826148d3565b604082019050919050565b6000602082019050818103600083015261495e81614922565b9050919050565b7f5468652070726f706f73616c206973206e6f7420696e2070656e64696e67207360008201527f7461747573000000000000000000000000000000000000000000000000000000602082015250565b60006149c1602583613ed0565b91506149cc82614965565b604082019050919050565b600060208201905081810360008301526149f0816149b4565b9050919050565b7f4f6e6c79207468652070726f706f73616c2063726561746f722063616e20636c60008201527f6f7365207468652070726f706f73616c00000000000000000000000000000000602082015250565b6000614a53603083613ed0565b9150614a5e826149f7565b604082019050919050565b60006020820190508181036000830152614a8281614a46565b905091905056fea2646970667358221220b6a03cafcd90de082d505f324ceb59cb374d8c2d83e02957de87b164043898da64736f6c634300080a0033",
  "linkReferences": {},
  "deployedLinkReferences": {}
}