{"contracts/InvestmentClub.sol":{"InvestmentClub":{"abi":[{"inputs":[],"stateMutability":"nonpayable","type":"constructor"},{"inputs":[{"internalType":"uint256","name":"clubId","type":"uint256"},{"internalType":"uint256","name":"proposalId","type":"uint256"}],"name":"closeProposal","outputs":[],"stateMutability":"nonpayable","type":"function"},{"inputs":[{"internalType":"uint256","name":"clubId","type":"uint256"}],"name":"contributeToClub","outputs":[],"stateMutability":"payable","type":"function"},{"inputs":[{"internalType":"string","name":"name","type":"string"},{"internalType":"string","name":"Cid","type":"string"}],"name":"createClub","outputs":[{"internalType":"uint256","name":"","type":"uint256"}],"stateMutability":"nonpayable","type":"function"},{"inputs":[{"internalType":"uint256","name":"clubId","type":"uint256"},{"internalType":"uint256","name":"amount","type":"uint256"},{"internalType":"address","name":"destination","type":"address"},{"internalType":"string","name":"description","type":"string"},{"internalType":"string","name":"Cid","type":"string"}],"name":"createProposal","outputs":[],"stateMutability":"nonpayable","type":"function"},{"inputs":[{"internalType":"uint256","name":"clubId","type":"uint256"},{"internalType":"uint256","name":"proposalId","type":"uint256"}],"name":"executeProposal","outputs":[],"stateMutability":"payable","type":"function"},{"inputs":[{"internalType":"address","name":"userAddress","type":"address"},{"internalType":"uint256","name":"clubId","type":"uint256"}],"name":"getBalanceByClub","outputs":[{"internalType":"uint256","name":"","type":"uint256"}],"stateMutability":"view","type":"function"},{"inputs":[{"internalType":"uint256","name":"clubId","type":"uint256"},{"internalType":"uint256","name":"proposalId","type":"uint256"},{"internalType":"string","name":"_Piece","type":"string"},{"internalType":"string","name":"_carsize","type":"string"}],"name":"getCarpiece","outputs":[],"stateMutability":"nonpayable","type":"function"},{"inputs":[{"internalType":"uint256","name":"clubId","type":"uint256"}],"name":"getClubById","outputs":[{"components":[{"internalType":"uint256","name":"clubId","type":"uint256"},{"internalType":"string","name":"name","type":"string"},{"internalType":"uint256","name":"memberCount","type":"uint256"},{"internalType":"uint256","name":"proposalCount","type":"uint256"},{"internalType":"uint256","name":"pool","type":"uint256"},{"internalType":"string","name":"CID","type":"string"},{"internalType":"string","name":"posdiverification","type":"string"},{"internalType":"uint256","name":"DealId","type":"uint256"}],"internalType":"struct InvestmentClub.ClubInfo","name":"","type":"tuple"}],"stateMutability":"view","type":"function"},{"inputs":[],"name":"getMyClubs","outputs":[{"components":[{"internalType":"uint256","name":"clubId","type":"uint256"},{"internalType":"string","name":"name","type":"string"},{"internalType":"uint256","name":"memberCount","type":"uint256"},{"internalType":"uint256","name":"proposalCount","type":"uint256"},{"internalType":"uint256","name":"pool","type":"uint256"},{"internalType":"string","name":"CID","type":"string"},{"internalType":"string","name":"posdiverification","type":"string"},{"internalType":"uint256","name":"DealId","type":"uint256"}],"internalType":"struct InvestmentClub.ClubInfo[]","name":"","type":"tuple[]"}],"stateMutability":"view","type":"function"},{"inputs":[{"internalType":"uint256","name":"clubId","type":"uint256"},{"internalType":"uint256","name":"proposalId","type":"uint256"}],"name":"getProposalById","outputs":[{"components":[{"internalType":"uint256","name":"id","type":"uint256"},{"internalType":"address","name":"creator","type":"address"},{"internalType":"uint256","name":"amount","type":"uint256"},{"internalType":"address","name":"destination","type":"address"},{"internalType":"string","name":"status","type":"string"},{"internalType":"string","name":"description","type":"string"},{"internalType":"uint256","name":"votesFor","type":"uint256"},{"internalType":"uint256","name":"votesAgainst","type":"uint256"},{"internalType":"uint256","name":"proposedAt","type":"uint256"},{"internalType":"uint256","name":"proposalExpireAt","type":"uint256"},{"internalType":"string","name":"Cid","type":"string"},{"internalType":"string","name":"PieceCid","type":"string"},{"internalType":"string","name":"carsize","type":"string"},{"internalType":"string","name":"posdiverification","type":"string"},{"internalType":"string","name":"storageProvider","type":"string"},{"internalType":"uint256","name":"DealId","type":"uint256"}],"internalType":"struct InvestmentClub.ProposalInfo","name":"","type":"tuple"}],"stateMutability":"view","type":"function"},{"inputs":[{"internalType":"uint256","name":"clubId","type":"uint256"}],"name":"getProposalsByClub","outputs":[{"components":[{"internalType":"uint256","name":"id","type":"uint256"},{"internalType":"address","name":"creator","type":"address"},{"internalType":"uint256","name":"amount","type":"uint256"},{"internalType":"address","name":"destination","type":"address"},{"internalType":"string","name":"status","type":"string"},{"internalType":"string","name":"description","type":"string"},{"internalType":"uint256","name":"votesFor","type":"uint256"},{"internalType":"uint256","name":"votesAgainst","type":"uint256"},{"internalType":"uint256","name":"proposedAt","type":"uint256"},{"internalType":"uint256","name":"proposalExpireAt","type":"uint256"},{"internalType":"string","name":"Cid","type":"string"},{"internalType":"string","name":"PieceCid","type":"string"},{"internalType":"string","name":"carsize","type":"string"},{"internalType":"string","name":"posdiverification","type":"string"},{"internalType":"string","name":"storageProvider","type":"string"},{"internalType":"uint256","name":"DealId","type":"uint256"}],"internalType":"struct InvestmentClub.ProposalInfo[]","name":"","type":"tuple[]"}],"stateMutability":"view","type":"function"},{"inputs":[{"internalType":"uint256","name":"clubId","type":"uint256"},{"internalType":"uint256","name":"proposalId","type":"uint256"},{"internalType":"uint256","name":"_dealId","type":"uint256"},{"internalType":"string","name":"_storage","type":"string"}],"name":"getdelandstorgae","outputs":[],"stateMutability":"nonpayable","type":"function"},{"inputs":[{"internalType":"address","name":"sender","type":"address"},{"internalType":"uint256","name":"proposalId","type":"uint256"},{"internalType":"uint256","name":"clubId","type":"uint256"}],"name":"hasVoted","outputs":[{"internalType":"bool","name":"","type":"bool"}],"stateMutability":"view","type":"function"},{"inputs":[{"internalType":"uint256","name":"clubId","type":"uint256"}],"name":"isClubFull","outputs":[{"internalType":"bool","name":"","type":"bool"}],"stateMutability":"view","type":"function"},{"inputs":[{"internalType":"uint256","name":"clubId","type":"uint256"}],"name":"isClubIdExist","outputs":[{"internalType":"bool","name":"","type":"bool"}],"stateMutability":"view","type":"function"},{"inputs":[{"internalType":"address","name":"memberAddress","type":"address"},{"internalType":"uint256","name":"clubId","type":"uint256"}],"name":"isMemberOfClub","outputs":[{"internalType":"bool","name":"","type":"bool"}],"stateMutability":"view","type":"function"},{"inputs":[{"internalType":"uint256","name":"proposalId","type":"uint256"},{"internalType":"uint256","name":"clubId","type":"uint256"}],"name":"isProposalIdExist","outputs":[{"internalType":"bool","name":"","type":"bool"}],"stateMutability":"view","type":"function"},{"inputs":[{"internalType":"uint256","name":"clubId","type":"uint256"},{"internalType":"uint256","name":"proposalId","type":"uint256"}],"name":"isVotingOn","outputs":[{"internalType":"bool","name":"","type":"bool"}],"stateMutability":"view","type":"function"},{"inputs":[{"internalType":"uint256","name":"clubId","type":"uint256"}],"name":"joinClub","outputs":[],"stateMutability":"nonpayable","type":"function"},{"inputs":[{"internalType":"uint256","name":"clubId","type":"uint256"}],"name":"leaveClub","outputs":[],"stateMutability":"nonpayable","type":"function"},{"inputs":[],"name":"listClubs","outputs":[{"components":[{"internalType":"uint256","name":"clubId","type":"uint256"},{"internalType":"string","name":"name","type":"string"},{"internalType":"uint256","name":"memberCount","type":"uint256"},{"internalType":"uint256","name":"proposalCount","type":"uint256"},{"internalType":"uint256","name":"pool","type":"uint256"},{"internalType":"string","name":"CID","type":"string"},{"internalType":"string","name":"posdiverification","type":"string"},{"internalType":"uint256","name":"DealId","type":"uint256"}],"internalType":"struct InvestmentClub.ClubInfo[]","name":"","type":"tuple[]"}],"stateMutability":"view","type":"function"},{"inputs":[{"internalType":"uint256","name":"clubId","type":"uint256"},{"internalType":"uint256","name":"proposalId","type":"uint256"}],"name":"proverifiydocs","outputs":[],"stateMutability":"nonpayable","type":"function"},{"inputs":[{"internalType":"uint256","name":"clubId","type":"uint256"}],"name":"verifiydocs","outputs":[],"stateMutability":"nonpayable","type":"function"},{"inputs":[{"internalType":"uint256","name":"clubId","type":"uint256"},{"internalType":"uint256","name":"proposalId","type":"uint256"},{"internalType":"bool","name":"vote","type":"bool"}],"name":"voteOnProposal","outputs":[],"stateMutability":"nonpayable","type":"function"}],"evm":{"bytecode":{"linkReferences":{},"object":"608060405234801561001057600080fd5b506000600181905550614abf806100286000396000f3fe60806040526004361061014b5760003560e01c8063647e598b116100b6578063ab7ca3481161006f578063ab7ca348146104a8578063c3741fed146104e5578063c467087814610522578063e15427421461055f578063e7613ea814610588578063eec8e0db146105b15761014b565b8063647e598b1461038a5780636764fd48146103b357806382b7661b146103f0578063890e24561461041957806389972a32146104565780639d9087b91461047f5761014b565b806334fa3d831161010857806334fa3d831461026857806335a1930f146102a55780634d7f75c3146102e2578063549710be1461030b57806354a2e233146103365780635ff847fb1461035f5761014b565b8063058694a9146101505780630ee294041461018d5780631063fd19146101ca57806314204fc6146101f35780631ab7671214610230578063288509b41461024c575b600080fd5b34801561015c57600080fd5b50610177600480360381019061017291906131ce565b6105ee565b6040516101849190613528565b60405180910390f35b34801561019957600080fd5b506101b460048036038101906101af9190613576565b610bf0565b6040516101c191906135e4565b60405180910390f35b3480156101d657600080fd5b506101f160048036038101906101ec9190613734565b610c6f565b005b3480156101ff57600080fd5b5061021a600480360381019061021591906137b7565b610cc2565b6040516102279190613979565b60405180910390f35b61024a600480360381019061024591906137b7565b611262565b005b610266600480360381019061026191906131ce565b611575565b005b34801561027457600080fd5b5061028f600480360381019061028a919061399b565b6116df565b60405161029c91906135e4565b60405180910390f35b3480156102b157600080fd5b506102cc60048036038101906102c791906139db565b61178e565b6040516102d99190613a62565b60405180910390f35b3480156102ee57600080fd5b50610309600480360381019061030491906131ce565b611937565b005b34801561031757600080fd5b50610320611a71565b60405161032d9190613bfd565b60405180910390f35b34801561034257600080fd5b5061035d60048036038101906103589190613c4b565b611d43565b005b34801561036b57600080fd5b50610374611fc1565b6040516103819190613bfd565b60405180910390f35b34801561039657600080fd5b506103b160048036038101906103ac9190613c9e565b612278565b005b3480156103bf57600080fd5b506103da60048036038101906103d591906131ce565b6122db565b6040516103e791906135e4565b60405180910390f35b3480156103fc57600080fd5b50610417600480360381019061041291906131ce565b6122fd565b005b34801561042557600080fd5b50610440600480360381019061043b919061399b565b6123ad565b60405161044d9190613a62565b60405180910390f35b34801561046257600080fd5b5061047d60048036038101906104789190613d3d565b612418565b005b34801561048b57600080fd5b506104a660048036038101906104a191906137b7565b6127e1565b005b3480156104b457600080fd5b506104cf60048036038101906104ca91906137b7565b61285e565b6040516104dc91906135e4565b60405180910390f35b3480156104f157600080fd5b5061050c600480360381019061050791906131ce565b612899565b6040516105199190613eae565b60405180910390f35b34801561052e57600080fd5b50610549600480360381019061054491906131ce565b612aff565b60405161055691906135e4565b60405180910390f35b34801561056b57600080fd5b50610586600480360381019061058191906131ce565b612b21565b005b34801561059457600080fd5b506105af60048036038101906105aa91906137b7565b612cf8565b005b3480156105bd57600080fd5b506105d860048036038101906105d391906137b7565b612f2f565b6040516105e591906135e4565b60405180910390f35b60606105f9826122db565b610638576040517f08c379a000000000000000000000000000000000000000000000000000000000815260040161062f90613f2d565b60405180910390fd5b600080600084815260200190815260200160002090506000816006015467ffffffffffffffff81111561066e5761066d613609565b5b6040519080825280602002602001820160405280156106a757816020015b610694612ff3565b81526020019060019003908161068c5790505b509050600080600190505b83600601548111610be45760008460050160008381526020019081526020016000209050604051806102000160405280826000015481526020018260010160009054906101000a900473ffffffffffffffffffffffffffffffffffffffff1673ffffffffffffffffffffffffffffffffffffffff168152602001826002015481526020018260030160009054906101000a900473ffffffffffffffffffffffffffffffffffffffff1673ffffffffffffffffffffffffffffffffffffffff16815260200182600401805461078590613f7c565b80601f01602080910402602001604051908101604052809291908181526020018280546107b190613f7c565b80156107fe5780601f106107d3576101008083540402835291602001916107fe565b820191906000526020600020905b8154815290600101906020018083116107e157829003601f168201915b5050505050815260200182600501805461081790613f7c565b80601f016020809104026020016040519081016040528092919081815260200182805461084390613f7c565b80156108905780601f1061086557610100808354040283529160200191610890565b820191906000526020600020905b81548152906001019060200180831161087357829003601f168201915b505050505081526020018260060154815260200182600701548152602001826008015481526020018260090154815260200182600a0180546108d190613f7c565b80601f01602080910402602001604051908101604052809291908181526020018280546108fd90613f7c565b801561094a5780601f1061091f5761010080835404028352916020019161094a565b820191906000526020600020905b81548152906001019060200180831161092d57829003601f168201915b5050505050815260200182600b01805461096390613f7c565b80601f016020809104026020016040519081016040528092919081815260200182805461098f90613f7c565b80156109dc5780601f106109b1576101008083540402835291602001916109dc565b820191906000526020600020905b8154815290600101906020018083116109bf57829003601f168201915b5050505050815260200182600c0180546109f590613f7c565b80601f0160208091040260200160405190810160405280929190818152602001828054610a2190613f7c565b8015610a6e5780601f10610a4357610100808354040283529160200191610a6e565b820191906000526020600020905b815481529060010190602001808311610a5157829003601f168201915b5050505050815260200182600d018054610a8790613f7c565b80601f0160208091040260200160405190810160405280929190818152602001828054610ab390613f7c565b8015610b005780601f10610ad557610100808354040283529160200191610b00565b820191906000526020600020905b815481529060010190602001808311610ae357829003601f168201915b5050505050815260200182600e018054610b1990613f7c565b80601f0160208091040260200160405190810160405280929190818152602001828054610b4590613f7c565b8015610b925780601f10610b6757610100808354040283529160200191610b92565b820191906000526020600020905b815481529060010190602001808311610b7557829003601f168201915b5050505050815260200182600f0154815250848481518110610bb757610bb6613fae565b5b60200260200101819052508280610bcd9061400c565b935050508080610bdc9061400c565b9150506106b2565b50819350505050919050565b6000806000838152602001908152602001600020600501600084815260200190815260200160002060100160008573ffffffffffffffffffffffffffffffffffffffff1673ffffffffffffffffffffffffffffffffffffffff16815260200190815260200160002060009054906101000a900460ff1690509392505050565b6000806000868152602001908152602001600020600501600085815260200190815260200160002090508281600f01819055508181600e019080519060200190610cba92919061309c565b505050505050565b610cca612ff3565b610cd3836122db565b610d12576040517f08c379a0000000000000000000000000000000000000000000000000000000008152600401610d09906140a1565b60405180910390fd5b610d1c8284612f2f565b610d5b576040517f08c379a0000000000000000000000000000000000000000000000000000000008152600401610d529061410d565b60405180910390fd5b6000806000858152602001908152602001600020600501600084815260200190815260200160002090506000604051806102000160405280836000015481526020018360010160009054906101000a900473ffffffffffffffffffffffffffffffffffffffff1673ffffffffffffffffffffffffffffffffffffffff168152602001836002015481526020018360030160009054906101000a900473ffffffffffffffffffffffffffffffffffffffff1673ffffffffffffffffffffffffffffffffffffffff168152602001836004018054610e3690613f7c565b80601f0160208091040260200160405190810160405280929190818152602001828054610e6290613f7c565b8015610eaf5780601f10610e8457610100808354040283529160200191610eaf565b820191906000526020600020905b815481529060010190602001808311610e9257829003601f168201915b50505050508152602001836005018054610ec890613f7c565b80601f0160208091040260200160405190810160405280929190818152602001828054610ef490613f7c565b8015610f415780601f10610f1657610100808354040283529160200191610f41565b820191906000526020600020905b815481529060010190602001808311610f2457829003601f168201915b505050505081526020018360060154815260200183600701548152602001836008015481526020018360090154815260200183600a018054610f8290613f7c565b80601f0160208091040260200160405190810160405280929190818152602001828054610fae90613f7c565b8015610ffb5780601f10610fd057610100808354040283529160200191610ffb565b820191906000526020600020905b815481529060010190602001808311610fde57829003601f168201915b5050505050815260200183600b01805461101490613f7c565b80601f016020809104026020016040519081016040528092919081815260200182805461104090613f7c565b801561108d5780601f106110625761010080835404028352916020019161108d565b820191906000526020600020905b81548152906001019060200180831161107057829003601f168201915b5050505050815260200183600c0180546110a690613f7c565b80601f01602080910402602001604051908101604052809291908181526020018280546110d290613f7c565b801561111f5780601f106110f45761010080835404028352916020019161111f565b820191906000526020600020905b81548152906001019060200180831161110257829003601f168201915b5050505050815260200183600d01805461113890613f7c565b80601f016020809104026020016040519081016040528092919081815260200182805461116490613f7c565b80156111b15780601f10611186576101008083540402835291602001916111b1565b820191906000526020600020905b81548152906001019060200180831161119457829003601f168201915b5050505050815260200183600e0180546111ca90613f7c565b80601f01602080910402602001604051908101604052809291908181526020018280546111f690613f7c565b80156112435780601f1061121857610100808354040283529160200191611243565b820191906000526020600020905b81548152906001019060200180831161122657829003601f168201915b5050505050815260200183600f01548152509050809250505092915050565b600080600084815260200190815260200160002090506000816005016000848152602001908152602001600020905061129a846122db565b6112d9576040517f08c379a00000000000000000000000000000000000000000000000000000000081526004016112d0906140a1565b60405180910390fd5b6112e333856116df565b611322576040517f08c379a000000000000000000000000000000000000000000000000000000000815260040161131990614179565b60405180910390fd5b61132c8385612f2f565b61136b576040517f08c379a00000000000000000000000000000000000000000000000000000000081526004016113629061410d565b60405180910390fd5b6113758484612f66565b6113b4576040517f08c379a00000000000000000000000000000000000000000000000000000000081526004016113ab9061420b565b60405180910390fd5b8060020154826004015410156113ff576040517f08c379a00000000000000000000000000000000000000000000000000000000081526004016113f69061429d565b60405180910390fd5b8060070154816006015411611449576040517f08c379a00000000000000000000000000000000000000000000000000000000081526004016114409061432f565b60405180910390fd5b611453848461285e565b15611493576040517f08c379a000000000000000000000000000000000000000000000000000000000815260040161148a906143c1565b60405180910390fd5b6040518060400160405280600881526020017f45786563757465640000000000000000000000000000000000000000000000008152508160040190805190602001906114e092919061309c565b5080600201548260040160008282546114f991906143e1565b925050819055508060030160009054906101000a900473ffffffffffffffffffffffffffffffffffffffff1673ffffffffffffffffffffffffffffffffffffffff166108fc82600201549081150290604051600060405180830381858888f1935050505015801561156e573d6000803e3d6000fd5b5050505050565b61157e816122db565b6115bd576040517f08c379a00000000000000000000000000000000000000000000000000000000081526004016115b4906140a1565b60405180910390fd5b600080600083815260200190815260200160002090506115dd33836116df565b61161c576040517f08c379a000000000000000000000000000000000000000000000000000000000815260040161161390614179565b60405180910390fd5b6000341161165f576040517f08c379a000000000000000000000000000000000000000000000000000000000815260040161165690614487565b60405180910390fd5b60008160020160003373ffffffffffffffffffffffffffffffffffffffff1673ffffffffffffffffffffffffffffffffffffffff1681526020019081526020016000209050348160010160008282546116b891906144a7565b92505081905550348260040160008282546116d391906144a7565b92505081905550505050565b60008073ffffffffffffffffffffffffffffffffffffffff1660008084815260200190815260200160002060020160008573ffffffffffffffffffffffffffffffffffffffff1673ffffffffffffffffffffffffffffffffffffffff16815260200190815260200160002060000160009054906101000a900473ffffffffffffffffffffffffffffffffffffffff1673ffffffffffffffffffffffffffffffffffffffff161415905092915050565b6000806001805461179f91906144a7565b905060008060008381526020019081526020016000209050818160000181905550848160010190805190602001906117d892919061309c565b506000816004018190555060008160060181905550600181600301819055508381600701908051906020019061180f92919061309c565b506040518060400160405280600b81526020017f556e2d566572696669656400000000000000000000000000000000000000000081525081600801908051906020019061185d92919061309c565b50600060405180604001604052803373ffffffffffffffffffffffffffffffffffffffff16815260200160008152509050808260020160003373ffffffffffffffffffffffffffffffffffffffff1673ffffffffffffffffffffffffffffffffffffffff16815260200190815260200160002060008201518160000160006101000a81548173ffffffffffffffffffffffffffffffffffffffff021916908373ffffffffffffffffffffffffffffffffffffffff160217905550602082015181600101559050508260018190555082935050505092915050565b611940816122db565b61197f576040517f08c379a0000000000000000000000000000000000000000000000000000000008152600401611976906140a1565b60405180910390fd5b6000806000838152602001908152602001600020905061199f33836116df565b6119de576040517f08c379a00000000000000000000000000000000000000000000000000000000081526004016119d590614179565b60405180910390fd5b60018160030160008282546119f391906143e1565b925050819055508060020160003373ffffffffffffffffffffffffffffffffffffffff1673ffffffffffffffffffffffffffffffffffffffff168152602001908152602001600020600080820160006101000a81549073ffffffffffffffffffffffffffffffffffffffff0219169055600182016000905550505050565b6060600060015467ffffffffffffffff811115611a9157611a90613609565b5b604051908082528060200260200182016040528015611aca57816020015b611ab7613122565b815260200190600190039081611aaf5790505b509050600080600190505b6001548111611d3a5760008060008381526020019081526020016000209050611b023382600001546116df565b15611d265760405180610100016040528082600001548152602001826001018054611b2c90613f7c565b80601f0160208091040260200160405190810160405280929190818152602001828054611b5890613f7c565b8015611ba55780601f10611b7a57610100808354040283529160200191611ba5565b820191906000526020600020905b815481529060010190602001808311611b8857829003601f168201915b50505050508152602001826003015481526020018260060154815260200182600401548152602001826007018054611bdc90613f7c565b80601f0160208091040260200160405190810160405280929190818152602001828054611c0890613f7c565b8015611c555780601f10611c2a57610100808354040283529160200191611c55565b820191906000526020600020905b815481529060010190602001808311611c3857829003601f168201915b50505050508152602001826008018054611c6e90613f7c565b80601f0160208091040260200160405190810160405280929190818152602001828054611c9a90613f7c565b8015611ce75780601f10611cbc57610100808354040283529160200191611ce7565b820191906000526020600020905b815481529060010190602001808311611cca57829003601f168201915b505050505081526020018260090154815250848481518110611d0c57611d0b613fae565b5b60200260200101819052508280611d229061400c565b9350505b508080611d329061400c565b915050611ad5565b50819250505090565b611d4c836122db565b611d8b576040517f08c379a0000000000000000000000000000000000000000000000000000000008152600401611d82906140a1565b60405180910390fd5b611d95838361285e565b611dd4576040517f08c379a0000000000000000000000000000000000000000000000000000000008152600401611dcb90614549565b60405180910390fd5b60008060008581526020019081526020016000209050611df433856116df565b611e33576040517f08c379a0000000000000000000000000000000000000000000000000000000008152600401611e2a90614179565b60405180910390fd5b611e3d8385612f2f565b611e7c576040517f08c379a0000000000000000000000000000000000000000000000000000000008152600401611e739061410d565b60405180910390fd5b60008160050160008581526020019081526020016000209050611ea0338587610bf0565b15611ee0576040517f08c379a0000000000000000000000000000000000000000000000000000000008152600401611ed7906145db565b60405180910390fd5b6040518060400160405280600781526020017f50656e64696e67000000000000000000000000000000000000000000000000008152508051906020012081600401604051611f2e919061469a565b604051809103902014611f76576040517f08c379a0000000000000000000000000000000000000000000000000000000008152600401611f6d90614723565b60405180910390fd5b8215611f9d576001816006016000828254611f9191906144a7565b92505081905550611fba565b6001816007016000828254611fb291906144a7565b925050819055505b5050505050565b6060600060015467ffffffffffffffff811115611fe157611fe0613609565b5b60405190808252806020026020018201604052801561201a57816020015b612007613122565b815260200190600190039081611fff5790505b50905060005b60015481101561227057600080600060018461203c91906144a7565b815260200190815260200160002090506040518061010001604052808260000154815260200182600101805461207190613f7c565b80601f016020809104026020016040519081016040528092919081815260200182805461209d90613f7c565b80156120ea5780601f106120bf576101008083540402835291602001916120ea565b820191906000526020600020905b8154815290600101906020018083116120cd57829003601f168201915b5050505050815260200182600301548152602001826006015481526020018260040154815260200182600701805461212190613f7c565b80601f016020809104026020016040519081016040528092919081815260200182805461214d90613f7c565b801561219a5780601f1061216f5761010080835404028352916020019161219a565b820191906000526020600020905b81548152906001019060200180831161217d57829003601f168201915b505050505081526020018260080180546121b390613f7c565b80601f01602080910402602001604051908101604052809291908181526020018280546121df90613f7c565b801561222c5780601f106122015761010080835404028352916020019161222c565b820191906000526020600020905b81548152906001019060200180831161220f57829003601f168201915b50505050508152602001826009015481525083838151811061225157612250613fae565b5b60200260200101819052505080806122689061400c565b915050612020565b508091505090565b6000806000868152602001908152602001600020600501600085815260200190815260200160002090508281600b0190805190602001906122ba92919061309c565b508181600c0190805190602001906122d392919061309c565b505050505050565b6000806000808481526020019081526020016000206000015414159050919050565b612306816122db565b612345576040517f08c379a000000000000000000000000000000000000000000000000000000000815260040161233c9061478f565b60405180910390fd5b600080600083815260200190815260200160002090506040518060400160405280600881526020017f56657269666965640000000000000000000000000000000000000000000000008152508160080190805190602001906123a892919061309c565b505050565b600080600080848152602001908152602001600020905060008160020160008673ffffffffffffffffffffffffffffffffffffffff1673ffffffffffffffffffffffffffffffffffffffff168152602001908152602001600020905080600101549250505092915050565b612421856122db565b612460576040517f08c379a0000000000000000000000000000000000000000000000000000000008152600401612457906140a1565b60405180910390fd5b6000806000878152602001908152602001600020905061248033876116df565b6124bf576040517f08c379a00000000000000000000000000000000000000000000000000000000081526004016124b690614179565b60405180910390fd5b60008511612502576040517f08c379a00000000000000000000000000000000000000000000000000000000081526004016124f990614821565b60405180910390fd5b60006001826006015461251591906144a7565b9050600080600089815260200190815260200160002060050160008381526020019081526020016000209050818160000181905550338160010160006101000a81548173ffffffffffffffffffffffffffffffffffffffff021916908373ffffffffffffffffffffffffffffffffffffffff160217905550868160020181905550858160030160006101000a81548173ffffffffffffffffffffffffffffffffffffffff021916908373ffffffffffffffffffffffffffffffffffffffff1602179055506040518060400160405280600781526020017f50656e64696e670000000000000000000000000000000000000000000000000081525081600401908051906020019061262692919061309c565b508481600501908051906020019061263f92919061309c565b50600081600601819055506000816007018190555042816008018190555061012c4261266b91906144a7565b81600901819055508381600a01908051906020019061268b92919061309c565b506040518060400160405280600a81526020017f494e2050726f636573730000000000000000000000000000000000000000000081525081600b0190805190602001906126d992919061309c565b506040518060400160405280600a81526020017f494e2d50726f636573730000000000000000000000000000000000000000000081525081600c01908051906020019061272792919061309c565b50600081600f01819055506040518060400160405280600a81526020017f494e2d50726f636573730000000000000000000000000000000000000000000081525081600e01908051906020019061277f92919061309c565b506040518060400160405280600b81526020017f556e2d566572696669656400000000000000000000000000000000000000000081525081600d0190805190602001906127cd92919061309c565b508183600601819055505050505050505050565b6000806000848152602001908152602001600020600501600083815260200190815260200160002090506040518060400160405280600881526020017f566572696669656400000000000000000000000000000000000000000000000081525081600d01908051906020019061285892919061309c565b50505050565b600080600080858152602001908152602001600020600501600084815260200190815260200160002090504281600901541191505092915050565b6128a1613122565b6128aa826122db565b6128e9576040517f08c379a00000000000000000000000000000000000000000000000000000000081526004016128e0906140a1565b60405180910390fd5b6000806000848152602001908152602001600020905060006040518061010001604052808360000154815260200183600101805461292690613f7c565b80601f016020809104026020016040519081016040528092919081815260200182805461295290613f7c565b801561299f5780601f106129745761010080835404028352916020019161299f565b820191906000526020600020905b81548152906001019060200180831161298257829003601f168201915b505050505081526020018360030154815260200183600601548152602001836004015481526020018360070180546129d690613f7c565b80601f0160208091040260200160405190810160405280929190818152602001828054612a0290613f7c565b8015612a4f5780601f10612a2457610100808354040283529160200191612a4f565b820191906000526020600020905b815481529060010190602001808311612a3257829003601f168201915b50505050508152602001836008018054612a6890613f7c565b80601f0160208091040260200160405190810160405280929190818152602001828054612a9490613f7c565b8015612ae15780601f10612ab657610100808354040283529160200191612ae1565b820191906000526020600020905b815481529060010190602001808311612ac457829003601f168201915b50505050508152602001836009015481525090508092505050919050565b6000606360008084815260200190815260200160002060030154109050919050565b612b2a816122db565b612b69576040517f08c379a0000000000000000000000000000000000000000000000000000000008152600401612b609061478f565b60405180910390fd5b60008060008381526020019081526020016000209050612b8882612aff565b612bc7576040517f08c379a0000000000000000000000000000000000000000000000000000000008152600401612bbe906148b3565b60405180910390fd5b612bd133836116df565b15612c11576040517f08c379a0000000000000000000000000000000000000000000000000000000008152600401612c0890614945565b60405180910390fd5b600060405180604001604052803373ffffffffffffffffffffffffffffffffffffffff16815260200160008152509050808260020160003373ffffffffffffffffffffffffffffffffffffffff1673ffffffffffffffffffffffffffffffffffffffff16815260200190815260200160002060008201518160000160006101000a81548173ffffffffffffffffffffffffffffffffffffffff021916908373ffffffffffffffffffffffffffffffffffffffff160217905550602082015181600101559050506001826003016000828254612cec91906144a7565b92505081905550505050565b612d01826122db565b612d40576040517f08c379a0000000000000000000000000000000000000000000000000000000008152600401612d37906140a1565b60405180910390fd5b612d4a8183612f2f565b612d89576040517f08c379a0000000000000000000000000000000000000000000000000000000008152600401612d809061410d565b60405180910390fd5b612d93828261285e565b15612dd3576040517f08c379a0000000000000000000000000000000000000000000000000000000008152600401612dca906143c1565b60405180910390fd5b6000806000848152602001908152602001600020600501600083815260200190815260200160002090506040518060400160405280600781526020017f50656e64696e67000000000000000000000000000000000000000000000000008152508051906020012081600401604051612e4b919061469a565b604051809103902014612e93576040517f08c379a0000000000000000000000000000000000000000000000000000000008152600401612e8a906149d7565b60405180910390fd5b612e9d8383612f66565b612edc576040517f08c379a0000000000000000000000000000000000000000000000000000000008152600401612ed390614a69565b60405180910390fd5b6040518060400160405280600681526020017f436c6f7365640000000000000000000000000000000000000000000000000000815250816004019080519060200190612f2992919061309c565b50505050565b6000806000808481526020019081526020016000206005016000858152602001908152602001600020600001541415905092915050565b6000806000808581526020019081526020016000209050600081600501600085815260200190815260200160002090508060010160009054906101000a900473ffffffffffffffffffffffffffffffffffffffff1673ffffffffffffffffffffffffffffffffffffffff163373ffffffffffffffffffffffffffffffffffffffff16149250505092915050565b60405180610200016040528060008152602001600073ffffffffffffffffffffffffffffffffffffffff16815260200160008152602001600073ffffffffffffffffffffffffffffffffffffffff1681526020016060815260200160608152602001600081526020016000815260200160008152602001600081526020016060815260200160608152602001606081526020016060815260200160608152602001600081525090565b8280546130a890613f7c565b90600052602060002090601f0160209004810192826130ca5760008555613111565b82601f106130e357805160ff1916838001178555613111565b82800160010185558215613111579182015b828111156131105782518255916020019190600101906130f5565b5b50905061311e9190613167565b5090565b60405180610100016040528060008152602001606081526020016000815260200160008152602001600081526020016060815260200160608152602001600081525090565b5b80821115613180576000816000905550600101613168565b5090565b6000604051905090565b600080fd5b600080fd5b6000819050919050565b6131ab81613198565b81146131b657600080fd5b50565b6000813590506131c8816131a2565b92915050565b6000602082840312156131e4576131e361318e565b5b60006131f2848285016131b9565b91505092915050565b600081519050919050565b600082825260208201905092915050565b6000819050602082019050919050565b61323081613198565b82525050565b600073ffffffffffffffffffffffffffffffffffffffff82169050919050565b600061326182613236565b9050919050565b61327181613256565b82525050565b600081519050919050565b600082825260208201905092915050565b60005b838110156132b1578082015181840152602081019050613296565b838111156132c0576000848401525b50505050565b6000601f19601f8301169050919050565b60006132e282613277565b6132ec8185613282565b93506132fc818560208601613293565b613305816132c6565b840191505092915050565b6000610200830160008301516133296000860182613227565b50602083015161333c6020860182613268565b50604083015161334f6040860182613227565b5060608301516133626060860182613268565b506080830151848203608086015261337a82826132d7565b91505060a083015184820360a086015261339482826132d7565b91505060c08301516133a960c0860182613227565b5060e08301516133bc60e0860182613227565b506101008301516133d1610100860182613227565b506101208301516133e6610120860182613227565b5061014083015184820361014086015261340082826132d7565b91505061016083015184820361016086015261341c82826132d7565b91505061018083015184820361018086015261343882826132d7565b9150506101a08301518482036101a086015261345482826132d7565b9150506101c08301518482036101c086015261347082826132d7565b9150506101e08301516134876101e0860182613227565b508091505092915050565b600061349e8383613310565b905092915050565b6000602082019050919050565b60006134be826131fb565b6134c88185613206565b9350836020820285016134da85613217565b8060005b8581101561351657848403895281516134f78582613492565b9450613502836134a6565b925060208a019950506001810190506134de565b50829750879550505050505092915050565b6000602082019050818103600083015261354281846134b3565b905092915050565b61355381613256565b811461355e57600080fd5b50565b6000813590506135708161354a565b92915050565b60008060006060848603121561358f5761358e61318e565b5b600061359d86828701613561565b93505060206135ae868287016131b9565b92505060406135bf868287016131b9565b9150509250925092565b60008115159050919050565b6135de816135c9565b82525050565b60006020820190506135f960008301846135d5565b92915050565b600080fd5b600080fd5b7f4e487b7100000000000000000000000000000000000000000000000000000000600052604160045260246000fd5b613641826132c6565b810181811067ffffffffffffffff821117156136605761365f613609565b5b80604052505050565b6000613673613184565b905061367f8282613638565b919050565b600067ffffffffffffffff82111561369f5761369e613609565b5b6136a8826132c6565b9050602081019050919050565b82818337600083830152505050565b60006136d76136d284613684565b613669565b9050828152602081018484840111156136f3576136f2613604565b5b6136fe8482856136b5565b509392505050565b600082601f83011261371b5761371a6135ff565b5b813561372b8482602086016136c4565b91505092915050565b6000806000806080858703121561374e5761374d61318e565b5b600061375c878288016131b9565b945050602061376d878288016131b9565b935050604061377e878288016131b9565b925050606085013567ffffffffffffffff81111561379f5761379e613193565b5b6137ab87828801613706565b91505092959194509250565b600080604083850312156137ce576137cd61318e565b5b60006137dc858286016131b9565b92505060206137ed858286016131b9565b9150509250929050565b6000610200830160008301516138106000860182613227565b5060208301516138236020860182613268565b5060408301516138366040860182613227565b5060608301516138496060860182613268565b506080830151848203608086015261386182826132d7565b91505060a083015184820360a086015261387b82826132d7565b91505060c083015161389060c0860182613227565b5060e08301516138a360e0860182613227565b506101008301516138b8610100860182613227565b506101208301516138cd610120860182613227565b506101408301518482036101408601526138e782826132d7565b91505061016083015184820361016086015261390382826132d7565b91505061018083015184820361018086015261391f82826132d7565b9150506101a08301518482036101a086015261393b82826132d7565b9150506101c08301518482036101c086015261395782826132d7565b9150506101e083015161396e6101e0860182613227565b508091505092915050565b6000602082019050818103600083015261399381846137f7565b905092915050565b600080604083850312156139b2576139b161318e565b5b60006139c085828601613561565b92505060206139d1858286016131b9565b9150509250929050565b600080604083850312156139f2576139f161318e565b5b600083013567ffffffffffffffff811115613a1057613a0f613193565b5b613a1c85828601613706565b925050602083013567ffffffffffffffff811115613a3d57613a3c613193565b5b613a4985828601613706565b9150509250929050565b613a5c81613198565b82525050565b6000602082019050613a776000830184613a53565b92915050565b600081519050919050565b600082825260208201905092915050565b6000819050602082019050919050565b600061010083016000830151613ac26000860182613227565b5060208301518482036020860152613ada82826132d7565b9150506040830151613aef6040860182613227565b506060830151613b026060860182613227565b506080830151613b156080860182613227565b5060a083015184820360a0860152613b2d82826132d7565b91505060c083015184820360c0860152613b4782826132d7565b91505060e0830151613b5c60e0860182613227565b508091505092915050565b6000613b738383613aa9565b905092915050565b6000602082019050919050565b6000613b9382613a7d565b613b9d8185613a88565b935083602082028501613baf85613a99565b8060005b85811015613beb5784840389528151613bcc8582613b67565b9450613bd783613b7b565b925060208a01995050600181019050613bb3565b50829750879550505050505092915050565b60006020820190508181036000830152613c178184613b88565b905092915050565b613c28816135c9565b8114613c3357600080fd5b50565b600081359050613c4581613c1f565b92915050565b600080600060608486031215613c6457613c6361318e565b5b6000613c72868287016131b9565b9350506020613c83868287016131b9565b9250506040613c9486828701613c36565b9150509250925092565b60008060008060808587031215613cb857613cb761318e565b5b6000613cc6878288016131b9565b9450506020613cd7878288016131b9565b935050604085013567ffffffffffffffff811115613cf857613cf7613193565b5b613d0487828801613706565b925050606085013567ffffffffffffffff811115613d2557613d24613193565b5b613d3187828801613706565b91505092959194509250565b600080600080600060a08688031215613d5957613d5861318e565b5b6000613d67888289016131b9565b9550506020613d78888289016131b9565b9450506040613d8988828901613561565b935050606086013567ffffffffffffffff811115613daa57613da9613193565b5b613db688828901613706565b925050608086013567ffffffffffffffff811115613dd757613dd6613193565b5b613de388828901613706565b9150509295509295909350565b600061010083016000830151613e096000860182613227565b5060208301518482036020860152613e2182826132d7565b9150506040830151613e366040860182613227565b506060830151613e496060860182613227565b506080830151613e5c6080860182613227565b5060a083015184820360a0860152613e7482826132d7565b91505060c083015184820360c0860152613e8e82826132d7565b91505060e0830151613ea360e0860182613227565b508091505092915050565b60006020820190508181036000830152613ec88184613df0565b905092915050565b600082825260208201905092915050565b7f436c756220646f6573206e6f7420657869737400000000000000000000000000600082015250565b6000613f17601383613ed0565b9150613f2282613ee1565b602082019050919050565b60006020820190508181036000830152613f4681613f0a565b9050919050565b7f4e487b7100000000000000000000000000000000000000000000000000000000600052602260045260246000fd5b60006002820490506001821680613f9457607f821691505b60208210811415613fa857613fa7613f4d565b5b50919050565b7f4e487b7100000000000000000000000000000000000000000000000000000000600052603260045260246000fd5b7f4e487b7100000000000000000000000000000000000000000000000000000000600052601160045260246000fd5b600061401782613198565b91507fffffffffffffffffffffffffffffffffffffffffffffffffffffffffffffffff82141561404a57614049613fdd565b5b600182019050919050565b7f74686520636c756220646f6573206e6f74206578697374000000000000000000600082015250565b600061408b601783613ed0565b915061409682614055565b602082019050919050565b600060208201905081810360008301526140ba8161407e565b9050919050565b7f5468652070726f706f73616c20646f6573206e6f742065786973740000000000600082015250565b60006140f7601b83613ed0565b9150614102826140c1565b602082019050919050565b60006020820190508181036000830152614126816140ea565b9050919050565b7f596f7520617265206e6f742061206d656d626572206f662074686520636c7562600082015250565b6000614163602083613ed0565b915061416e8261412d565b602082019050919050565b6000602082019050818103600083015261419281614156565b9050919050565b7f4f6e6c79207468652063726561746f72206f66207468652070726f706f73616c60008201527f2063616e20657865637574652069740000000000000000000000000000000000602082015250565b60006141f5602f83613ed0565b915061420082614199565b604082019050919050565b60006020820190508181036000830152614224816141e8565b9050919050565b7f54686520616d6f756e7420657863656564732074686520706f6f6c206f66207460008201527f686520636c756200000000000000000000000000000000000000000000000000602082015250565b6000614287602783613ed0565b91506142928261422b565b604082019050919050565b600060208201905081810360008301526142b68161427a565b9050919050565b7f5468652070726f706f73616c20686173206e6f74206265656e20617070726f7660008201527f6564000000000000000000000000000000000000000000000000000000000000602082015250565b6000614319602283613ed0565b9150614324826142bd565b604082019050919050565b600060208201905081810360008301526143488161430c565b9050919050565b7f596f752063616e2774206265666f72652074686520566f74696e67206465616460008201527f6c696e6500000000000000000000000000000000000000000000000000000000602082015250565b60006143ab602483613ed0565b91506143b68261434f565b604082019050919050565b600060208201905081810360008301526143da8161439e565b9050919050565b60006143ec82613198565b91506143f783613198565b92508282101561440a57614409613fdd565b5b828203905092915050565b7f596f75206d7573742073656e642045564d4f5320746f20636f6e74726962757460008201527f6500000000000000000000000000000000000000000000000000000000000000602082015250565b6000614471602183613ed0565b915061447c82614415565b604082019050919050565b600060208201905081810360008301526144a081614464565b9050919050565b60006144b282613198565b91506144bd83613198565b9250827fffffffffffffffffffffffffffffffffffffffffffffffffffffffffffffffff038211156144f2576144f1613fdd565b5b828201905092915050565b7f566f74696e6720506572696f642046696e697368656400000000000000000000600082015250565b6000614533601683613ed0565b915061453e826144fd565b602082019050919050565b6000602082019050818103600083015261456281614526565b9050919050565b7f596f75206861766520616c726561647920766f746564206f6e2074686973207060008201527f726f706f73616c00000000000000000000000000000000000000000000000000602082015250565b60006145c5602783613ed0565b91506145d082614569565b604082019050919050565b600060208201905081810360008301526145f4816145b8565b9050919050565b600081905092915050565b60008190508160005260206000209050919050565b6000815461462881613f7c565b61463281866145fb565b9450600182166000811461464d576001811461465e57614691565b60ff19831686528186019350614691565b61466785614606565b60005b838110156146895781548189015260018201915060208101905061466a565b838801955050505b50505092915050565b60006146a6828461461b565b915081905092915050565b7f5468652070726f706f73616c206973206e6f206c6f6e6765722070656e64696e60008201527f6700000000000000000000000000000000000000000000000000000000000000602082015250565b600061470d602183613ed0565b9150614718826146b1565b604082019050919050565b6000602082019050818103600083015261473c81614700565b9050919050565b7f54686520636c756220646f6573206e6f74206578697374000000000000000000600082015250565b6000614779601783613ed0565b915061478482614743565b602082019050919050565b600060208201905081810360008301526147a88161476c565b9050919050565b7f54686520616d6f756e74206f66207468652070726f706f73616c206d7573742060008201527f62652067726561746572207468616e2030000000000000000000000000000000602082015250565b600061480b603183613ed0565b9150614816826147af565b604082019050919050565b6000602082019050818103600083015261483a816147fe565b9050919050565b7f54686520636c75622069732066756c6c2c206e6f206d6f7265206d656d62657260008201527f732063616e206265206164646564000000000000000000000000000000000000602082015250565b600061489d602e83613ed0565b91506148a882614841565b604082019050919050565b600060208201905081810360008301526148cc81614890565b9050919050565b7f596f752061726520616c72656164792061206d656d626572206f66207468652060008201527f636c756200000000000000000000000000000000000000000000000000000000602082015250565b600061492f602483613ed0565b915061493a826148d3565b604082019050919050565b6000602082019050818103600083015261495e81614922565b9050919050565b7f5468652070726f706f73616c206973206e6f7420696e2070656e64696e67207360008201527f7461747573000000000000000000000000000000000000000000000000000000602082015250565b60006149c1602583613ed0565b91506149cc82614965565b604082019050919050565b600060208201905081810360008301526149f0816149b4565b9050919050565b7f4f6e6c79207468652070726f706f73616c2063726561746f722063616e20636c60008201527f6f7365207468652070726f706f73616c00000000000000000000000000000000602082015250565b6000614a53603083613ed0565b9150614a5e826149f7565b604082019050919050565b60006020820190508181036000830152614a8281614a46565b905091905056fea2646970667358221220b6a03cafcd90de082d505f324ceb59cb374d8c2d83e02957de87b164043898da64736f6c634300080a0033","opcodes":"PUSH1 0x80 PUSH1 0x40 MSTORE CALLVALUE DUP1 ISZERO PUSH2 0x10 JUMPI PUSH1 0x0 DUP1 REVERT JUMPDEST POP PUSH1 0x0 PUSH1 0x1 DUP2 SWAP1 SSTORE POP PUSH2 0x4ABF DUP1 PUSH2 0x28 PUSH1 0x0 CODECOPY PUSH1 0x0 RETURN INVALID PUSH1 0x80 PUSH1 0x40 MSTORE PUSH1 0x4 CALLDATASIZE LT PUSH2 0x14B JUMPI PUSH1 0x0 CALLDATALOAD PUSH1 0xE0 SHR DUP1 PUSH4 0x647E598B GT PUSH2 0xB6 JUMPI DUP1 PUSH4 0xAB7CA348 GT PUSH2 0x6F JUMPI DUP1 PUSH4 0xAB7CA348 EQ PUSH2 0x4A8 JUMPI DUP1 PUSH4 0xC3741FED EQ PUSH2 0x4E5 JUMPI DUP1 PUSH4 0xC4670878 EQ PUSH2 0x522 JUMPI DUP1 PUSH4 0xE1542742 EQ PUSH2 0x55F JUMPI DUP1 PUSH4 0xE7613EA8 EQ PUSH2 0x588 JUMPI DUP1 PUSH4 0xEEC8E0DB EQ PUSH2 0x5B1 JUMPI PUSH2 0x14B JUMP JUMPDEST DUP1 PUSH4 0x647E598B EQ PUSH2 0x38A JUMPI DUP1 PUSH4 0x6764FD48 EQ PUSH2 0x3B3 JUMPI DUP1 PUSH4 0x82B7661B EQ PUSH2 0x3F0 JUMPI DUP1 PUSH4 0x890E2456 EQ PUSH2 0x419 JUMPI DUP1 PUSH4 0x89972A32 EQ PUSH2 0x456 JUMPI DUP1 PUSH4 0x9D9087B9 EQ PUSH2 0x47F JUMPI PUSH2 0x14B JUMP JUMPDEST DUP1 PUSH4 0x34FA3D83 GT PUSH2 0x108 JUMPI DUP1 PUSH4 0x34FA3D83 EQ PUSH2 0x268 JUMPI DUP1 PUSH4 0x35A1930F EQ PUSH2 0x2A5 JUMPI DUP1 PUSH4 0x4D7F75C3 EQ PUSH2 0x2E2 JUMPI DUP1 PUSH4 0x549710BE EQ PUSH2 0x30B JUMPI DUP1 PUSH4 0x54A2E233 EQ PUSH2 0x336 JUMPI DUP1 PUSH4 0x5FF847FB EQ PUSH2 0x35F JUMPI PUSH2 0x14B JUMP JUMPDEST DUP1 PUSH4 0x58694A9 EQ PUSH2 0x150 JUMPI DUP1 PUSH4 0xEE29404 EQ PUSH2 0x18D JUMPI DUP1 PUSH4 0x1063FD19 EQ PUSH2 0x1CA JUMPI DUP1 PUSH4 0x14204FC6 EQ PUSH2 0x1F3 JUMPI DUP1 PUSH4 0x1AB76712 EQ PUSH2 0x230 JUMPI DUP1 PUSH4 0x288509B4 EQ PUSH2 0x24C JUMPI JUMPDEST PUSH1 0x0 DUP1 REVERT JUMPDEST CALLVALUE DUP1 ISZERO PUSH2 0x15C JUMPI PUSH1 0x0 DUP1 REVERT JUMPDEST POP PUSH2 0x177 PUSH1 0x4 DUP1 CALLDATASIZE SUB DUP2 ADD SWAP1 PUSH2 0x172 SWAP2 SWAP1 PUSH2 0x31CE JUMP JUMPDEST PUSH2 0x5EE JUMP JUMPDEST PUSH1 0x40 MLOAD PUSH2 0x184 SWAP2 SWAP1 PUSH2 0x3528 JUMP JUMPDEST PUSH1 0x40 MLOAD DUP1 SWAP2 SUB SWAP1 RETURN JUMPDEST CALLVALUE DUP1 ISZERO PUSH2 0x199 JUMPI PUSH1 0x0 DUP1 REVERT JUMPDEST POP PUSH2 0x1B4 PUSH1 0x4 DUP1 CALLDATASIZE SUB DUP2 ADD SWAP1 PUSH2 0x1AF SWAP2 SWAP1 PUSH2 0x3576 JUMP JUMPDEST PUSH2 0xBF0 JUMP JUMPDEST PUSH1 0x40 MLOAD PUSH2 0x1C1 SWAP2 SWAP1 PUSH2 0x35E4 JUMP JUMPDEST PUSH1 0x40 MLOAD DUP1 SWAP2 SUB SWAP1 RETURN JUMPDEST CALLVALUE DUP1 ISZERO PUSH2 0x1D6 JUMPI PUSH1 0x0 DUP1 REVERT JUMPDEST POP PUSH2 0x1F1 PUSH1 0x4 DUP1 CALLDATASIZE SUB DUP2 ADD SWAP1 PUSH2 0x1EC SWAP2 SWAP1 PUSH2 0x3734 JUMP JUMPDEST PUSH2 0xC6F JUMP JUMPDEST STOP JUMPDEST CALLVALUE DUP1 ISZERO PUSH2 0x1FF JUMPI PUSH1 0x0 DUP1 REVERT JUMPDEST POP PUSH2 0x21A PUSH1 0x4 DUP1 CALLDATASIZE SUB DUP2 ADD SWAP1 PUSH2 0x215 SWAP2 SWAP1 PUSH2 0x37B7 JUMP JUMPDEST PUSH2 0xCC2 JUMP JUMPDEST PUSH1 0x40 MLOAD PUSH2 0x227 SWAP2 SWAP1 PUSH2 0x3979 JUMP JUMPDEST PUSH1 0x40 MLOAD DUP1 SWAP2 SUB SWAP1 RETURN JUMPDEST PUSH2 0x24A PUSH1 0x4 DUP1 CALLDATASIZE SUB DUP2 ADD SWAP1 PUSH2 0x245 SWAP2 SWAP1 PUSH2 0x37B7 JUMP JUMPDEST PUSH2 0x1262 JUMP JUMPDEST STOP JUMPDEST PUSH2 0x266 PUSH1 0x4 DUP1 CALLDATASIZE SUB DUP2 ADD SWAP1 PUSH2 0x261 SWAP2 SWAP1 PUSH2 0x31CE JUMP JUMPDEST PUSH2 0x1575 JUMP JUMPDEST STOP JUMPDEST CALLVALUE DUP1 ISZERO PUSH2 0x274 JUMPI PUSH1 0x0 DUP1 REVERT JUMPDEST POP PUSH2 0x28F PUSH1 0x4 DUP1 CALLDATASIZE SUB DUP2 ADD SWAP1 PUSH2 0x28A SWAP2 SWAP1 PUSH2 0x399B JUMP JUMPDEST PUSH2 0x16DF JUMP JUMPDEST PUSH1 0x40 MLOAD PUSH2 0x29C SWAP2 SWAP1 PUSH2 0x35E4 JUMP JUMPDEST PUSH1 0x40 MLOAD DUP1 SWAP2 SUB SWAP1 RETURN JUMPDEST CALLVALUE DUP1 ISZERO PUSH2 0x2B1 JUMPI PUSH1 0x0 DUP1 REVERT JUMPDEST POP PUSH2 0x2CC PUSH1 0x4 DUP1 CALLDATASIZE SUB DUP2 ADD SWAP1 PUSH2 0x2C7 SWAP2 SWAP1 PUSH2 0x39DB JUMP JUMPDEST PUSH2 0x178E JUMP JUMPDEST PUSH1 0x40 MLOAD PUSH2 0x2D9 SWAP2 SWAP1 PUSH2 0x3A62 JUMP JUMPDEST PUSH1 0x40 MLOAD DUP1 SWAP2 SUB SWAP1 RETURN JUMPDEST CALLVALUE DUP1 ISZERO PUSH2 0x2EE JUMPI PUSH1 0x0 DUP1 REVERT JUMPDEST POP PUSH2 0x309 PUSH1 0x4 DUP1 CALLDATASIZE SUB DUP2 ADD SWAP1 PUSH2 0x304 SWAP2 SWAP1 PUSH2 0x31CE JUMP JUMPDEST PUSH2 0x1937 JUMP JUMPDEST STOP JUMPDEST CALLVALUE DUP1 ISZERO PUSH2 0x317 JUMPI PUSH1 0x0 DUP1 REVERT JUMPDEST POP PUSH2 0x320 PUSH2 0x1A71 JUMP JUMPDEST PUSH1 0x40 MLOAD PUSH2 0x32D SWAP2 SWAP1 PUSH2 0x3BFD JUMP JUMPDEST PUSH1 0x40 MLOAD DUP1 SWAP2 SUB SWAP1 RETURN JUMPDEST CALLVALUE DUP1 ISZERO PUSH2 0x342 JUMPI PUSH1 0x0 DUP1 REVERT JUMPDEST POP PUSH2 0x35D PUSH1 0x4 DUP1 CALLDATASIZE SUB DUP2 ADD SWAP1 PUSH2 0x358 SWAP2 SWAP1 PUSH2 0x3C4B JUMP JUMPDEST PUSH2 0x1D43 JUMP JUMPDEST STOP JUMPDEST CALLVALUE DUP1 ISZERO PUSH2 0x36B JUMPI PUSH1 0x0 DUP1 REVERT JUMPDEST POP PUSH2 0x374 PUSH2 0x1FC1 JUMP JUMPDEST PUSH1 0x40 MLOAD PUSH2 0x381 SWAP2 SWAP1 PUSH2 0x3BFD JUMP JUMPDEST PUSH1 0x40 MLOAD DUP1 SWAP2 SUB SWAP1 RETURN JUMPDEST CALLVALUE DUP1 ISZERO PUSH2 0x396 JUMPI PUSH1 0x0 DUP1 REVERT JUMPDEST POP PUSH2 0x3B1 PUSH1 0x4 DUP1 CALLDATASIZE SUB DUP2 ADD SWAP1 PUSH2 0x3AC SWAP2 SWAP1 PUSH2 0x3C9E JUMP JUMPDEST PUSH2 0x2278 JUMP JUMPDEST STOP JUMPDEST CALLVALUE DUP1 ISZERO PUSH2 0x3BF JUMPI PUSH1 0x0 DUP1 REVERT JUMPDEST POP PUSH2 0x3DA PUSH1 0x4 DUP1 CALLDATASIZE SUB DUP2 ADD SWAP1 PUSH2 0x3D5 SWAP2 SWAP1 PUSH2 0x31CE JUMP JUMPDEST PUSH2 0x22DB JUMP JUMPDEST PUSH1 0x40 MLOAD PUSH2 0x3E7 SWAP2 SWAP1 PUSH2 0x35E4 JUMP JUMPDEST PUSH1 0x40 MLOAD DUP1 SWAP2 SUB SWAP1 RETURN JUMPDEST CALLVALUE DUP1 ISZERO PUSH2 0x3FC JUMPI PUSH1 0x0 DUP1 REVERT JUMPDEST POP PUSH2 0x417 PUSH1 0x4 DUP1 CALLDATASIZE SUB DUP2 ADD SWAP1 PUSH2 0x412 SWAP2 SWAP1 PUSH2 0x31CE JUMP JUMPDEST PUSH2 0x22FD JUMP JUMPDEST STOP JUMPDEST CALLVALUE DUP1 ISZERO PUSH2 0x425 JUMPI PUSH1 0x0 DUP1 REVERT JUMPDEST POP PUSH2 0x440 PUSH1 0x4 DUP1 CALLDATASIZE SUB DUP2 ADD SWAP1 PUSH2 0x43B SWAP2 SWAP1 PUSH2 0x399B JUMP JUMPDEST PUSH2 0x23AD JUMP JUMPDEST PUSH1 0x40 MLOAD PUSH2 0x44D SWAP2 SWAP1 PUSH2 0x3A62 JUMP JUMPDEST PUSH1 0x40 MLOAD DUP1 SWAP2 SUB SWAP1 RETURN JUMPDEST CALLVALUE DUP1 ISZERO PUSH2 0x462 JUMPI PUSH1 0x0 DUP1 REVERT JUMPDEST POP PUSH2 0x47D PUSH1 0x4 DUP1 CALLDATASIZE SUB DUP2 ADD SWAP1 PUSH2 0x478 SWAP2 SWAP1 PUSH2 0x3D3D JUMP JUMPDEST PUSH2 0x2418 JUMP JUMPDEST STOP JUMPDEST CALLVALUE DUP1 ISZERO PUSH2 0x48B JUMPI PUSH1 0x0 DUP1 REVERT JUMPDEST POP PUSH2 0x4A6 PUSH1 0x4 DUP1 CALLDATASIZE SUB DUP2 ADD SWAP1 PUSH2 0x4A1 SWAP2 SWAP1 PUSH2 0x37B7 JUMP JUMPDEST PUSH2 0x27E1 JUMP JUMPDEST STOP JUMPDEST CALLVALUE DUP1 ISZERO PUSH2 0x4B4 JUMPI PUSH1 0x0 DUP1 REVERT JUMPDEST POP PUSH2 0x4CF PUSH1 0x4 DUP1 CALLDATASIZE SUB DUP2 ADD SWAP1 PUSH2 0x4CA SWAP2 SWAP1 PUSH2 0x37B7 JUMP JUMPDEST PUSH2 0x285E JUMP JUMPDEST PUSH1 0x40 MLOAD PUSH2 0x4DC SWAP2 SWAP1 PUSH2 0x35E4 JUMP JUMPDEST PUSH1 0x40 MLOAD DUP1 SWAP2 SUB SWAP1 RETURN JUMPDEST CALLVALUE DUP1 ISZERO PUSH2 0x4F1 JUMPI PUSH1 0x0 DUP1 REVERT JUMPDEST POP PUSH2 0x50C PUSH1 0x4 DUP1 CALLDATASIZE SUB DUP2 ADD SWAP1 PUSH2 0x507 SWAP2 SWAP1 PUSH2 0x31CE JUMP JUMPDEST PUSH2 0x2899 JUMP JUMPDEST PUSH1 0x40 MLOAD PUSH2 0x519 SWAP2 SWAP1 PUSH2 0x3EAE JUMP JUMPDEST PUSH1 0x40 MLOAD DUP1 SWAP2 SUB SWAP1 RETURN JUMPDEST CALLVALUE DUP1 ISZERO PUSH2 0x52E JUMPI PUSH1 0x0 DUP1 REVERT JUMPDEST POP PUSH2 0x549 PUSH1 0x4 DUP1 CALLDATASIZE SUB DUP2 ADD SWAP1 PUSH2 0x544 SWAP2 SWAP1 PUSH2 0x31CE JUMP JUMPDEST PUSH2 0x2AFF JUMP JUMPDEST PUSH1 0x40 MLOAD PUSH2 0x556 SWAP2 SWAP1 PUSH2 0x35E4 JUMP JUMPDEST PUSH1 0x40 MLOAD DUP1 SWAP2 SUB SWAP1 RETURN JUMPDEST CALLVALUE DUP1 ISZERO PUSH2 0x56B JUMPI PUSH1 0x0 DUP1 REVERT JUMPDEST POP PUSH2 0x586 PUSH1 0x4 DUP1 CALLDATASIZE SUB DUP2 ADD SWAP1 PUSH2 0x581 SWAP2 SWAP1 PUSH2 0x31CE JUMP JUMPDEST PUSH2 0x2B21 JUMP JUMPDEST STOP JUMPDEST CALLVALUE DUP1 ISZERO PUSH2 0x594 JUMPI PUSH1 0x0 DUP1 REVERT JUMPDEST POP PUSH2 0x5AF PUSH1 0x4 DUP1 CALLDATASIZE SUB DUP2 ADD SWAP1 PUSH2 0x5AA SWAP2 SWAP1 PUSH2 0x37B7 JUMP JUMPDEST PUSH2 0x2CF8 JUMP JUMPDEST STOP JUMPDEST CALLVALUE DUP1 ISZERO PUSH2 0x5BD JUMPI PUSH1 0x0 DUP1 REVERT JUMPDEST POP PUSH2 0x5D8 PUSH1 0x4 DUP1 CALLDATASIZE SUB DUP2 ADD SWAP1 PUSH2 0x5D3 SWAP2 SWAP1 PUSH2 0x37B7 JUMP JUMPDEST PUSH2 0x2F2F JUMP JUMPDEST PUSH1 0x40 MLOAD PUSH2 0x5E5 SWAP2 SWAP1 PUSH2 0x35E4 JUMP JUMPDEST PUSH1 0x40 MLOAD DUP1 SWAP2 SUB SWAP1 RETURN JUMPDEST PUSH1 0x60 PUSH2 0x5F9 DUP3 PUSH2 0x22DB JUMP JUMPDEST PUSH2 0x638 JUMPI PUSH1 0x40 MLOAD PUSH32 0x8C379A000000000000000000000000000000000000000000000000000000000 DUP2 MSTORE PUSH1 0x4 ADD PUSH2 0x62F SWAP1 PUSH2 0x3F2D JUMP JUMPDEST PUSH1 0x40 MLOAD DUP1 SWAP2 SUB SWAP1 REVERT JUMPDEST PUSH1 0x0 DUP1 PUSH1 0x0 DUP5 DUP2 MSTORE PUSH1 0x20 ADD SWAP1 DUP2 MSTORE PUSH1 0x20 ADD PUSH1 0x0 KECCAK256 SWAP1 POP PUSH1 0x0 DUP2 PUSH1 0x6 ADD SLOAD PUSH8 0xFFFFFFFFFFFFFFFF DUP2 GT ISZERO PUSH2 0x66E JUMPI PUSH2 0x66D PUSH2 0x3609 JUMP JUMPDEST JUMPDEST PUSH1 0x40 MLOAD SWAP1 DUP1 DUP3 MSTORE DUP1 PUSH1 0x20 MUL PUSH1 0x20 ADD DUP3 ADD PUSH1 0x40 MSTORE DUP1 ISZERO PUSH2 0x6A7 JUMPI DUP2 PUSH1 0x20 ADD JUMPDEST PUSH2 0x694 PUSH2 0x2FF3 JUMP JUMPDEST DUP2 MSTORE PUSH1 0x20 ADD SWAP1 PUSH1 0x1 SWAP1 SUB SWAP1 DUP2 PUSH2 0x68C JUMPI SWAP1 POP JUMPDEST POP SWAP1 POP PUSH1 0x0 DUP1 PUSH1 0x1 SWAP1 POP JUMPDEST DUP4 PUSH1 0x6 ADD SLOAD DUP2 GT PUSH2 0xBE4 JUMPI PUSH1 0x0 DUP5 PUSH1 0x5 ADD PUSH1 0x0 DUP4 DUP2 MSTORE PUSH1 0x20 ADD SWAP1 DUP2 MSTORE PUSH1 0x20 ADD PUSH1 0x0 KECCAK256 SWAP1 POP PUSH1 0x40 MLOAD DUP1 PUSH2 0x200 ADD PUSH1 0x40 MSTORE DUP1 DUP3 PUSH1 0x0 ADD SLOAD DUP2 MSTORE PUSH1 0x20 ADD DUP3 PUSH1 0x1 ADD PUSH1 0x0 SWAP1 SLOAD SWAP1 PUSH2 0x100 EXP SWAP1 DIV PUSH20 0xFFFFFFFFFFFFFFFFFFFFFFFFFFFFFFFFFFFFFFFF AND PUSH20 0xFFFFFFFFFFFFFFFFFFFFFFFFFFFFFFFFFFFFFFFF AND DUP2 MSTORE PUSH1 0x20 ADD DUP3 PUSH1 0x2 ADD SLOAD DUP2 MSTORE PUSH1 0x20 ADD DUP3 PUSH1 0x3 ADD PUSH1 0x0 SWAP1 SLOAD SWAP1 PUSH2 0x100 EXP SWAP1 DIV PUSH20 0xFFFFFFFFFFFFFFFFFFFFFFFFFFFFFFFFFFFFFFFF AND PUSH20 0xFFFFFFFFFFFFFFFFFFFFFFFFFFFFFFFFFFFFFFFF AND DUP2 MSTORE PUSH1 0x20 ADD DUP3 PUSH1 0x4 ADD DUP1 SLOAD PUSH2 0x785 SWAP1 PUSH2 0x3F7C JUMP JUMPDEST DUP1 PUSH1 0x1F ADD PUSH1 0x20 DUP1 SWAP2 DIV MUL PUSH1 0x20 ADD PUSH1 0x40 MLOAD SWAP1 DUP2 ADD PUSH1 0x40 MSTORE DUP1 SWAP3 SWAP2 SWAP1 DUP2 DUP2 MSTORE PUSH1 0x20 ADD DUP3 DUP1 SLOAD PUSH2 0x7B1 SWAP1 PUSH2 0x3F7C JUMP JUMPDEST DUP1 ISZERO PUSH2 0x7FE JUMPI DUP1 PUSH1 0x1F LT PUSH2 0x7D3 JUMPI PUSH2 0x100 DUP1 DUP4 SLOAD DIV MUL DUP4 MSTORE SWAP2 PUSH1 0x20 ADD SWAP2 PUSH2 0x7FE JUMP JUMPDEST DUP3 ADD SWAP2 SWAP1 PUSH1 0x0 MSTORE PUSH1 0x20 PUSH1 0x0 KECCAK256 SWAP1 JUMPDEST DUP2 SLOAD DUP2 MSTORE SWAP1 PUSH1 0x1 ADD SWAP1 PUSH1 0x20 ADD DUP1 DUP4 GT PUSH2 0x7E1 JUMPI DUP3 SWAP1 SUB PUSH1 0x1F AND DUP3 ADD SWAP2 JUMPDEST POP POP POP POP POP DUP2 MSTORE PUSH1 0x20 ADD DUP3 PUSH1 0x5 ADD DUP1 SLOAD PUSH2 0x817 SWAP1 PUSH2 0x3F7C JUMP JUMPDEST DUP1 PUSH1 0x1F ADD PUSH1 0x20 DUP1 SWAP2 DIV MUL PUSH1 0x20 ADD PUSH1 0x40 MLOAD SWAP1 DUP2 ADD PUSH1 0x40 MSTORE DUP1 SWAP3 SWAP2 SWAP1 DUP2 DUP2 MSTORE PUSH1 0x20 ADD DUP3 DUP1 SLOAD PUSH2 0x843 SWAP1 PUSH2 0x3F7C JUMP JUMPDEST DUP1 ISZERO PUSH2 0x890 JUMPI DUP1 PUSH1 0x1F LT PUSH2 0x865 JUMPI PUSH2 0x100 DUP1 DUP4 SLOAD DIV MUL DUP4 MSTORE SWAP2 PUSH1 0x20 ADD SWAP2 PUSH2 0x890 JUMP JUMPDEST DUP3 ADD SWAP2 SWAP1 PUSH1 0x0 MSTORE PUSH1 0x20 PUSH1 0x0 KECCAK256 SWAP1 JUMPDEST DUP2 SLOAD DUP2 MSTORE SWAP1 PUSH1 0x1 ADD SWAP1 PUSH1 0x20 ADD DUP1 DUP4 GT PUSH2 0x873 JUMPI DUP3 SWAP1 SUB PUSH1 0x1F AND DUP3 ADD SWAP2 JUMPDEST POP POP POP POP POP DUP2 MSTORE PUSH1 0x20 ADD DUP3 PUSH1 0x6 ADD SLOAD DUP2 MSTORE PUSH1 0x20 ADD DUP3 PUSH1 0x7 ADD SLOAD DUP2 MSTORE PUSH1 0x20 ADD DUP3 PUSH1 0x8 ADD SLOAD DUP2 MSTORE PUSH1 0x20 ADD DUP3 PUSH1 0x9 ADD SLOAD DUP2 MSTORE PUSH1 0x20 ADD DUP3 PUSH1 0xA ADD DUP1 SLOAD PUSH2 0x8D1 SWAP1 PUSH2 0x3F7C JUMP JUMPDEST DUP1 PUSH1 0x1F ADD PUSH1 0x20 DUP1 SWAP2 DIV MUL PUSH1 0x20 ADD PUSH1 0x40 MLOAD SWAP1 DUP2 ADD PUSH1 0x40 MSTORE DUP1 SWAP3 SWAP2 SWAP1 DUP2 DUP2 MSTORE PUSH1 0x20 ADD DUP3 DUP1 SLOAD PUSH2 0x8FD SWAP1 PUSH2 0x3F7C JUMP JUMPDEST DUP1 ISZERO PUSH2 0x94A JUMPI DUP1 PUSH1 0x1F LT PUSH2 0x91F JUMPI PUSH2 0x100 DUP1 DUP4 SLOAD DIV MUL DUP4 MSTORE SWAP2 PUSH1 0x20 ADD SWAP2 PUSH2 0x94A JUMP JUMPDEST DUP3 ADD SWAP2 SWAP1 PUSH1 0x0 MSTORE PUSH1 0x20 PUSH1 0x0 KECCAK256 SWAP1 JUMPDEST DUP2 SLOAD DUP2 MSTORE SWAP1 PUSH1 0x1 ADD SWAP1 PUSH1 0x20 ADD DUP1 DUP4 GT PUSH2 0x92D JUMPI DUP3 SWAP1 SUB PUSH1 0x1F AND DUP3 ADD SWAP2 JUMPDEST POP POP POP POP POP DUP2 MSTORE PUSH1 0x20 ADD DUP3 PUSH1 0xB ADD DUP1 SLOAD PUSH2 0x963 SWAP1 PUSH2 0x3F7C JUMP JUMPDEST DUP1 PUSH1 0x1F ADD PUSH1 0x20 DUP1 SWAP2 DIV MUL PUSH1 0x20 ADD PUSH1 0x40 MLOAD SWAP1 DUP2 ADD PUSH1 0x40 MSTORE DUP1 SWAP3 SWAP2 SWAP1 DUP2 DUP2 MSTORE PUSH1 0x20 ADD DUP3 DUP1 SLOAD PUSH2 0x98F SWAP1 PUSH2 0x3F7C JUMP JUMPDEST DUP1 ISZERO PUSH2 0x9DC JUMPI DUP1 PUSH1 0x1F LT PUSH2 0x9B1 JUMPI PUSH2 0x100 DUP1 DUP4 SLOAD DIV MUL DUP4 MSTORE SWAP2 PUSH1 0x20 ADD SWAP2 PUSH2 0x9DC JUMP JUMPDEST DUP3 ADD SWAP2 SWAP1 PUSH1 0x0 MSTORE PUSH1 0x20 PUSH1 0x0 KECCAK256 SWAP1 JUMPDEST DUP2 SLOAD DUP2 MSTORE SWAP1 PUSH1 0x1 ADD SWAP1 PUSH1 0x20 ADD DUP1 DUP4 GT PUSH2 0x9BF JUMPI DUP3 SWAP1 SUB PUSH1 0x1F AND DUP3 ADD SWAP2 JUMPDEST POP POP POP POP POP DUP2 MSTORE PUSH1 0x20 ADD DUP3 PUSH1 0xC ADD DUP1 SLOAD PUSH2 0x9F5 SWAP1 PUSH2 0x3F7C JUMP JUMPDEST DUP1 PUSH1 0x1F ADD PUSH1 0x20 DUP1 SWAP2 DIV MUL PUSH1 0x20 ADD PUSH1 0x40 MLOAD SWAP1 DUP2 ADD PUSH1 0x40 MSTORE DUP1 SWAP3 SWAP2 SWAP1 DUP2 DUP2 MSTORE PUSH1 0x20 ADD DUP3 DUP1 SLOAD PUSH2 0xA21 SWAP1 PUSH2 0x3F7C JUMP JUMPDEST DUP1 ISZERO PUSH2 0xA6E JUMPI DUP1 PUSH1 0x1F LT PUSH2 0xA43 JUMPI PUSH2 0x100 DUP1 DUP4 SLOAD DIV MUL DUP4 MSTORE SWAP2 PUSH1 0x20 ADD SWAP2 PUSH2 0xA6E JUMP JUMPDEST DUP3 ADD SWAP2 SWAP1 PUSH1 0x0 MSTORE PUSH1 0x20 PUSH1 0x0 KECCAK256 SWAP1 JUMPDEST DUP2 SLOAD DUP2 MSTORE SWAP1 PUSH1 0x1 ADD SWAP1 PUSH1 0x20 ADD DUP1 DUP4 GT PUSH2 0xA51 JUMPI DUP3 SWAP1 SUB PUSH1 0x1F AND DUP3 ADD SWAP2 JUMPDEST POP POP POP POP POP DUP2 MSTORE PUSH1 0x20 ADD DUP3 PUSH1 0xD ADD DUP1 SLOAD PUSH2 0xA87 SWAP1 PUSH2 0x3F7C JUMP JUMPDEST DUP1 PUSH1 0x1F ADD PUSH1 0x20 DUP1 SWAP2 DIV MUL PUSH1 0x20 ADD PUSH1 0x40 MLOAD SWAP1 DUP2 ADD PUSH1 0x40 MSTORE DUP1 SWAP3 SWAP2 SWAP1 DUP2 DUP2 MSTORE PUSH1 0x20 ADD DUP3 DUP1 SLOAD PUSH2 0xAB3 SWAP1 PUSH2 0x3F7C JUMP JUMPDEST DUP1 ISZERO PUSH2 0xB00 JUMPI DUP1 PUSH1 0x1F LT PUSH2 0xAD5 JUMPI PUSH2 0x100 DUP1 DUP4 SLOAD DIV MUL DUP4 MSTORE SWAP2 PUSH1 0x20 ADD SWAP2 PUSH2 0xB00 JUMP JUMPDEST DUP3 ADD SWAP2 SWAP1 PUSH1 0x0 MSTORE PUSH1 0x20 PUSH1 0x0 KECCAK256 SWAP1 JUMPDEST DUP2 SLOAD DUP2 MSTORE SWAP1 PUSH1 0x1 ADD SWAP1 PUSH1 0x20 ADD DUP1 DUP4 GT PUSH2 0xAE3 JUMPI DUP3 SWAP1 SUB PUSH1 0x1F AND DUP3 ADD SWAP2 JUMPDEST POP POP POP POP POP DUP2 MSTORE PUSH1 0x20 ADD DUP3 PUSH1 0xE ADD DUP1 SLOAD PUSH2 0xB19 SWAP1 PUSH2 0x3F7C JUMP JUMPDEST DUP1 PUSH1 0x1F ADD PUSH1 0x20 DUP1 SWAP2 DIV MUL PUSH1 0x20 ADD PUSH1 0x40 MLOAD SWAP1 DUP2 ADD PUSH1 0x40 MSTORE DUP1 SWAP3 SWAP2 SWAP1 DUP2 DUP2 MSTORE PUSH1 0x20 ADD DUP3 DUP1 SLOAD PUSH2 0xB45 SWAP1 PUSH2 0x3F7C JUMP JUMPDEST DUP1 ISZERO PUSH2 0xB92 JUMPI DUP1 PUSH1 0x1F LT PUSH2 0xB67 JUMPI PUSH2 0x100 DUP1 DUP4 SLOAD DIV MUL DUP4 MSTORE SWAP2 PUSH1 0x20 ADD SWAP2 PUSH2 0xB92 JUMP JUMPDEST DUP3 ADD SWAP2 SWAP1 PUSH1 0x0 MSTORE PUSH1 0x20 PUSH1 0x0 KECCAK256 SWAP1 JUMPDEST DUP2 SLOAD DUP2 MSTORE SWAP1 PUSH1 0x1 ADD SWAP1 PUSH1 0x20 ADD DUP1 DUP4 GT PUSH2 0xB75 JUMPI DUP3 SWAP1 SUB PUSH1 0x1F AND DUP3 ADD SWAP2 JUMPDEST POP POP POP POP POP DUP2 MSTORE PUSH1 0x20 ADD DUP3 PUSH1 0xF ADD SLOAD DUP2 MSTORE POP DUP5 DUP5 DUP2 MLOAD DUP2 LT PUSH2 0xBB7 JUMPI PUSH2 0xBB6 PUSH2 0x3FAE JUMP JUMPDEST JUMPDEST PUSH1 0x20 MUL PUSH1 0x20 ADD ADD DUP2 SWAP1 MSTORE POP DUP3 DUP1 PUSH2 0xBCD SWAP1 PUSH2 0x400C JUMP JUMPDEST SWAP4 POP POP POP DUP1 DUP1 PUSH2 0xBDC SWAP1 PUSH2 0x400C JUMP JUMPDEST SWAP2 POP POP PUSH2 0x6B2 JUMP JUMPDEST POP DUP2 SWAP4 POP POP POP POP SWAP2 SWAP1 POP JUMP JUMPDEST PUSH1 0x0 DUP1 PUSH1 0x0 DUP4 DUP2 MSTORE PUSH1 0x20 ADD SWAP1 DUP2 MSTORE PUSH1 0x20 ADD PUSH1 0x0 KECCAK256 PUSH1 0x5 ADD PUSH1 0x0 DUP5 DUP2 MSTORE PUSH1 0x20 ADD SWAP1 DUP2 MSTORE PUSH1 0x20 ADD PUSH1 0x0 KECCAK256 PUSH1 0x10 ADD PUSH1 0x0 DUP6 PUSH20 0xFFFFFFFFFFFFFFFFFFFFFFFFFFFFFFFFFFFFFFFF AND PUSH20 0xFFFFFFFFFFFFFFFFFFFFFFFFFFFFFFFFFFFFFFFF AND DUP2 MSTORE PUSH1 0x20 ADD SWAP1 DUP2 MSTORE PUSH1 0x20 ADD PUSH1 0x0 KECCAK256 PUSH1 0x0 SWAP1 SLOAD SWAP1 PUSH2 0x100 EXP SWAP1 DIV PUSH1 0xFF AND SWAP1 POP SWAP4 SWAP3 POP POP POP JUMP JUMPDEST PUSH1 0x0 DUP1 PUSH1 0x0 DUP7 DUP2 MSTORE PUSH1 0x20 ADD SWAP1 DUP2 MSTORE PUSH1 0x20 ADD PUSH1 0x0 KECCAK256 PUSH1 0x5 ADD PUSH1 0x0 DUP6 DUP2 MSTORE PUSH1 0x20 ADD SWAP1 DUP2 MSTORE PUSH1 0x20 ADD PUSH1 0x0 KECCAK256 SWAP1 POP DUP3 DUP2 PUSH1 0xF ADD DUP2 SWAP1 SSTORE POP DUP2 DUP2 PUSH1 0xE ADD SWAP1 DUP1 MLOAD SWAP1 PUSH1 0x20 ADD SWAP1 PUSH2 0xCBA SWAP3 SWAP2 SWAP1 PUSH2 0x309C JUMP JUMPDEST POP POP POP POP POP POP JUMP JUMPDEST PUSH2 0xCCA PUSH2 0x2FF3 JUMP JUMPDEST PUSH2 0xCD3 DUP4 PUSH2 0x22DB JUMP JUMPDEST PUSH2 0xD12 JUMPI PUSH1 0x40 MLOAD PUSH32 0x8C379A000000000000000000000000000000000000000000000000000000000 DUP2 MSTORE PUSH1 0x4 ADD PUSH2 0xD09 SWAP1 PUSH2 0x40A1 JUMP JUMPDEST PUSH1 0x40 MLOAD DUP1 SWAP2 SUB SWAP1 REVERT JUMPDEST PUSH2 0xD1C DUP3 DUP5 PUSH2 0x2F2F JUMP JUMPDEST PUSH2 0xD5B JUMPI PUSH1 0x40 MLOAD PUSH32 0x8C379A000000000000000000000000000000000000000000000000000000000 DUP2 MSTORE PUSH1 0x4 ADD PUSH2 0xD52 SWAP1 PUSH2 0x410D JUMP JUMPDEST PUSH1 0x40 MLOAD DUP1 SWAP2 SUB SWAP1 REVERT JUMPDEST PUSH1 0x0 DUP1 PUSH1 0x0 DUP6 DUP2 MSTORE PUSH1 0x20 ADD SWAP1 DUP2 MSTORE PUSH1 0x20 ADD PUSH1 0x0 KECCAK256 PUSH1 0x5 ADD PUSH1 0x0 DUP5 DUP2 MSTORE PUSH1 0x20 ADD SWAP1 DUP2 MSTORE PUSH1 0x20 ADD PUSH1 0x0 KECCAK256 SWAP1 POP PUSH1 0x0 PUSH1 0x40 MLOAD DUP1 PUSH2 0x200 ADD PUSH1 0x40 MSTORE DUP1 DUP4 PUSH1 0x0 ADD SLOAD DUP2 MSTORE PUSH1 0x20 ADD DUP4 PUSH1 0x1 ADD PUSH1 0x0 SWAP1 SLOAD SWAP1 PUSH2 0x100 EXP SWAP1 DIV PUSH20 0xFFFFFFFFFFFFFFFFFFFFFFFFFFFFFFFFFFFFFFFF AND PUSH20 0xFFFFFFFFFFFFFFFFFFFFFFFFFFFFFFFFFFFFFFFF AND DUP2 MSTORE PUSH1 0x20 ADD DUP4 PUSH1 0x2 ADD SLOAD DUP2 MSTORE PUSH1 0x20 ADD DUP4 PUSH1 0x3 ADD PUSH1 0x0 SWAP1 SLOAD SWAP1 PUSH2 0x100 EXP SWAP1 DIV PUSH20 0xFFFFFFFFFFFFFFFFFFFFFFFFFFFFFFFFFFFFFFFF AND PUSH20 0xFFFFFFFFFFFFFFFFFFFFFFFFFFFFFFFFFFFFFFFF AND DUP2 MSTORE PUSH1 0x20 ADD DUP4 PUSH1 0x4 ADD DUP1 SLOAD PUSH2 0xE36 SWAP1 PUSH2 0x3F7C JUMP JUMPDEST DUP1 PUSH1 0x1F ADD PUSH1 0x20 DUP1 SWAP2 DIV MUL PUSH1 0x20 ADD PUSH1 0x40 MLOAD SWAP1 DUP2 ADD PUSH1 0x40 MSTORE DUP1 SWAP3 SWAP2 SWAP1 DUP2 DUP2 MSTORE PUSH1 0x20 ADD DUP3 DUP1 SLOAD PUSH2 0xE62 SWAP1 PUSH2 0x3F7C JUMP JUMPDEST DUP1 ISZERO PUSH2 0xEAF JUMPI DUP1 PUSH1 0x1F LT PUSH2 0xE84 JUMPI PUSH2 0x100 DUP1 DUP4 SLOAD DIV MUL DUP4 MSTORE SWAP2 PUSH1 0x20 ADD SWAP2 PUSH2 0xEAF JUMP JUMPDEST DUP3 ADD SWAP2 SWAP1 PUSH1 0x0 MSTORE PUSH1 0x20 PUSH1 0x0 KECCAK256 SWAP1 JUMPDEST DUP2 SLOAD DUP2 MSTORE SWAP1 PUSH1 0x1 ADD SWAP1 PUSH1 0x20 ADD DUP1 DUP4 GT PUSH2 0xE92 JUMPI DUP3 SWAP1 SUB PUSH1 0x1F AND DUP3 ADD SWAP2 JUMPDEST POP POP POP POP POP DUP2 MSTORE PUSH1 0x20 ADD DUP4 PUSH1 0x5 ADD DUP1 SLOAD PUSH2 0xEC8 SWAP1 PUSH2 0x3F7C JUMP JUMPDEST DUP1 PUSH1 0x1F ADD PUSH1 0x20 DUP1 SWAP2 DIV MUL PUSH1 0x20 ADD PUSH1 0x40 MLOAD SWAP1 DUP2 ADD PUSH1 0x40 MSTORE DUP1 SWAP3 SWAP2 SWAP1 DUP2 DUP2 MSTORE PUSH1 0x20 ADD DUP3 DUP1 SLOAD PUSH2 0xEF4 SWAP1 PUSH2 0x3F7C JUMP JUMPDEST DUP1 ISZERO PUSH2 0xF41 JUMPI DUP1 PUSH1 0x1F LT PUSH2 0xF16 JUMPI PUSH2 0x100 DUP1 DUP4 SLOAD DIV MUL DUP4 MSTORE SWAP2 PUSH1 0x20 ADD SWAP2 PUSH2 0xF41 JUMP JUMPDEST DUP3 ADD SWAP2 SWAP1 PUSH1 0x0 MSTORE PUSH1 0x20 PUSH1 0x0 KECCAK256 SWAP1 JUMPDEST DUP2 SLOAD DUP2 MSTORE SWAP1 PUSH1 0x1 ADD SWAP1 PUSH1 0x20 ADD DUP1 DUP4 GT PUSH2 0xF24 JUMPI DUP3 SWAP1 SUB PUSH1 0x1F AND DUP3 ADD SWAP2 JUMPDEST POP POP POP POP POP DUP2 MSTORE PUSH1 0x20 ADD DUP4 PUSH1 0x6 ADD SLOAD DUP2 MSTORE PUSH1 0x20 ADD DUP4 PUSH1 0x7 ADD SLOAD DUP2 MSTORE PUSH1 0x20 ADD DUP4 PUSH1 0x8 ADD SLOAD DUP2 MSTORE PUSH1 0x20 ADD DUP4 PUSH1 0x9 ADD SLOAD DUP2 MSTORE PUSH1 0x20 ADD DUP4 PUSH1 0xA ADD DUP1 SLOAD PUSH2 0xF82 SWAP1 PUSH2 0x3F7C JUMP JUMPDEST DUP1 PUSH1 0x1F ADD PUSH1 0x20 DUP1 SWAP2 DIV MUL PUSH1 0x20 ADD PUSH1 0x40 MLOAD SWAP1 DUP2 ADD PUSH1 0x40 MSTORE DUP1 SWAP3 SWAP2 SWAP1 DUP2 DUP2 MSTORE PUSH1 0x20 ADD DUP3 DUP1 SLOAD PUSH2 0xFAE SWAP1 PUSH2 0x3F7C JUMP JUMPDEST DUP1 ISZERO PUSH2 0xFFB JUMPI DUP1 PUSH1 0x1F LT PUSH2 0xFD0 JUMPI PUSH2 0x100 DUP1 DUP4 SLOAD DIV MUL DUP4 MSTORE SWAP2 PUSH1 0x20 ADD SWAP2 PUSH2 0xFFB JUMP JUMPDEST DUP3 ADD SWAP2 SWAP1 PUSH1 0x0 MSTORE PUSH1 0x20 PUSH1 0x0 KECCAK256 SWAP1 JUMPDEST DUP2 SLOAD DUP2 MSTORE SWAP1 PUSH1 0x1 ADD SWAP1 PUSH1 0x20 ADD DUP1 DUP4 GT PUSH2 0xFDE JUMPI DUP3 SWAP1 SUB PUSH1 0x1F AND DUP3 ADD SWAP2 JUMPDEST POP POP POP POP POP DUP2 MSTORE PUSH1 0x20 ADD DUP4 PUSH1 0xB ADD DUP1 SLOAD PUSH2 0x1014 SWAP1 PUSH2 0x3F7C JUMP JUMPDEST DUP1 PUSH1 0x1F ADD PUSH1 0x20 DUP1 SWAP2 DIV MUL PUSH1 0x20 ADD PUSH1 0x40 MLOAD SWAP1 DUP2 ADD PUSH1 0x40 MSTORE DUP1 SWAP3 SWAP2 SWAP1 DUP2 DUP2 MSTORE PUSH1 0x20 ADD DUP3 DUP1 SLOAD PUSH2 0x1040 SWAP1 PUSH2 0x3F7C JUMP JUMPDEST DUP1 ISZERO PUSH2 0x108D JUMPI DUP1 PUSH1 0x1F LT PUSH2 0x1062 JUMPI PUSH2 0x100 DUP1 DUP4 SLOAD DIV MUL DUP4 MSTORE SWAP2 PUSH1 0x20 ADD SWAP2 PUSH2 0x108D JUMP JUMPDEST DUP3 ADD SWAP2 SWAP1 PUSH1 0x0 MSTORE PUSH1 0x20 PUSH1 0x0 KECCAK256 SWAP1 JUMPDEST DUP2 SLOAD DUP2 MSTORE SWAP1 PUSH1 0x1 ADD SWAP1 PUSH1 0x20 ADD DUP1 DUP4 GT PUSH2 0x1070 JUMPI DUP3 SWAP1 SUB PUSH1 0x1F AND DUP3 ADD SWAP2 JUMPDEST POP POP POP POP POP DUP2 MSTORE PUSH1 0x20 ADD DUP4 PUSH1 0xC ADD DUP1 SLOAD PUSH2 0x10A6 SWAP1 PUSH2 0x3F7C JUMP JUMPDEST DUP1 PUSH1 0x1F ADD PUSH1 0x20 DUP1 SWAP2 DIV MUL PUSH1 0x20 ADD PUSH1 0x40 MLOAD SWAP1 DUP2 ADD PUSH1 0x40 MSTORE DUP1 SWAP3 SWAP2 SWAP1 DUP2 DUP2 MSTORE PUSH1 0x20 ADD DUP3 DUP1 SLOAD PUSH2 0x10D2 SWAP1 PUSH2 0x3F7C JUMP JUMPDEST DUP1 ISZERO PUSH2 0x111F JUMPI DUP1 PUSH1 0x1F LT PUSH2 0x10F4 JUMPI PUSH2 0x100 DUP1 DUP4 SLOAD DIV MUL DUP4 MSTORE SWAP2 PUSH1 0x20 ADD SWAP2 PUSH2 0x111F JUMP JUMPDEST DUP3 ADD SWAP2 SWAP1 PUSH1 0x0 MSTORE PUSH1 0x20 PUSH1 0x0 KECCAK256 SWAP1 JUMPDEST DUP2 SLOAD DUP2 MSTORE SWAP1 PUSH1 0x1 ADD SWAP1 PUSH1 0x20 ADD DUP1 DUP4 GT PUSH2 0x1102 JUMPI DUP3 SWAP1 SUB PUSH1 0x1F AND DUP3 ADD SWAP2 JUMPDEST POP POP POP POP POP DUP2 MSTORE PUSH1 0x20 ADD DUP4 PUSH1 0xD ADD DUP1 SLOAD PUSH2 0x1138 SWAP1 PUSH2 0x3F7C JUMP JUMPDEST DUP1 PUSH1 0x1F ADD PUSH1 0x20 DUP1 SWAP2 DIV MUL PUSH1 0x20 ADD PUSH1 0x40 MLOAD SWAP1 DUP2 ADD PUSH1 0x40 MSTORE DUP1 SWAP3 SWAP2 SWAP1 DUP2 DUP2 MSTORE PUSH1 0x20 ADD DUP3 DUP1 SLOAD PUSH2 0x1164 SWAP1 PUSH2 0x3F7C JUMP JUMPDEST DUP1 ISZERO PUSH2 0x11B1 JUMPI DUP1 PUSH1 0x1F LT PUSH2 0x1186 JUMPI PUSH2 0x100 DUP1 DUP4 SLOAD DIV MUL DUP4 MSTORE SWAP2 PUSH1 0x20 ADD SWAP2 PUSH2 0x11B1 JUMP JUMPDEST DUP3 ADD SWAP2 SWAP1 PUSH1 0x0 MSTORE PUSH1 0x20 PUSH1 0x0 KECCAK256 SWAP1 JUMPDEST DUP2 SLOAD DUP2 MSTORE SWAP1 PUSH1 0x1 ADD SWAP1 PUSH1 0x20 ADD DUP1 DUP4 GT PUSH2 0x1194 JUMPI DUP3 SWAP1 SUB PUSH1 0x1F AND DUP3 ADD SWAP2 JUMPDEST POP POP POP POP POP DUP2 MSTORE PUSH1 0x20 ADD DUP4 PUSH1 0xE ADD DUP1 SLOAD PUSH2 0x11CA SWAP1 PUSH2 0x3F7C JUMP JUMPDEST DUP1 PUSH1 0x1F ADD PUSH1 0x20 DUP1 SWAP2 DIV MUL PUSH1 0x20 ADD PUSH1 0x40 MLOAD SWAP1 DUP2 ADD PUSH1 0x40 MSTORE DUP1 SWAP3 SWAP2 SWAP1 DUP2 DUP2 MSTORE PUSH1 0x20 ADD DUP3 DUP1 SLOAD PUSH2 0x11F6 SWAP1 PUSH2 0x3F7C JUMP JUMPDEST DUP1 ISZERO PUSH2 0x1243 JUMPI DUP1 PUSH1 0x1F LT PUSH2 0x1218 JUMPI PUSH2 0x100 DUP1 DUP4 SLOAD DIV MUL DUP4 MSTORE SWAP2 PUSH1 0x20 ADD SWAP2 PUSH2 0x1243 JUMP JUMPDEST DUP3 ADD SWAP2 SWAP1 PUSH1 0x0 MSTORE PUSH1 0x20 PUSH1 0x0 KECCAK256 SWAP1 JUMPDEST DUP2 SLOAD DUP2 MSTORE SWAP1 PUSH1 0x1 ADD SWAP1 PUSH1 0x20 ADD DUP1 DUP4 GT PUSH2 0x1226 JUMPI DUP3 SWAP1 SUB PUSH1 0x1F AND DUP3 ADD SWAP2 JUMPDEST POP POP POP POP POP DUP2 MSTORE PUSH1 0x20 ADD DUP4 PUSH1 0xF ADD SLOAD DUP2 MSTORE POP SWAP1 POP DUP1 SWAP3 POP POP POP SWAP3 SWAP2 POP POP JUMP JUMPDEST PUSH1 0x0 DUP1 PUSH1 0x0 DUP5 DUP2 MSTORE PUSH1 0x20 ADD SWAP1 DUP2 MSTORE PUSH1 0x20 ADD PUSH1 0x0 KECCAK256 SWAP1 POP PUSH1 0x0 DUP2 PUSH1 0x5 ADD PUSH1 0x0 DUP5 DUP2 MSTORE PUSH1 0x20 ADD SWAP1 DUP2 MSTORE PUSH1 0x20 ADD PUSH1 0x0 KECCAK256 SWAP1 POP PUSH2 0x129A DUP5 PUSH2 0x22DB JUMP JUMPDEST PUSH2 0x12D9 JUMPI PUSH1 0x40 MLOAD PUSH32 0x8C379A000000000000000000000000000000000000000000000000000000000 DUP2 MSTORE PUSH1 0x4 ADD PUSH2 0x12D0 SWAP1 PUSH2 0x40A1 JUMP JUMPDEST PUSH1 0x40 MLOAD DUP1 SWAP2 SUB SWAP1 REVERT JUMPDEST PUSH2 0x12E3 CALLER DUP6 PUSH2 0x16DF JUMP JUMPDEST PUSH2 0x1322 JUMPI PUSH1 0x40 MLOAD PUSH32 0x8C379A000000000000000000000000000000000000000000000000000000000 DUP2 MSTORE PUSH1 0x4 ADD PUSH2 0x1319 SWAP1 PUSH2 0x4179 JUMP JUMPDEST PUSH1 0x40 MLOAD DUP1 SWAP2 SUB SWAP1 REVERT JUMPDEST PUSH2 0x132C DUP4 DUP6 PUSH2 0x2F2F JUMP JUMPDEST PUSH2 0x136B JUMPI PUSH1 0x40 MLOAD PUSH32 0x8C379A000000000000000000000000000000000000000000000000000000000 DUP2 MSTORE PUSH1 0x4 ADD PUSH2 0x1362 SWAP1 PUSH2 0x410D JUMP JUMPDEST PUSH1 0x40 MLOAD DUP1 SWAP2 SUB SWAP1 REVERT JUMPDEST PUSH2 0x1375 DUP5 DUP5 PUSH2 0x2F66 JUMP JUMPDEST PUSH2 0x13B4 JUMPI PUSH1 0x40 MLOAD PUSH32 0x8C379A000000000000000000000000000000000000000000000000000000000 DUP2 MSTORE PUSH1 0x4 ADD PUSH2 0x13AB SWAP1 PUSH2 0x420B JUMP JUMPDEST PUSH1 0x40 MLOAD DUP1 SWAP2 SUB SWAP1 REVERT JUMPDEST DUP1 PUSH1 0x2 ADD SLOAD DUP3 PUSH1 0x4 ADD SLOAD LT ISZERO PUSH2 0x13FF JUMPI PUSH1 0x40 MLOAD PUSH32 0x8C379A000000000000000000000000000000000000000000000000000000000 DUP2 MSTORE PUSH1 0x4 ADD PUSH2 0x13F6 SWAP1 PUSH2 0x429D JUMP JUMPDEST PUSH1 0x40 MLOAD DUP1 SWAP2 SUB SWAP1 REVERT JUMPDEST DUP1 PUSH1 0x7 ADD SLOAD DUP2 PUSH1 0x6 ADD SLOAD GT PUSH2 0x1449 JUMPI PUSH1 0x40 MLOAD PUSH32 0x8C379A000000000000000000000000000000000000000000000000000000000 DUP2 MSTORE PUSH1 0x4 ADD PUSH2 0x1440 SWAP1 PUSH2 0x432F JUMP JUMPDEST PUSH1 0x40 MLOAD DUP1 SWAP2 SUB SWAP1 REVERT JUMPDEST PUSH2 0x1453 DUP5 DUP5 PUSH2 0x285E JUMP JUMPDEST ISZERO PUSH2 0x1493 JUMPI PUSH1 0x40 MLOAD PUSH32 0x8C379A000000000000000000000000000000000000000000000000000000000 DUP2 MSTORE PUSH1 0x4 ADD PUSH2 0x148A SWAP1 PUSH2 0x43C1 JUMP JUMPDEST PUSH1 0x40 MLOAD DUP1 SWAP2 SUB SWAP1 REVERT JUMPDEST PUSH1 0x40 MLOAD DUP1 PUSH1 0x40 ADD PUSH1 0x40 MSTORE DUP1 PUSH1 0x8 DUP2 MSTORE PUSH1 0x20 ADD PUSH32 0x4578656375746564000000000000000000000000000000000000000000000000 DUP2 MSTORE POP DUP2 PUSH1 0x4 ADD SWAP1 DUP1 MLOAD SWAP1 PUSH1 0x20 ADD SWAP1 PUSH2 0x14E0 SWAP3 SWAP2 SWAP1 PUSH2 0x309C JUMP JUMPDEST POP DUP1 PUSH1 0x2 ADD SLOAD DUP3 PUSH1 0x4 ADD PUSH1 0x0 DUP3 DUP3 SLOAD PUSH2 0x14F9 SWAP2 SWAP1 PUSH2 0x43E1 JUMP JUMPDEST SWAP3 POP POP DUP2 SWAP1 SSTORE POP DUP1 PUSH1 0x3 ADD PUSH1 0x0 SWAP1 SLOAD SWAP1 PUSH2 0x100 EXP SWAP1 DIV PUSH20 0xFFFFFFFFFFFFFFFFFFFFFFFFFFFFFFFFFFFFFFFF AND PUSH20 0xFFFFFFFFFFFFFFFFFFFFFFFFFFFFFFFFFFFFFFFF AND PUSH2 0x8FC DUP3 PUSH1 0x2 ADD SLOAD SWAP1 DUP2 ISZERO MUL SWAP1 PUSH1 0x40 MLOAD PUSH1 0x0 PUSH1 0x40 MLOAD DUP1 DUP4 SUB DUP2 DUP6 DUP9 DUP9 CALL SWAP4 POP POP POP POP ISZERO DUP1 ISZERO PUSH2 0x156E JUMPI RETURNDATASIZE PUSH1 0x0 DUP1 RETURNDATACOPY RETURNDATASIZE PUSH1 0x0 REVERT JUMPDEST POP POP POP POP POP JUMP JUMPDEST PUSH2 0x157E DUP2 PUSH2 0x22DB JUMP JUMPDEST PUSH2 0x15BD JUMPI PUSH1 0x40 MLOAD PUSH32 0x8C379A000000000000000000000000000000000000000000000000000000000 DUP2 MSTORE PUSH1 0x4 ADD PUSH2 0x15B4 SWAP1 PUSH2 0x40A1 JUMP JUMPDEST PUSH1 0x40 MLOAD DUP1 SWAP2 SUB SWAP1 REVERT JUMPDEST PUSH1 0x0 DUP1 PUSH1 0x0 DUP4 DUP2 MSTORE PUSH1 0x20 ADD SWAP1 DUP2 MSTORE PUSH1 0x20 ADD PUSH1 0x0 KECCAK256 SWAP1 POP PUSH2 0x15DD CALLER DUP4 PUSH2 0x16DF JUMP JUMPDEST PUSH2 0x161C JUMPI PUSH1 0x40 MLOAD PUSH32 0x8C379A000000000000000000000000000000000000000000000000000000000 DUP2 MSTORE PUSH1 0x4 ADD PUSH2 0x1613 SWAP1 PUSH2 0x4179 JUMP JUMPDEST PUSH1 0x40 MLOAD DUP1 SWAP2 SUB SWAP1 REVERT JUMPDEST PUSH1 0x0 CALLVALUE GT PUSH2 0x165F JUMPI PUSH1 0x40 MLOAD PUSH32 0x8C379A000000000000000000000000000000000000000000000000000000000 DUP2 MSTORE PUSH1 0x4 ADD PUSH2 0x1656 SWAP1 PUSH2 0x4487 JUMP JUMPDEST PUSH1 0x40 MLOAD DUP1 SWAP2 SUB SWAP1 REVERT JUMPDEST PUSH1 0x0 DUP2 PUSH1 0x2 ADD PUSH1 0x0 CALLER PUSH20 0xFFFFFFFFFFFFFFFFFFFFFFFFFFFFFFFFFFFFFFFF AND PUSH20 0xFFFFFFFFFFFFFFFFFFFFFFFFFFFFFFFFFFFFFFFF AND DUP2 MSTORE PUSH1 0x20 ADD SWAP1 DUP2 MSTORE PUSH1 0x20 ADD PUSH1 0x0 KECCAK256 SWAP1 POP CALLVALUE DUP2 PUSH1 0x1 ADD PUSH1 0x0 DUP3 DUP3 SLOAD PUSH2 0x16B8 SWAP2 SWAP1 PUSH2 0x44A7 JUMP JUMPDEST SWAP3 POP POP DUP2 SWAP1 SSTORE POP CALLVALUE DUP3 PUSH1 0x4 ADD PUSH1 0x0 DUP3 DUP3 SLOAD PUSH2 0x16D3 SWAP2 SWAP1 PUSH2 0x44A7 JUMP JUMPDEST SWAP3 POP POP DUP2 SWAP1 SSTORE POP POP POP POP JUMP JUMPDEST PUSH1 0x0 DUP1 PUSH20 0xFFFFFFFFFFFFFFFFFFFFFFFFFFFFFFFFFFFFFFFF AND PUSH1 0x0 DUP1 DUP5 DUP2 MSTORE PUSH1 0x20 ADD SWAP1 DUP2 MSTORE PUSH1 0x20 ADD PUSH1 0x0 KECCAK256 PUSH1 0x2 ADD PUSH1 0x0 DUP6 PUSH20 0xFFFFFFFFFFFFFFFFFFFFFFFFFFFFFFFFFFFFFFFF AND PUSH20 0xFFFFFFFFFFFFFFFFFFFFFFFFFFFFFFFFFFFFFFFF AND DUP2 MSTORE PUSH1 0x20 ADD SWAP1 DUP2 MSTORE PUSH1 0x20 ADD PUSH1 0x0 KECCAK256 PUSH1 0x0 ADD PUSH1 0x0 SWAP1 SLOAD SWAP1 PUSH2 0x100 EXP SWAP1 DIV PUSH20 0xFFFFFFFFFFFFFFFFFFFFFFFFFFFFFFFFFFFFFFFF AND PUSH20 0xFFFFFFFFFFFFFFFFFFFFFFFFFFFFFFFFFFFFFFFF AND EQ ISZERO SWAP1 POP SWAP3 SWAP2 POP POP JUMP JUMPDEST PUSH1 0x0 DUP1 PUSH1 0x1 DUP1 SLOAD PUSH2 0x179F SWAP2 SWAP1 PUSH2 0x44A7 JUMP JUMPDEST SWAP1 POP PUSH1 0x0 DUP1 PUSH1 0x0 DUP4 DUP2 MSTORE PUSH1 0x20 ADD SWAP1 DUP2 MSTORE PUSH1 0x20 ADD PUSH1 0x0 KECCAK256 SWAP1 POP DUP2 DUP2 PUSH1 0x0 ADD DUP2 SWAP1 SSTORE POP DUP5 DUP2 PUSH1 0x1 ADD SWAP1 DUP1 MLOAD SWAP1 PUSH1 0x20 ADD SWAP1 PUSH2 0x17D8 SWAP3 SWAP2 SWAP1 PUSH2 0x309C JUMP JUMPDEST POP PUSH1 0x0 DUP2 PUSH1 0x4 ADD DUP2 SWAP1 SSTORE POP PUSH1 0x0 DUP2 PUSH1 0x6 ADD DUP2 SWAP1 SSTORE POP PUSH1 0x1 DUP2 PUSH1 0x3 ADD DUP2 SWAP1 SSTORE POP DUP4 DUP2 PUSH1 0x7 ADD SWAP1 DUP1 MLOAD SWAP1 PUSH1 0x20 ADD SWAP1 PUSH2 0x180F SWAP3 SWAP2 SWAP1 PUSH2 0x309C JUMP JUMPDEST POP PUSH1 0x40 MLOAD DUP1 PUSH1 0x40 ADD PUSH1 0x40 MSTORE DUP1 PUSH1 0xB DUP2 MSTORE PUSH1 0x20 ADD PUSH32 0x556E2D5665726966696564000000000000000000000000000000000000000000 DUP2 MSTORE POP DUP2 PUSH1 0x8 ADD SWAP1 DUP1 MLOAD SWAP1 PUSH1 0x20 ADD SWAP1 PUSH2 0x185D SWAP3 SWAP2 SWAP1 PUSH2 0x309C JUMP JUMPDEST POP PUSH1 0x0 PUSH1 0x40 MLOAD DUP1 PUSH1 0x40 ADD PUSH1 0x40 MSTORE DUP1 CALLER PUSH20 0xFFFFFFFFFFFFFFFFFFFFFFFFFFFFFFFFFFFFFFFF AND DUP2 MSTORE PUSH1 0x20 ADD PUSH1 0x0 DUP2 MSTORE POP SWAP1 POP DUP1 DUP3 PUSH1 0x2 ADD PUSH1 0x0 CALLER PUSH20 0xFFFFFFFFFFFFFFFFFFFFFFFFFFFFFFFFFFFFFFFF AND PUSH20 0xFFFFFFFFFFFFFFFFFFFFFFFFFFFFFFFFFFFFFFFF AND DUP2 MSTORE PUSH1 0x20 ADD SWAP1 DUP2 MSTORE PUSH1 0x20 ADD PUSH1 0x0 KECCAK256 PUSH1 0x0 DUP3 ADD MLOAD DUP2 PUSH1 0x0 ADD PUSH1 0x0 PUSH2 0x100 EXP DUP2 SLOAD DUP2 PUSH20 0xFFFFFFFFFFFFFFFFFFFFFFFFFFFFFFFFFFFFFFFF MUL NOT AND SWAP1 DUP4 PUSH20 0xFFFFFFFFFFFFFFFFFFFFFFFFFFFFFFFFFFFFFFFF AND MUL OR SWAP1 SSTORE POP PUSH1 0x20 DUP3 ADD MLOAD DUP2 PUSH1 0x1 ADD SSTORE SWAP1 POP POP DUP3 PUSH1 0x1 DUP2 SWAP1 SSTORE POP DUP3 SWAP4 POP POP POP POP SWAP3 SWAP2 POP POP JUMP JUMPDEST PUSH2 0x1940 DUP2 PUSH2 0x22DB JUMP JUMPDEST PUSH2 0x197F JUMPI PUSH1 0x40 MLOAD PUSH32 0x8C379A000000000000000000000000000000000000000000000000000000000 DUP2 MSTORE PUSH1 0x4 ADD PUSH2 0x1976 SWAP1 PUSH2 0x40A1 JUMP JUMPDEST PUSH1 0x40 MLOAD DUP1 SWAP2 SUB SWAP1 REVERT JUMPDEST PUSH1 0x0 DUP1 PUSH1 0x0 DUP4 DUP2 MSTORE PUSH1 0x20 ADD SWAP1 DUP2 MSTORE PUSH1 0x20 ADD PUSH1 0x0 KECCAK256 SWAP1 POP PUSH2 0x199F CALLER DUP4 PUSH2 0x16DF JUMP JUMPDEST PUSH2 0x19DE JUMPI PUSH1 0x40 MLOAD PUSH32 0x8C379A000000000000000000000000000000000000000000000000000000000 DUP2 MSTORE PUSH1 0x4 ADD PUSH2 0x19D5 SWAP1 PUSH2 0x4179 JUMP JUMPDEST PUSH1 0x40 MLOAD DUP1 SWAP2 SUB SWAP1 REVERT JUMPDEST PUSH1 0x1 DUP2 PUSH1 0x3 ADD PUSH1 0x0 DUP3 DUP3 SLOAD PUSH2 0x19F3 SWAP2 SWAP1 PUSH2 0x43E1 JUMP JUMPDEST SWAP3 POP POP DUP2 SWAP1 SSTORE POP DUP1 PUSH1 0x2 ADD PUSH1 0x0 CALLER PUSH20 0xFFFFFFFFFFFFFFFFFFFFFFFFFFFFFFFFFFFFFFFF AND PUSH20 0xFFFFFFFFFFFFFFFFFFFFFFFFFFFFFFFFFFFFFFFF AND DUP2 MSTORE PUSH1 0x20 ADD SWAP1 DUP2 MSTORE PUSH1 0x20 ADD PUSH1 0x0 KECCAK256 PUSH1 0x0 DUP1 DUP3 ADD PUSH1 0x0 PUSH2 0x100 EXP DUP2 SLOAD SWAP1 PUSH20 0xFFFFFFFFFFFFFFFFFFFFFFFFFFFFFFFFFFFFFFFF MUL NOT AND SWAP1 SSTORE PUSH1 0x1 DUP3 ADD PUSH1 0x0 SWAP1 SSTORE POP POP POP POP JUMP JUMPDEST PUSH1 0x60 PUSH1 0x0 PUSH1 0x1 SLOAD PUSH8 0xFFFFFFFFFFFFFFFF DUP2 GT ISZERO PUSH2 0x1A91 JUMPI PUSH2 0x1A90 PUSH2 0x3609 JUMP JUMPDEST JUMPDEST PUSH1 0x40 MLOAD SWAP1 DUP1 DUP3 MSTORE DUP1 PUSH1 0x20 MUL PUSH1 0x20 ADD DUP3 ADD PUSH1 0x40 MSTORE DUP1 ISZERO PUSH2 0x1ACA JUMPI DUP2 PUSH1 0x20 ADD JUMPDEST PUSH2 0x1AB7 PUSH2 0x3122 JUMP JUMPDEST DUP2 MSTORE PUSH1 0x20 ADD SWAP1 PUSH1 0x1 SWAP1 SUB SWAP1 DUP2 PUSH2 0x1AAF JUMPI SWAP1 POP JUMPDEST POP SWAP1 POP PUSH1 0x0 DUP1 PUSH1 0x1 SWAP1 POP JUMPDEST PUSH1 0x1 SLOAD DUP2 GT PUSH2 0x1D3A JUMPI PUSH1 0x0 DUP1 PUSH1 0x0 DUP4 DUP2 MSTORE PUSH1 0x20 ADD SWAP1 DUP2 MSTORE PUSH1 0x20 ADD PUSH1 0x0 KECCAK256 SWAP1 POP PUSH2 0x1B02 CALLER DUP3 PUSH1 0x0 ADD SLOAD PUSH2 0x16DF JUMP JUMPDEST ISZERO PUSH2 0x1D26 JUMPI PUSH1 0x40 MLOAD DUP1 PUSH2 0x100 ADD PUSH1 0x40 MSTORE DUP1 DUP3 PUSH1 0x0 ADD SLOAD DUP2 MSTORE PUSH1 0x20 ADD DUP3 PUSH1 0x1 ADD DUP1 SLOAD PUSH2 0x1B2C SWAP1 PUSH2 0x3F7C JUMP JUMPDEST DUP1 PUSH1 0x1F ADD PUSH1 0x20 DUP1 SWAP2 DIV MUL PUSH1 0x20 ADD PUSH1 0x40 MLOAD SWAP1 DUP2 ADD PUSH1 0x40 MSTORE DUP1 SWAP3 SWAP2 SWAP1 DUP2 DUP2 MSTORE PUSH1 0x20 ADD DUP3 DUP1 SLOAD PUSH2 0x1B58 SWAP1 PUSH2 0x3F7C JUMP JUMPDEST DUP1 ISZERO PUSH2 0x1BA5 JUMPI DUP1 PUSH1 0x1F LT PUSH2 0x1B7A JUMPI PUSH2 0x100 DUP1 DUP4 SLOAD DIV MUL DUP4 MSTORE SWAP2 PUSH1 0x20 ADD SWAP2 PUSH2 0x1BA5 JUMP JUMPDEST DUP3 ADD SWAP2 SWAP1 PUSH1 0x0 MSTORE PUSH1 0x20 PUSH1 0x0 KECCAK256 SWAP1 JUMPDEST DUP2 SLOAD DUP2 MSTORE SWAP1 PUSH1 0x1 ADD SWAP1 PUSH1 0x20 ADD DUP1 DUP4 GT PUSH2 0x1B88 JUMPI DUP3 SWAP1 SUB PUSH1 0x1F AND DUP3 ADD SWAP2 JUMPDEST POP POP POP POP POP DUP2 MSTORE PUSH1 0x20 ADD DUP3 PUSH1 0x3 ADD SLOAD DUP2 MSTORE PUSH1 0x20 ADD DUP3 PUSH1 0x6 ADD SLOAD DUP2 MSTORE PUSH1 0x20 ADD DUP3 PUSH1 0x4 ADD SLOAD DUP2 MSTORE PUSH1 0x20 ADD DUP3 PUSH1 0x7 ADD DUP1 SLOAD PUSH2 0x1BDC SWAP1 PUSH2 0x3F7C JUMP JUMPDEST DUP1 PUSH1 0x1F ADD PUSH1 0x20 DUP1 SWAP2 DIV MUL PUSH1 0x20 ADD PUSH1 0x40 MLOAD SWAP1 DUP2 ADD PUSH1 0x40 MSTORE DUP1 SWAP3 SWAP2 SWAP1 DUP2 DUP2 MSTORE PUSH1 0x20 ADD DUP3 DUP1 SLOAD PUSH2 0x1C08 SWAP1 PUSH2 0x3F7C JUMP JUMPDEST DUP1 ISZERO PUSH2 0x1C55 JUMPI DUP1 PUSH1 0x1F LT PUSH2 0x1C2A JUMPI PUSH2 0x100 DUP1 DUP4 SLOAD DIV MUL DUP4 MSTORE SWAP2 PUSH1 0x20 ADD SWAP2 PUSH2 0x1C55 JUMP JUMPDEST DUP3 ADD SWAP2 SWAP1 PUSH1 0x0 MSTORE PUSH1 0x20 PUSH1 0x0 KECCAK256 SWAP1 JUMPDEST DUP2 SLOAD DUP2 MSTORE SWAP1 PUSH1 0x1 ADD SWAP1 PUSH1 0x20 ADD DUP1 DUP4 GT PUSH2 0x1C38 JUMPI DUP3 SWAP1 SUB PUSH1 0x1F AND DUP3 ADD SWAP2 JUMPDEST POP POP POP POP POP DUP2 MSTORE PUSH1 0x20 ADD DUP3 PUSH1 0x8 ADD DUP1 SLOAD PUSH2 0x1C6E SWAP1 PUSH2 0x3F7C JUMP JUMPDEST DUP1 PUSH1 0x1F ADD PUSH1 0x20 DUP1 SWAP2 DIV MUL PUSH1 0x20 ADD PUSH1 0x40 MLOAD SWAP1 DUP2 ADD PUSH1 0x40 MSTORE DUP1 SWAP3 SWAP2 SWAP1 DUP2 DUP2 MSTORE PUSH1 0x20 ADD DUP3 DUP1 SLOAD PUSH2 0x1C9A SWAP1 PUSH2 0x3F7C JUMP JUMPDEST DUP1 ISZERO PUSH2 0x1CE7 JUMPI DUP1 PUSH1 0x1F LT PUSH2 0x1CBC JUMPI PUSH2 0x100 DUP1 DUP4 SLOAD DIV MUL DUP4 MSTORE SWAP2 PUSH1 0x20 ADD SWAP2 PUSH2 0x1CE7 JUMP JUMPDEST DUP3 ADD SWAP2 SWAP1 PUSH1 0x0 MSTORE PUSH1 0x20 PUSH1 0x0 KECCAK256 SWAP1 JUMPDEST DUP2 SLOAD DUP2 MSTORE SWAP1 PUSH1 0x1 ADD SWAP1 PUSH1 0x20 ADD DUP1 DUP4 GT PUSH2 0x1CCA JUMPI DUP3 SWAP1 SUB PUSH1 0x1F AND DUP3 ADD SWAP2 JUMPDEST POP POP POP POP POP DUP2 MSTORE PUSH1 0x20 ADD DUP3 PUSH1 0x9 ADD SLOAD DUP2 MSTORE POP DUP5 DUP5 DUP2 MLOAD DUP2 LT PUSH2 0x1D0C JUMPI PUSH2 0x1D0B PUSH2 0x3FAE JUMP JUMPDEST JUMPDEST PUSH1 0x20 MUL PUSH1 0x20 ADD ADD DUP2 SWAP1 MSTORE POP DUP3 DUP1 PUSH2 0x1D22 SWAP1 PUSH2 0x400C JUMP JUMPDEST SWAP4 POP POP JUMPDEST POP DUP1 DUP1 PUSH2 0x1D32 SWAP1 PUSH2 0x400C JUMP JUMPDEST SWAP2 POP POP PUSH2 0x1AD5 JUMP JUMPDEST POP DUP2 SWAP3 POP POP POP SWAP1 JUMP JUMPDEST PUSH2 0x1D4C DUP4 PUSH2 0x22DB JUMP JUMPDEST PUSH2 0x1D8B JUMPI PUSH1 0x40 MLOAD PUSH32 0x8C379A000000000000000000000000000000000000000000000000000000000 DUP2 MSTORE PUSH1 0x4 ADD PUSH2 0x1D82 SWAP1 PUSH2 0x40A1 JUMP JUMPDEST PUSH1 0x40 MLOAD DUP1 SWAP2 SUB SWAP1 REVERT JUMPDEST PUSH2 0x1D95 DUP4 DUP4 PUSH2 0x285E JUMP JUMPDEST PUSH2 0x1DD4 JUMPI PUSH1 0x40 MLOAD PUSH32 0x8C379A000000000000000000000000000000000000000000000000000000000 DUP2 MSTORE PUSH1 0x4 ADD PUSH2 0x1DCB SWAP1 PUSH2 0x4549 JUMP JUMPDEST PUSH1 0x40 MLOAD DUP1 SWAP2 SUB SWAP1 REVERT JUMPDEST PUSH1 0x0 DUP1 PUSH1 0x0 DUP6 DUP2 MSTORE PUSH1 0x20 ADD SWAP1 DUP2 MSTORE PUSH1 0x20 ADD PUSH1 0x0 KECCAK256 SWAP1 POP PUSH2 0x1DF4 CALLER DUP6 PUSH2 0x16DF JUMP JUMPDEST PUSH2 0x1E33 JUMPI PUSH1 0x40 MLOAD PUSH32 0x8C379A000000000000000000000000000000000000000000000000000000000 DUP2 MSTORE PUSH1 0x4 ADD PUSH2 0x1E2A SWAP1 PUSH2 0x4179 JUMP JUMPDEST PUSH1 0x40 MLOAD DUP1 SWAP2 SUB SWAP1 REVERT JUMPDEST PUSH2 0x1E3D DUP4 DUP6 PUSH2 0x2F2F JUMP JUMPDEST PUSH2 0x1E7C JUMPI PUSH1 0x40 MLOAD PUSH32 0x8C379A000000000000000000000000000000000000000000000000000000000 DUP2 MSTORE PUSH1 0x4 ADD PUSH2 0x1E73 SWAP1 PUSH2 0x410D JUMP JUMPDEST PUSH1 0x40 MLOAD DUP1 SWAP2 SUB SWAP1 REVERT JUMPDEST PUSH1 0x0 DUP2 PUSH1 0x5 ADD PUSH1 0x0 DUP6 DUP2 MSTORE PUSH1 0x20 ADD SWAP1 DUP2 MSTORE PUSH1 0x20 ADD PUSH1 0x0 KECCAK256 SWAP1 POP PUSH2 0x1EA0 CALLER DUP6 DUP8 PUSH2 0xBF0 JUMP JUMPDEST ISZERO PUSH2 0x1EE0 JUMPI PUSH1 0x40 MLOAD PUSH32 0x8C379A000000000000000000000000000000000000000000000000000000000 DUP2 MSTORE PUSH1 0x4 ADD PUSH2 0x1ED7 SWAP1 PUSH2 0x45DB JUMP JUMPDEST PUSH1 0x40 MLOAD DUP1 SWAP2 SUB SWAP1 REVERT JUMPDEST PUSH1 0x40 MLOAD DUP1 PUSH1 0x40 ADD PUSH1 0x40 MSTORE DUP1 PUSH1 0x7 DUP2 MSTORE PUSH1 0x20 ADD PUSH32 0x50656E64696E6700000000000000000000000000000000000000000000000000 DUP2 MSTORE POP DUP1 MLOAD SWAP1 PUSH1 0x20 ADD KECCAK256 DUP2 PUSH1 0x4 ADD PUSH1 0x40 MLOAD PUSH2 0x1F2E SWAP2 SWAP1 PUSH2 0x469A JUMP JUMPDEST PUSH1 0x40 MLOAD DUP1 SWAP2 SUB SWAP1 KECCAK256 EQ PUSH2 0x1F76 JUMPI PUSH1 0x40 MLOAD PUSH32 0x8C379A000000000000000000000000000000000000000000000000000000000 DUP2 MSTORE PUSH1 0x4 ADD PUSH2 0x1F6D SWAP1 PUSH2 0x4723 JUMP JUMPDEST PUSH1 0x40 MLOAD DUP1 SWAP2 SUB SWAP1 REVERT JUMPDEST DUP3 ISZERO PUSH2 0x1F9D JUMPI PUSH1 0x1 DUP2 PUSH1 0x6 ADD PUSH1 0x0 DUP3 DUP3 SLOAD PUSH2 0x1F91 SWAP2 SWAP1 PUSH2 0x44A7 JUMP JUMPDEST SWAP3 POP POP DUP2 SWAP1 SSTORE POP PUSH2 0x1FBA JUMP JUMPDEST PUSH1 0x1 DUP2 PUSH1 0x7 ADD PUSH1 0x0 DUP3 DUP3 SLOAD PUSH2 0x1FB2 SWAP2 SWAP1 PUSH2 0x44A7 JUMP JUMPDEST SWAP3 POP POP DUP2 SWAP1 SSTORE POP JUMPDEST POP POP POP POP POP JUMP JUMPDEST PUSH1 0x60 PUSH1 0x0 PUSH1 0x1 SLOAD PUSH8 0xFFFFFFFFFFFFFFFF DUP2 GT ISZERO PUSH2 0x1FE1 JUMPI PUSH2 0x1FE0 PUSH2 0x3609 JUMP JUMPDEST JUMPDEST PUSH1 0x40 MLOAD SWAP1 DUP1 DUP3 MSTORE DUP1 PUSH1 0x20 MUL PUSH1 0x20 ADD DUP3 ADD PUSH1 0x40 MSTORE DUP1 ISZERO PUSH2 0x201A JUMPI DUP2 PUSH1 0x20 ADD JUMPDEST PUSH2 0x2007 PUSH2 0x3122 JUMP JUMPDEST DUP2 MSTORE PUSH1 0x20 ADD SWAP1 PUSH1 0x1 SWAP1 SUB SWAP1 DUP2 PUSH2 0x1FFF JUMPI SWAP1 POP JUMPDEST POP SWAP1 POP PUSH1 0x0 JUMPDEST PUSH1 0x1 SLOAD DUP2 LT ISZERO PUSH2 0x2270 JUMPI PUSH1 0x0 DUP1 PUSH1 0x0 PUSH1 0x1 DUP5 PUSH2 0x203C SWAP2 SWAP1 PUSH2 0x44A7 JUMP JUMPDEST DUP2 MSTORE PUSH1 0x20 ADD SWAP1 DUP2 MSTORE PUSH1 0x20 ADD PUSH1 0x0 KECCAK256 SWAP1 POP PUSH1 0x40 MLOAD DUP1 PUSH2 0x100 ADD PUSH1 0x40 MSTORE DUP1 DUP3 PUSH1 0x0 ADD SLOAD DUP2 MSTORE PUSH1 0x20 ADD DUP3 PUSH1 0x1 ADD DUP1 SLOAD PUSH2 0x2071 SWAP1 PUSH2 0x3F7C JUMP JUMPDEST DUP1 PUSH1 0x1F ADD PUSH1 0x20 DUP1 SWAP2 DIV MUL PUSH1 0x20 ADD PUSH1 0x40 MLOAD SWAP1 DUP2 ADD PUSH1 0x40 MSTORE DUP1 SWAP3 SWAP2 SWAP1 DUP2 DUP2 MSTORE PUSH1 0x20 ADD DUP3 DUP1 SLOAD PUSH2 0x209D SWAP1 PUSH2 0x3F7C JUMP JUMPDEST DUP1 ISZERO PUSH2 0x20EA JUMPI DUP1 PUSH1 0x1F LT PUSH2 0x20BF JUMPI PUSH2 0x100 DUP1 DUP4 SLOAD DIV MUL DUP4 MSTORE SWAP2 PUSH1 0x20 ADD SWAP2 PUSH2 0x20EA JUMP JUMPDEST DUP3 ADD SWAP2 SWAP1 PUSH1 0x0 MSTORE PUSH1 0x20 PUSH1 0x0 KECCAK256 SWAP1 JUMPDEST DUP2 SLOAD DUP2 MSTORE SWAP1 PUSH1 0x1 ADD SWAP1 PUSH1 0x20 ADD DUP1 DUP4 GT PUSH2 0x20CD JUMPI DUP3 SWAP1 SUB PUSH1 0x1F AND DUP3 ADD SWAP2 JUMPDEST POP POP POP POP POP DUP2 MSTORE PUSH1 0x20 ADD DUP3 PUSH1 0x3 ADD SLOAD DUP2 MSTORE PUSH1 0x20 ADD DUP3 PUSH1 0x6 ADD SLOAD DUP2 MSTORE PUSH1 0x20 ADD DUP3 PUSH1 0x4 ADD SLOAD DUP2 MSTORE PUSH1 0x20 ADD DUP3 PUSH1 0x7 ADD DUP1 SLOAD PUSH2 0x2121 SWAP1 PUSH2 0x3F7C JUMP JUMPDEST DUP1 PUSH1 0x1F ADD PUSH1 0x20 DUP1 SWAP2 DIV MUL PUSH1 0x20 ADD PUSH1 0x40 MLOAD SWAP1 DUP2 ADD PUSH1 0x40 MSTORE DUP1 SWAP3 SWAP2 SWAP1 DUP2 DUP2 MSTORE PUSH1 0x20 ADD DUP3 DUP1 SLOAD PUSH2 0x214D SWAP1 PUSH2 0x3F7C JUMP JUMPDEST DUP1 ISZERO PUSH2 0x219A JUMPI DUP1 PUSH1 0x1F LT PUSH2 0x216F JUMPI PUSH2 0x100 DUP1 DUP4 SLOAD DIV MUL DUP4 MSTORE SWAP2 PUSH1 0x20 ADD SWAP2 PUSH2 0x219A JUMP JUMPDEST DUP3 ADD SWAP2 SWAP1 PUSH1 0x0 MSTORE PUSH1 0x20 PUSH1 0x0 KECCAK256 SWAP1 JUMPDEST DUP2 SLOAD DUP2 MSTORE SWAP1 PUSH1 0x1 ADD SWAP1 PUSH1 0x20 ADD DUP1 DUP4 GT PUSH2 0x217D JUMPI DUP3 SWAP1 SUB PUSH1 0x1F AND DUP3 ADD SWAP2 JUMPDEST POP POP POP POP POP DUP2 MSTORE PUSH1 0x20 ADD DUP3 PUSH1 0x8 ADD DUP1 SLOAD PUSH2 0x21B3 SWAP1 PUSH2 0x3F7C JUMP JUMPDEST DUP1 PUSH1 0x1F ADD PUSH1 0x20 DUP1 SWAP2 DIV MUL PUSH1 0x20 ADD PUSH1 0x40 MLOAD SWAP1 DUP2 ADD PUSH1 0x40 MSTORE DUP1 SWAP3 SWAP2 SWAP1 DUP2 DUP2 MSTORE PUSH1 0x20 ADD DUP3 DUP1 SLOAD PUSH2 0x21DF SWAP1 PUSH2 0x3F7C JUMP JUMPDEST DUP1 ISZERO PUSH2 0x222C JUMPI DUP1 PUSH1 0x1F LT PUSH2 0x2201 JUMPI PUSH2 0x100 DUP1 DUP4 SLOAD DIV MUL DUP4 MSTORE SWAP2 PUSH1 0x20 ADD SWAP2 PUSH2 0x222C JUMP JUMPDEST DUP3 ADD SWAP2 SWAP1 PUSH1 0x0 MSTORE PUSH1 0x20 PUSH1 0x0 KECCAK256 SWAP1 JUMPDEST DUP2 SLOAD DUP2 MSTORE SWAP1 PUSH1 0x1 ADD SWAP1 PUSH1 0x20 ADD DUP1 DUP4 GT PUSH2 0x220F JUMPI DUP3 SWAP1 SUB PUSH1 0x1F AND DUP3 ADD SWAP2 JUMPDEST POP POP POP POP POP DUP2 MSTORE PUSH1 0x20 ADD DUP3 PUSH1 0x9 ADD SLOAD DUP2 MSTORE POP DUP4 DUP4 DUP2 MLOAD DUP2 LT PUSH2 0x2251 JUMPI PUSH2 0x2250 PUSH2 0x3FAE JUMP JUMPDEST JUMPDEST PUSH1 0x20 MUL PUSH1 0x20 ADD ADD DUP2 SWAP1 MSTORE POP POP DUP1 DUP1 PUSH2 0x2268 SWAP1 PUSH2 0x400C JUMP JUMPDEST SWAP2 POP POP PUSH2 0x2020 JUMP JUMPDEST POP DUP1 SWAP2 POP POP SWAP1 JUMP JUMPDEST PUSH1 0x0 DUP1 PUSH1 0x0 DUP7 DUP2 MSTORE PUSH1 0x20 ADD SWAP1 DUP2 MSTORE PUSH1 0x20 ADD PUSH1 0x0 KECCAK256 PUSH1 0x5 ADD PUSH1 0x0 DUP6 DUP2 MSTORE PUSH1 0x20 ADD SWAP1 DUP2 MSTORE PUSH1 0x20 ADD PUSH1 0x0 KECCAK256 SWAP1 POP DUP3 DUP2 PUSH1 0xB ADD SWAP1 DUP1 MLOAD SWAP1 PUSH1 0x20 ADD SWAP1 PUSH2 0x22BA SWAP3 SWAP2 SWAP1 PUSH2 0x309C JUMP JUMPDEST POP DUP2 DUP2 PUSH1 0xC ADD SWAP1 DUP1 MLOAD SWAP1 PUSH1 0x20 ADD SWAP1 PUSH2 0x22D3 SWAP3 SWAP2 SWAP1 PUSH2 0x309C JUMP JUMPDEST POP POP POP POP POP POP JUMP JUMPDEST PUSH1 0x0 DUP1 PUSH1 0x0 DUP1 DUP5 DUP2 MSTORE PUSH1 0x20 ADD SWAP1 DUP2 MSTORE PUSH1 0x20 ADD PUSH1 0x0 KECCAK256 PUSH1 0x0 ADD SLOAD EQ ISZERO SWAP1 POP SWAP2 SWAP1 POP JUMP JUMPDEST PUSH2 0x2306 DUP2 PUSH2 0x22DB JUMP JUMPDEST PUSH2 0x2345 JUMPI PUSH1 0x40 MLOAD PUSH32 0x8C379A000000000000000000000000000000000000000000000000000000000 DUP2 MSTORE PUSH1 0x4 ADD PUSH2 0x233C SWAP1 PUSH2 0x478F JUMP JUMPDEST PUSH1 0x40 MLOAD DUP1 SWAP2 SUB SWAP1 REVERT JUMPDEST PUSH1 0x0 DUP1 PUSH1 0x0 DUP4 DUP2 MSTORE PUSH1 0x20 ADD SWAP1 DUP2 MSTORE PUSH1 0x20 ADD PUSH1 0x0 KECCAK256 SWAP1 POP PUSH1 0x40 MLOAD DUP1 PUSH1 0x40 ADD PUSH1 0x40 MSTORE DUP1 PUSH1 0x8 DUP2 MSTORE PUSH1 0x20 ADD PUSH32 0x5665726966696564000000000000000000000000000000000000000000000000 DUP2 MSTORE POP DUP2 PUSH1 0x8 ADD SWAP1 DUP1 MLOAD SWAP1 PUSH1 0x20 ADD SWAP1 PUSH2 0x23A8 SWAP3 SWAP2 SWAP1 PUSH2 0x309C JUMP JUMPDEST POP POP POP JUMP JUMPDEST PUSH1 0x0 DUP1 PUSH1 0x0 DUP1 DUP5 DUP2 MSTORE PUSH1 0x20 ADD SWAP1 DUP2 MSTORE PUSH1 0x20 ADD PUSH1 0x0 KECCAK256 SWAP1 POP PUSH1 0x0 DUP2 PUSH1 0x2 ADD PUSH1 0x0 DUP7 PUSH20 0xFFFFFFFFFFFFFFFFFFFFFFFFFFFFFFFFFFFFFFFF AND PUSH20 0xFFFFFFFFFFFFFFFFFFFFFFFFFFFFFFFFFFFFFFFF AND DUP2 MSTORE PUSH1 0x20 ADD SWAP1 DUP2 MSTORE PUSH1 0x20 ADD PUSH1 0x0 KECCAK256 SWAP1 POP DUP1 PUSH1 0x1 ADD SLOAD SWAP3 POP POP POP SWAP3 SWAP2 POP POP JUMP JUMPDEST PUSH2 0x2421 DUP6 PUSH2 0x22DB JUMP JUMPDEST PUSH2 0x2460 JUMPI PUSH1 0x40 MLOAD PUSH32 0x8C379A000000000000000000000000000000000000000000000000000000000 DUP2 MSTORE PUSH1 0x4 ADD PUSH2 0x2457 SWAP1 PUSH2 0x40A1 JUMP JUMPDEST PUSH1 0x40 MLOAD DUP1 SWAP2 SUB SWAP1 REVERT JUMPDEST PUSH1 0x0 DUP1 PUSH1 0x0 DUP8 DUP2 MSTORE PUSH1 0x20 ADD SWAP1 DUP2 MSTORE PUSH1 0x20 ADD PUSH1 0x0 KECCAK256 SWAP1 POP PUSH2 0x2480 CALLER DUP8 PUSH2 0x16DF JUMP JUMPDEST PUSH2 0x24BF JUMPI PUSH1 0x40 MLOAD PUSH32 0x8C379A000000000000000000000000000000000000000000000000000000000 DUP2 MSTORE PUSH1 0x4 ADD PUSH2 0x24B6 SWAP1 PUSH2 0x4179 JUMP JUMPDEST PUSH1 0x40 MLOAD DUP1 SWAP2 SUB SWAP1 REVERT JUMPDEST PUSH1 0x0 DUP6 GT PUSH2 0x2502 JUMPI PUSH1 0x40 MLOAD PUSH32 0x8C379A000000000000000000000000000000000000000000000000000000000 DUP2 MSTORE PUSH1 0x4 ADD PUSH2 0x24F9 SWAP1 PUSH2 0x4821 JUMP JUMPDEST PUSH1 0x40 MLOAD DUP1 SWAP2 SUB SWAP1 REVERT JUMPDEST PUSH1 0x0 PUSH1 0x1 DUP3 PUSH1 0x6 ADD SLOAD PUSH2 0x2515 SWAP2 SWAP1 PUSH2 0x44A7 JUMP JUMPDEST SWAP1 POP PUSH1 0x0 DUP1 PUSH1 0x0 DUP10 DUP2 MSTORE PUSH1 0x20 ADD SWAP1 DUP2 MSTORE PUSH1 0x20 ADD PUSH1 0x0 KECCAK256 PUSH1 0x5 ADD PUSH1 0x0 DUP4 DUP2 MSTORE PUSH1 0x20 ADD SWAP1 DUP2 MSTORE PUSH1 0x20 ADD PUSH1 0x0 KECCAK256 SWAP1 POP DUP2 DUP2 PUSH1 0x0 ADD DUP2 SWAP1 SSTORE POP CALLER DUP2 PUSH1 0x1 ADD PUSH1 0x0 PUSH2 0x100 EXP DUP2 SLOAD DUP2 PUSH20 0xFFFFFFFFFFFFFFFFFFFFFFFFFFFFFFFFFFFFFFFF MUL NOT AND SWAP1 DUP4 PUSH20 0xFFFFFFFFFFFFFFFFFFFFFFFFFFFFFFFFFFFFFFFF AND MUL OR SWAP1 SSTORE POP DUP7 DUP2 PUSH1 0x2 ADD DUP2 SWAP1 SSTORE POP DUP6 DUP2 PUSH1 0x3 ADD PUSH1 0x0 PUSH2 0x100 EXP DUP2 SLOAD DUP2 PUSH20 0xFFFFFFFFFFFFFFFFFFFFFFFFFFFFFFFFFFFFFFFF MUL NOT AND SWAP1 DUP4 PUSH20 0xFFFFFFFFFFFFFFFFFFFFFFFFFFFFFFFFFFFFFFFF AND MUL OR SWAP1 SSTORE POP PUSH1 0x40 MLOAD DUP1 PUSH1 0x40 ADD PUSH1 0x40 MSTORE DUP1 PUSH1 0x7 DUP2 MSTORE PUSH1 0x20 ADD PUSH32 0x50656E64696E6700000000000000000000000000000000000000000000000000 DUP2 MSTORE POP DUP2 PUSH1 0x4 ADD SWAP1 DUP1 MLOAD SWAP1 PUSH1 0x20 ADD SWAP1 PUSH2 0x2626 SWAP3 SWAP2 SWAP1 PUSH2 0x309C JUMP JUMPDEST POP DUP5 DUP2 PUSH1 0x5 ADD SWAP1 DUP1 MLOAD SWAP1 PUSH1 0x20 ADD SWAP1 PUSH2 0x263F SWAP3 SWAP2 SWAP1 PUSH2 0x309C JUMP JUMPDEST POP PUSH1 0x0 DUP2 PUSH1 0x6 ADD DUP2 SWAP1 SSTORE POP PUSH1 0x0 DUP2 PUSH1 0x7 ADD DUP2 SWAP1 SSTORE POP TIMESTAMP DUP2 PUSH1 0x8 ADD DUP2 SWAP1 SSTORE POP PUSH2 0x12C TIMESTAMP PUSH2 0x266B SWAP2 SWAP1 PUSH2 0x44A7 JUMP JUMPDEST DUP2 PUSH1 0x9 ADD DUP2 SWAP1 SSTORE POP DUP4 DUP2 PUSH1 0xA ADD SWAP1 DUP1 MLOAD SWAP1 PUSH1 0x20 ADD SWAP1 PUSH2 0x268B SWAP3 SWAP2 SWAP1 PUSH2 0x309C JUMP JUMPDEST POP PUSH1 0x40 MLOAD DUP1 PUSH1 0x40 ADD PUSH1 0x40 MSTORE DUP1 PUSH1 0xA DUP2 MSTORE PUSH1 0x20 ADD PUSH32 0x494E2050726F6365737300000000000000000000000000000000000000000000 DUP2 MSTORE POP DUP2 PUSH1 0xB ADD SWAP1 DUP1 MLOAD SWAP1 PUSH1 0x20 ADD SWAP1 PUSH2 0x26D9 SWAP3 SWAP2 SWAP1 PUSH2 0x309C JUMP JUMPDEST POP PUSH1 0x40 MLOAD DUP1 PUSH1 0x40 ADD PUSH1 0x40 MSTORE DUP1 PUSH1 0xA DUP2 MSTORE PUSH1 0x20 ADD PUSH32 0x494E2D50726F6365737300000000000000000000000000000000000000000000 DUP2 MSTORE POP DUP2 PUSH1 0xC ADD SWAP1 DUP1 MLOAD SWAP1 PUSH1 0x20 ADD SWAP1 PUSH2 0x2727 SWAP3 SWAP2 SWAP1 PUSH2 0x309C JUMP JUMPDEST POP PUSH1 0x0 DUP2 PUSH1 0xF ADD DUP2 SWAP1 SSTORE POP PUSH1 0x40 MLOAD DUP1 PUSH1 0x40 ADD PUSH1 0x40 MSTORE DUP1 PUSH1 0xA DUP2 MSTORE PUSH1 0x20 ADD PUSH32 0x494E2D50726F6365737300000000000000000000000000000000000000000000 DUP2 MSTORE POP DUP2 PUSH1 0xE ADD SWAP1 DUP1 MLOAD SWAP1 PUSH1 0x20 ADD SWAP1 PUSH2 0x277F SWAP3 SWAP2 SWAP1 PUSH2 0x309C JUMP JUMPDEST POP PUSH1 0x40 MLOAD DUP1 PUSH1 0x40 ADD PUSH1 0x40 MSTORE DUP1 PUSH1 0xB DUP2 MSTORE PUSH1 0x20 ADD PUSH32 0x556E2D5665726966696564000000000000000000000000000000000000000000 DUP2 MSTORE POP DUP2 PUSH1 0xD ADD SWAP1 DUP1 MLOAD SWAP1 PUSH1 0x20 ADD SWAP1 PUSH2 0x27CD SWAP3 SWAP2 SWAP1 PUSH2 0x309C JUMP JUMPDEST POP DUP2 DUP4 PUSH1 0x6 ADD DUP2 SWAP1 SSTORE POP POP POP POP POP POP POP POP POP JUMP JUMPDEST PUSH1 0x0 DUP1 PUSH1 0x0 DUP5 DUP2 MSTORE PUSH1 0x20 ADD SWAP1 DUP2 MSTORE PUSH1 0x20 ADD PUSH1 0x0 KECCAK256 PUSH1 0x5 ADD PUSH1 0x0 DUP4 DUP2 MSTORE PUSH1 0x20 ADD SWAP1 DUP2 MSTORE PUSH1 0x20 ADD PUSH1 0x0 KECCAK256 SWAP1 POP PUSH1 0x40 MLOAD DUP1 PUSH1 0x40 ADD PUSH1 0x40 MSTORE DUP1 PUSH1 0x8 DUP2 MSTORE PUSH1 0x20 ADD PUSH32 0x5665726966696564000000000000000000000000000000000000000000000000 DUP2 MSTORE POP DUP2 PUSH1 0xD ADD SWAP1 DUP1 MLOAD SWAP1 PUSH1 0x20 ADD SWAP1 PUSH2 0x2858 SWAP3 SWAP2 SWAP1 PUSH2 0x309C JUMP JUMPDEST POP POP POP POP JUMP JUMPDEST PUSH1 0x0 DUP1 PUSH1 0x0 DUP1 DUP6 DUP2 MSTORE PUSH1 0x20 ADD SWAP1 DUP2 MSTORE PUSH1 0x20 ADD PUSH1 0x0 KECCAK256 PUSH1 0x5 ADD PUSH1 0x0 DUP5 DUP2 MSTORE PUSH1 0x20 ADD SWAP1 DUP2 MSTORE PUSH1 0x20 ADD PUSH1 0x0 KECCAK256 SWAP1 POP TIMESTAMP DUP2 PUSH1 0x9 ADD SLOAD GT SWAP2 POP POP SWAP3 SWAP2 POP POP JUMP JUMPDEST PUSH2 0x28A1 PUSH2 0x3122 JUMP JUMPDEST PUSH2 0x28AA DUP3 PUSH2 0x22DB JUMP JUMPDEST PUSH2 0x28E9 JUMPI PUSH1 0x40 MLOAD PUSH32 0x8C379A000000000000000000000000000000000000000000000000000000000 DUP2 MSTORE PUSH1 0x4 ADD PUSH2 0x28E0 SWAP1 PUSH2 0x40A1 JUMP JUMPDEST PUSH1 0x40 MLOAD DUP1 SWAP2 SUB SWAP1 REVERT JUMPDEST PUSH1 0x0 DUP1 PUSH1 0x0 DUP5 DUP2 MSTORE PUSH1 0x20 ADD SWAP1 DUP2 MSTORE PUSH1 0x20 ADD PUSH1 0x0 KECCAK256 SWAP1 POP PUSH1 0x0 PUSH1 0x40 MLOAD DUP1 PUSH2 0x100 ADD PUSH1 0x40 MSTORE DUP1 DUP4 PUSH1 0x0 ADD SLOAD DUP2 MSTORE PUSH1 0x20 ADD DUP4 PUSH1 0x1 ADD DUP1 SLOAD PUSH2 0x2926 SWAP1 PUSH2 0x3F7C JUMP JUMPDEST DUP1 PUSH1 0x1F ADD PUSH1 0x20 DUP1 SWAP2 DIV MUL PUSH1 0x20 ADD PUSH1 0x40 MLOAD SWAP1 DUP2 ADD PUSH1 0x40 MSTORE DUP1 SWAP3 SWAP2 SWAP1 DUP2 DUP2 MSTORE PUSH1 0x20 ADD DUP3 DUP1 SLOAD PUSH2 0x2952 SWAP1 PUSH2 0x3F7C JUMP JUMPDEST DUP1 ISZERO PUSH2 0x299F JUMPI DUP1 PUSH1 0x1F LT PUSH2 0x2974 JUMPI PUSH2 0x100 DUP1 DUP4 SLOAD DIV MUL DUP4 MSTORE SWAP2 PUSH1 0x20 ADD SWAP2 PUSH2 0x299F JUMP JUMPDEST DUP3 ADD SWAP2 SWAP1 PUSH1 0x0 MSTORE PUSH1 0x20 PUSH1 0x0 KECCAK256 SWAP1 JUMPDEST DUP2 SLOAD DUP2 MSTORE SWAP1 PUSH1 0x1 ADD SWAP1 PUSH1 0x20 ADD DUP1 DUP4 GT PUSH2 0x2982 JUMPI DUP3 SWAP1 SUB PUSH1 0x1F AND DUP3 ADD SWAP2 JUMPDEST POP POP POP POP POP DUP2 MSTORE PUSH1 0x20 ADD DUP4 PUSH1 0x3 ADD SLOAD DUP2 MSTORE PUSH1 0x20 ADD DUP4 PUSH1 0x6 ADD SLOAD DUP2 MSTORE PUSH1 0x20 ADD DUP4 PUSH1 0x4 ADD SLOAD DUP2 MSTORE PUSH1 0x20 ADD DUP4 PUSH1 0x7 ADD DUP1 SLOAD PUSH2 0x29D6 SWAP1 PUSH2 0x3F7C JUMP JUMPDEST DUP1 PUSH1 0x1F ADD PUSH1 0x20 DUP1 SWAP2 DIV MUL PUSH1 0x20 ADD PUSH1 0x40 MLOAD SWAP1 DUP2 ADD PUSH1 0x40 MSTORE DUP1 SWAP3 SWAP2 SWAP1 DUP2 DUP2 MSTORE PUSH1 0x20 ADD DUP3 DUP1 SLOAD PUSH2 0x2A02 SWAP1 PUSH2 0x3F7C JUMP JUMPDEST DUP1 ISZERO PUSH2 0x2A4F JUMPI DUP1 PUSH1 0x1F LT PUSH2 0x2A24 JUMPI PUSH2 0x100 DUP1 DUP4 SLOAD DIV MUL DUP4 MSTORE SWAP2 PUSH1 0x20 ADD SWAP2 PUSH2 0x2A4F JUMP JUMPDEST DUP3 ADD SWAP2 SWAP1 PUSH1 0x0 MSTORE PUSH1 0x20 PUSH1 0x0 KECCAK256 SWAP1 JUMPDEST DUP2 SLOAD DUP2 MSTORE SWAP1 PUSH1 0x1 ADD SWAP1 PUSH1 0x20 ADD DUP1 DUP4 GT PUSH2 0x2A32 JUMPI DUP3 SWAP1 SUB PUSH1 0x1F AND DUP3 ADD SWAP2 JUMPDEST POP POP POP POP POP DUP2 MSTORE PUSH1 0x20 ADD DUP4 PUSH1 0x8 ADD DUP1 SLOAD PUSH2 0x2A68 SWAP1 PUSH2 0x3F7C JUMP JUMPDEST DUP1 PUSH1 0x1F ADD PUSH1 0x20 DUP1 SWAP2 DIV MUL PUSH1 0x20 ADD PUSH1 0x40 MLOAD SWAP1 DUP2 ADD PUSH1 0x40 MSTORE DUP1 SWAP3 SWAP2 SWAP1 DUP2 DUP2 MSTORE PUSH1 0x20 ADD DUP3 DUP1 SLOAD PUSH2 0x2A94 SWAP1 PUSH2 0x3F7C JUMP JUMPDEST DUP1 ISZERO PUSH2 0x2AE1 JUMPI DUP1 PUSH1 0x1F LT PUSH2 0x2AB6 JUMPI PUSH2 0x100 DUP1 DUP4 SLOAD DIV MUL DUP4 MSTORE SWAP2 PUSH1 0x20 ADD SWAP2 PUSH2 0x2AE1 JUMP JUMPDEST DUP3 ADD SWAP2 SWAP1 PUSH1 0x0 MSTORE PUSH1 0x20 PUSH1 0x0 KECCAK256 SWAP1 JUMPDEST DUP2 SLOAD DUP2 MSTORE SWAP1 PUSH1 0x1 ADD SWAP1 PUSH1 0x20 ADD DUP1 DUP4 GT PUSH2 0x2AC4 JUMPI DUP3 SWAP1 SUB PUSH1 0x1F AND DUP3 ADD SWAP2 JUMPDEST POP POP POP POP POP DUP2 MSTORE PUSH1 0x20 ADD DUP4 PUSH1 0x9 ADD SLOAD DUP2 MSTORE POP SWAP1 POP DUP1 SWAP3 POP POP POP SWAP2 SWAP1 POP JUMP JUMPDEST PUSH1 0x0 PUSH1 0x63 PUSH1 0x0 DUP1 DUP5 DUP2 MSTORE PUSH1 0x20 ADD SWAP1 DUP2 MSTORE PUSH1 0x20 ADD PUSH1 0x0 KECCAK256 PUSH1 0x3 ADD SLOAD LT SWAP1 POP SWAP2 SWAP1 POP JUMP JUMPDEST PUSH2 0x2B2A DUP2 PUSH2 0x22DB JUMP JUMPDEST PUSH2 0x2B69 JUMPI PUSH1 0x40 MLOAD PUSH32 0x8C379A000000000000000000000000000000000000000000000000000000000 DUP2 MSTORE PUSH1 0x4 ADD PUSH2 0x2B60 SWAP1 PUSH2 0x478F JUMP JUMPDEST PUSH1 0x40 MLOAD DUP1 SWAP2 SUB SWAP1 REVERT JUMPDEST PUSH1 0x0 DUP1 PUSH1 0x0 DUP4 DUP2 MSTORE PUSH1 0x20 ADD SWAP1 DUP2 MSTORE PUSH1 0x20 ADD PUSH1 0x0 KECCAK256 SWAP1 POP PUSH2 0x2B88 DUP3 PUSH2 0x2AFF JUMP JUMPDEST PUSH2 0x2BC7 JUMPI PUSH1 0x40 MLOAD PUSH32 0x8C379A000000000000000000000000000000000000000000000000000000000 DUP2 MSTORE PUSH1 0x4 ADD PUSH2 0x2BBE SWAP1 PUSH2 0x48B3 JUMP JUMPDEST PUSH1 0x40 MLOAD DUP1 SWAP2 SUB SWAP1 REVERT JUMPDEST PUSH2 0x2BD1 CALLER DUP4 PUSH2 0x16DF JUMP JUMPDEST ISZERO PUSH2 0x2C11 JUMPI PUSH1 0x40 MLOAD PUSH32 0x8C379A000000000000000000000000000000000000000000000000000000000 DUP2 MSTORE PUSH1 0x4 ADD PUSH2 0x2C08 SWAP1 PUSH2 0x4945 JUMP JUMPDEST PUSH1 0x40 MLOAD DUP1 SWAP2 SUB SWAP1 REVERT JUMPDEST PUSH1 0x0 PUSH1 0x40 MLOAD DUP1 PUSH1 0x40 ADD PUSH1 0x40 MSTORE DUP1 CALLER PUSH20 0xFFFFFFFFFFFFFFFFFFFFFFFFFFFFFFFFFFFFFFFF AND DUP2 MSTORE PUSH1 0x20 ADD PUSH1 0x0 DUP2 MSTORE POP SWAP1 POP DUP1 DUP3 PUSH1 0x2 ADD PUSH1 0x0 CALLER PUSH20 0xFFFFFFFFFFFFFFFFFFFFFFFFFFFFFFFFFFFFFFFF AND PUSH20 0xFFFFFFFFFFFFFFFFFFFFFFFFFFFFFFFFFFFFFFFF AND DUP2 MSTORE PUSH1 0x20 ADD SWAP1 DUP2 MSTORE PUSH1 0x20 ADD PUSH1 0x0 KECCAK256 PUSH1 0x0 DUP3 ADD MLOAD DUP2 PUSH1 0x0 ADD PUSH1 0x0 PUSH2 0x100 EXP DUP2 SLOAD DUP2 PUSH20 0xFFFFFFFFFFFFFFFFFFFFFFFFFFFFFFFFFFFFFFFF MUL NOT AND SWAP1 DUP4 PUSH20 0xFFFFFFFFFFFFFFFFFFFFFFFFFFFFFFFFFFFFFFFF AND MUL OR SWAP1 SSTORE POP PUSH1 0x20 DUP3 ADD MLOAD DUP2 PUSH1 0x1 ADD SSTORE SWAP1 POP POP PUSH1 0x1 DUP3 PUSH1 0x3 ADD PUSH1 0x0 DUP3 DUP3 SLOAD PUSH2 0x2CEC SWAP2 SWAP1 PUSH2 0x44A7 JUMP JUMPDEST SWAP3 POP POP DUP2 SWAP1 SSTORE POP POP POP POP JUMP JUMPDEST PUSH2 0x2D01 DUP3 PUSH2 0x22DB JUMP JUMPDEST PUSH2 0x2D40 JUMPI PUSH1 0x40 MLOAD PUSH32 0x8C379A000000000000000000000000000000000000000000000000000000000 DUP2 MSTORE PUSH1 0x4 ADD PUSH2 0x2D37 SWAP1 PUSH2 0x40A1 JUMP JUMPDEST PUSH1 0x40 MLOAD DUP1 SWAP2 SUB SWAP1 REVERT JUMPDEST PUSH2 0x2D4A DUP2 DUP4 PUSH2 0x2F2F JUMP JUMPDEST PUSH2 0x2D89 JUMPI PUSH1 0x40 MLOAD PUSH32 0x8C379A000000000000000000000000000000000000000000000000000000000 DUP2 MSTORE PUSH1 0x4 ADD PUSH2 0x2D80 SWAP1 PUSH2 0x410D JUMP JUMPDEST PUSH1 0x40 MLOAD DUP1 SWAP2 SUB SWAP1 REVERT JUMPDEST PUSH2 0x2D93 DUP3 DUP3 PUSH2 0x285E JUMP JUMPDEST ISZERO PUSH2 0x2DD3 JUMPI PUSH1 0x40 MLOAD PUSH32 0x8C379A000000000000000000000000000000000000000000000000000000000 DUP2 MSTORE PUSH1 0x4 ADD PUSH2 0x2DCA SWAP1 PUSH2 0x43C1 JUMP JUMPDEST PUSH1 0x40 MLOAD DUP1 SWAP2 SUB SWAP1 REVERT JUMPDEST PUSH1 0x0 DUP1 PUSH1 0x0 DUP5 DUP2 MSTORE PUSH1 0x20 ADD SWAP1 DUP2 MSTORE PUSH1 0x20 ADD PUSH1 0x0 KECCAK256 PUSH1 0x5 ADD PUSH1 0x0 DUP4 DUP2 MSTORE PUSH1 0x20 ADD SWAP1 DUP2 MSTORE PUSH1 0x20 ADD PUSH1 0x0 KECCAK256 SWAP1 POP PUSH1 0x40 MLOAD DUP1 PUSH1 0x40 ADD PUSH1 0x40 MSTORE DUP1 PUSH1 0x7 DUP2 MSTORE PUSH1 0x20 ADD PUSH32 0x50656E64696E6700000000000000000000000000000000000000000000000000 DUP2 MSTORE POP DUP1 MLOAD SWAP1 PUSH1 0x20 ADD KECCAK256 DUP2 PUSH1 0x4 ADD PUSH1 0x40 MLOAD PUSH2 0x2E4B SWAP2 SWAP1 PUSH2 0x469A JUMP JUMPDEST PUSH1 0x40 MLOAD DUP1 SWAP2 SUB SWAP1 KECCAK256 EQ PUSH2 0x2E93 JUMPI PUSH1 0x40 MLOAD PUSH32 0x8C379A000000000000000000000000000000000000000000000000000000000 DUP2 MSTORE PUSH1 0x4 ADD PUSH2 0x2E8A SWAP1 PUSH2 0x49D7 JUMP JUMPDEST PUSH1 0x40 MLOAD DUP1 SWAP2 SUB SWAP1 REVERT JUMPDEST PUSH2 0x2E9D DUP4 DUP4 PUSH2 0x2F66 JUMP JUMPDEST PUSH2 0x2EDC JUMPI PUSH1 0x40 MLOAD PUSH32 0x8C379A000000000000000000000000000000000000000000000000000000000 DUP2 MSTORE PUSH1 0x4 ADD PUSH2 0x2ED3 SWAP1 PUSH2 0x4A69 JUMP JUMPDEST PUSH1 0x40 MLOAD DUP1 SWAP2 SUB SWAP1 REVERT JUMPDEST PUSH1 0x40 MLOAD DUP1 PUSH1 0x40 ADD PUSH1 0x40 MSTORE DUP1 PUSH1 0x6 DUP2 MSTORE PUSH1 0x20 ADD PUSH32 0x436C6F7365640000000000000000000000000000000000000000000000000000 DUP2 MSTORE POP DUP2 PUSH1 0x4 ADD SWAP1 DUP1 MLOAD SWAP1 PUSH1 0x20 ADD SWAP1 PUSH2 0x2F29 SWAP3 SWAP2 SWAP1 PUSH2 0x309C JUMP JUMPDEST POP POP POP POP JUMP JUMPDEST PUSH1 0x0 DUP1 PUSH1 0x0 DUP1 DUP5 DUP2 MSTORE PUSH1 0x20 ADD SWAP1 DUP2 MSTORE PUSH1 0x20 ADD PUSH1 0x0 KECCAK256 PUSH1 0x5 ADD PUSH1 0x0 DUP6 DUP2 MSTORE PUSH1 0x20 ADD SWAP1 DUP2 MSTORE PUSH1 0x20 ADD PUSH1 0x0 KECCAK256 PUSH1 0x0 ADD SLOAD EQ ISZERO SWAP1 POP SWAP3 SWAP2 POP POP JUMP JUMPDEST PUSH1 0x0 DUP1 PUSH1 0x0 DUP1 DUP6 DUP2 MSTORE PUSH1 0x20 ADD SWAP1 DUP2 MSTORE PUSH1 0x20 ADD PUSH1 0x0 KECCAK256 SWAP1 POP PUSH1 0x0 DUP2 PUSH1 0x5 ADD PUSH1 0x0 DUP6 DUP2 MSTORE PUSH1 0x20 ADD SWAP1 DUP2 MSTORE PUSH1 0x20 ADD PUSH1 0x0 KECCAK256 SWAP1 POP DUP1 PUSH1 0x1 ADD PUSH1 0x0 SWAP1 SLOAD SWAP1 PUSH2 0x100 EXP SWAP1 DIV PUSH20 0xFFFFFFFFFFFFFFFFFFFFFFFFFFFFFFFFFFFFFFFF AND PUSH20 0xFFFFFFFFFFFFFFFFFFFFFFFFFFFFFFFFFFFFFFFF AND CALLER PUSH20 0xFFFFFFFFFFFFFFFFFFFFFFFFFFFFFFFFFFFFFFFF AND EQ SWAP3 POP POP POP SWAP3 SWAP2 POP POP JUMP JUMPDEST PUSH1 0x40 MLOAD DUP1 PUSH2 0x200 ADD PUSH1 0x40 MSTORE DUP1 PUSH1 0x0 DUP2 MSTORE PUSH1 0x20 ADD PUSH1 0x0 PUSH20 0xFFFFFFFFFFFFFFFFFFFFFFFFFFFFFFFFFFFFFFFF AND DUP2 MSTORE PUSH1 0x20 ADD PUSH1 0x0 DUP2 MSTORE PUSH1 0x20 ADD PUSH1 0x0 PUSH20 0xFFFFFFFFFFFFFFFFFFFFFFFFFFFFFFFFFFFFFFFF AND DUP2 MSTORE PUSH1 0x20 ADD PUSH1 0x60 DUP2 MSTORE PUSH1 0x20 ADD PUSH1 0x60 DUP2 MSTORE PUSH1 0x20 ADD PUSH1 0x0 DUP2 MSTORE PUSH1 0x20 ADD PUSH1 0x0 DUP2 MSTORE PUSH1 0x20 ADD PUSH1 0x0 DUP2 MSTORE PUSH1 0x20 ADD PUSH1 0x0 DUP2 MSTORE PUSH1 0x20 ADD PUSH1 0x60 DUP2 MSTORE PUSH1 0x20 ADD PUSH1 0x60 DUP2 MSTORE PUSH1 0x20 ADD PUSH1 0x60 DUP2 MSTORE PUSH1 0x20 ADD PUSH1 0x60 DUP2 MSTORE PUSH1 0x20 ADD PUSH1 0x60 DUP2 MSTORE PUSH1 0x20 ADD PUSH1 0x0 DUP2 MSTORE POP SWAP1 JUMP JUMPDEST DUP3 DUP1 SLOAD PUSH2 0x30A8 SWAP1 PUSH2 0x3F7C JUMP JUMPDEST SWAP1 PUSH1 0x0 MSTORE PUSH1 0x20 PUSH1 0x0 KECCAK256 SWAP1 PUSH1 0x1F ADD PUSH1 0x20 SWAP1 DIV DUP2 ADD SWAP3 DUP3 PUSH2 0x30CA JUMPI PUSH1 0x0 DUP6 SSTORE PUSH2 0x3111 JUMP JUMPDEST DUP3 PUSH1 0x1F LT PUSH2 0x30E3 JUMPI DUP1 MLOAD PUSH1 0xFF NOT AND DUP4 DUP1 ADD OR DUP6 SSTORE PUSH2 0x3111 JUMP JUMPDEST DUP3 DUP1 ADD PUSH1 0x1 ADD DUP6 SSTORE DUP3 ISZERO PUSH2 0x3111 JUMPI SWAP2 DUP3 ADD JUMPDEST DUP3 DUP2 GT ISZERO PUSH2 0x3110 JUMPI DUP3 MLOAD DUP3 SSTORE SWAP2 PUSH1 0x20 ADD SWAP2 SWAP1 PUSH1 0x1 ADD SWAP1 PUSH2 0x30F5 JUMP JUMPDEST JUMPDEST POP SWAP1 POP PUSH2 0x311E SWAP2 SWAP1 PUSH2 0x3167 JUMP JUMPDEST POP SWAP1 JUMP JUMPDEST PUSH1 0x40 MLOAD DUP1 PUSH2 0x100 ADD PUSH1 0x40 MSTORE DUP1 PUSH1 0x0 DUP2 MSTORE PUSH1 0x20 ADD PUSH1 0x60 DUP2 MSTORE PUSH1 0x20 ADD PUSH1 0x0 DUP2 MSTORE PUSH1 0x20 ADD PUSH1 0x0 DUP2 MSTORE PUSH1 0x20 ADD PUSH1 0x0 DUP2 MSTORE PUSH1 0x20 ADD PUSH1 0x60 DUP2 MSTORE PUSH1 0x20 ADD PUSH1 0x60 DUP2 MSTORE PUSH1 0x20 ADD PUSH1 0x0 DUP2 MSTORE POP SWAP1 JUMP JUMPDEST JUMPDEST DUP1 DUP3 GT ISZERO PUSH2 0x3180 JUMPI PUSH1 0x0 DUP2 PUSH1 0x0 SWAP1 SSTORE POP PUSH1 0x1 ADD PUSH2 0x3168 JUMP JUMPDEST POP SWAP1 JUMP JUMPDEST PUSH1 0x0 PUSH1 0x40 MLOAD SWAP1 POP SWAP1 JUMP JUMPDEST PUSH1 0x0 DUP1 REVERT JUMPDEST PUSH1 0x0 DUP1 REVERT JUMPDEST PUSH1 0x0 DUP2 SWAP1 POP SWAP2 SWAP1 POP JUMP JUMPDEST PUSH2 0x31AB DUP2 PUSH2 0x3198 JUMP JUMPDEST DUP2 EQ PUSH2 0x31B6 JUMPI PUSH1 0x0 DUP1 REVERT JUMPDEST POP JUMP JUMPDEST PUSH1 0x0 DUP2 CALLDATALOAD SWAP1 POP PUSH2 0x31C8 DUP2 PUSH2 0x31A2 JUMP JUMPDEST SWAP3 SWAP2 POP POP JUMP JUMPDEST PUSH1 0x0 PUSH1 0x20 DUP3 DUP5 SUB SLT ISZERO PUSH2 0x31E4 JUMPI PUSH2 0x31E3 PUSH2 0x318E JUMP JUMPDEST JUMPDEST PUSH1 0x0 PUSH2 0x31F2 DUP5 DUP3 DUP6 ADD PUSH2 0x31B9 JUMP JUMPDEST SWAP2 POP POP SWAP3 SWAP2 POP POP JUMP JUMPDEST PUSH1 0x0 DUP2 MLOAD SWAP1 POP SWAP2 SWAP1 POP JUMP JUMPDEST PUSH1 0x0 DUP3 DUP3 MSTORE PUSH1 0x20 DUP3 ADD SWAP1 POP SWAP3 SWAP2 POP POP JUMP JUMPDEST PUSH1 0x0 DUP2 SWAP1 POP PUSH1 0x20 DUP3 ADD SWAP1 POP SWAP2 SWAP1 POP JUMP JUMPDEST PUSH2 0x3230 DUP2 PUSH2 0x3198 JUMP JUMPDEST DUP3 MSTORE POP POP JUMP JUMPDEST PUSH1 0x0 PUSH20 0xFFFFFFFFFFFFFFFFFFFFFFFFFFFFFFFFFFFFFFFF DUP3 AND SWAP1 POP SWAP2 SWAP1 POP JUMP JUMPDEST PUSH1 0x0 PUSH2 0x3261 DUP3 PUSH2 0x3236 JUMP JUMPDEST SWAP1 POP SWAP2 SWAP1 POP JUMP JUMPDEST PUSH2 0x3271 DUP2 PUSH2 0x3256 JUMP JUMPDEST DUP3 MSTORE POP POP JUMP JUMPDEST PUSH1 0x0 DUP2 MLOAD SWAP1 POP SWAP2 SWAP1 POP JUMP JUMPDEST PUSH1 0x0 DUP3 DUP3 MSTORE PUSH1 0x20 DUP3 ADD SWAP1 POP SWAP3 SWAP2 POP POP JUMP JUMPDEST PUSH1 0x0 JUMPDEST DUP4 DUP2 LT ISZERO PUSH2 0x32B1 JUMPI DUP1 DUP3 ADD MLOAD DUP2 DUP5 ADD MSTORE PUSH1 0x20 DUP2 ADD SWAP1 POP PUSH2 0x3296 JUMP JUMPDEST DUP4 DUP2 GT ISZERO PUSH2 0x32C0 JUMPI PUSH1 0x0 DUP5 DUP5 ADD MSTORE JUMPDEST POP POP POP POP JUMP JUMPDEST PUSH1 0x0 PUSH1 0x1F NOT PUSH1 0x1F DUP4 ADD AND SWAP1 POP SWAP2 SWAP1 POP JUMP JUMPDEST PUSH1 0x0 PUSH2 0x32E2 DUP3 PUSH2 0x3277 JUMP JUMPDEST PUSH2 0x32EC DUP2 DUP6 PUSH2 0x3282 JUMP JUMPDEST SWAP4 POP PUSH2 0x32FC DUP2 DUP6 PUSH1 0x20 DUP7 ADD PUSH2 0x3293 JUMP JUMPDEST PUSH2 0x3305 DUP2 PUSH2 0x32C6 JUMP JUMPDEST DUP5 ADD SWAP2 POP POP SWAP3 SWAP2 POP POP JUMP JUMPDEST PUSH1 0x0 PUSH2 0x200 DUP4 ADD PUSH1 0x0 DUP4 ADD MLOAD PUSH2 0x3329 PUSH1 0x0 DUP7 ADD DUP3 PUSH2 0x3227 JUMP JUMPDEST POP PUSH1 0x20 DUP4 ADD MLOAD PUSH2 0x333C PUSH1 0x20 DUP7 ADD DUP3 PUSH2 0x3268 JUMP JUMPDEST POP PUSH1 0x40 DUP4 ADD MLOAD PUSH2 0x334F PUSH1 0x40 DUP7 ADD DUP3 PUSH2 0x3227 JUMP JUMPDEST POP PUSH1 0x60 DUP4 ADD MLOAD PUSH2 0x3362 PUSH1 0x60 DUP7 ADD DUP3 PUSH2 0x3268 JUMP JUMPDEST POP PUSH1 0x80 DUP4 ADD MLOAD DUP5 DUP3 SUB PUSH1 0x80 DUP7 ADD MSTORE PUSH2 0x337A DUP3 DUP3 PUSH2 0x32D7 JUMP JUMPDEST SWAP2 POP POP PUSH1 0xA0 DUP4 ADD MLOAD DUP5 DUP3 SUB PUSH1 0xA0 DUP7 ADD MSTORE PUSH2 0x3394 DUP3 DUP3 PUSH2 0x32D7 JUMP JUMPDEST SWAP2 POP POP PUSH1 0xC0 DUP4 ADD MLOAD PUSH2 0x33A9 PUSH1 0xC0 DUP7 ADD DUP3 PUSH2 0x3227 JUMP JUMPDEST POP PUSH1 0xE0 DUP4 ADD MLOAD PUSH2 0x33BC PUSH1 0xE0 DUP7 ADD DUP3 PUSH2 0x3227 JUMP JUMPDEST POP PUSH2 0x100 DUP4 ADD MLOAD PUSH2 0x33D1 PUSH2 0x100 DUP7 ADD DUP3 PUSH2 0x3227 JUMP JUMPDEST POP PUSH2 0x120 DUP4 ADD MLOAD PUSH2 0x33E6 PUSH2 0x120 DUP7 ADD DUP3 PUSH2 0x3227 JUMP JUMPDEST POP PUSH2 0x140 DUP4 ADD MLOAD DUP5 DUP3 SUB PUSH2 0x140 DUP7 ADD MSTORE PUSH2 0x3400 DUP3 DUP3 PUSH2 0x32D7 JUMP JUMPDEST SWAP2 POP POP PUSH2 0x160 DUP4 ADD MLOAD DUP5 DUP3 SUB PUSH2 0x160 DUP7 ADD MSTORE PUSH2 0x341C DUP3 DUP3 PUSH2 0x32D7 JUMP JUMPDEST SWAP2 POP POP PUSH2 0x180 DUP4 ADD MLOAD DUP5 DUP3 SUB PUSH2 0x180 DUP7 ADD MSTORE PUSH2 0x3438 DUP3 DUP3 PUSH2 0x32D7 JUMP JUMPDEST SWAP2 POP POP PUSH2 0x1A0 DUP4 ADD MLOAD DUP5 DUP3 SUB PUSH2 0x1A0 DUP7 ADD MSTORE PUSH2 0x3454 DUP3 DUP3 PUSH2 0x32D7 JUMP JUMPDEST SWAP2 POP POP PUSH2 0x1C0 DUP4 ADD MLOAD DUP5 DUP3 SUB PUSH2 0x1C0 DUP7 ADD MSTORE PUSH2 0x3470 DUP3 DUP3 PUSH2 0x32D7 JUMP JUMPDEST SWAP2 POP POP PUSH2 0x1E0 DUP4 ADD MLOAD PUSH2 0x3487 PUSH2 0x1E0 DUP7 ADD DUP3 PUSH2 0x3227 JUMP JUMPDEST POP DUP1 SWAP2 POP POP SWAP3 SWAP2 POP POP JUMP JUMPDEST PUSH1 0x0 PUSH2 0x349E DUP4 DUP4 PUSH2 0x3310 JUMP JUMPDEST SWAP1 POP SWAP3 SWAP2 POP POP JUMP JUMPDEST PUSH1 0x0 PUSH1 0x20 DUP3 ADD SWAP1 POP SWAP2 SWAP1 POP JUMP JUMPDEST PUSH1 0x0 PUSH2 0x34BE DUP3 PUSH2 0x31FB JUMP JUMPDEST PUSH2 0x34C8 DUP2 DUP6 PUSH2 0x3206 JUMP JUMPDEST SWAP4 POP DUP4 PUSH1 0x20 DUP3 MUL DUP6 ADD PUSH2 0x34DA DUP6 PUSH2 0x3217 JUMP JUMPDEST DUP1 PUSH1 0x0 JUMPDEST DUP6 DUP2 LT ISZERO PUSH2 0x3516 JUMPI DUP5 DUP5 SUB DUP10 MSTORE DUP2 MLOAD PUSH2 0x34F7 DUP6 DUP3 PUSH2 0x3492 JUMP JUMPDEST SWAP5 POP PUSH2 0x3502 DUP4 PUSH2 0x34A6 JUMP JUMPDEST SWAP3 POP PUSH1 0x20 DUP11 ADD SWAP10 POP POP PUSH1 0x1 DUP2 ADD SWAP1 POP PUSH2 0x34DE JUMP JUMPDEST POP DUP3 SWAP8 POP DUP8 SWAP6 POP POP POP POP POP POP SWAP3 SWAP2 POP POP JUMP JUMPDEST PUSH1 0x0 PUSH1 0x20 DUP3 ADD SWAP1 POP DUP2 DUP2 SUB PUSH1 0x0 DUP4 ADD MSTORE PUSH2 0x3542 DUP2 DUP5 PUSH2 0x34B3 JUMP JUMPDEST SWAP1 POP SWAP3 SWAP2 POP POP JUMP JUMPDEST PUSH2 0x3553 DUP2 PUSH2 0x3256 JUMP JUMPDEST DUP2 EQ PUSH2 0x355E JUMPI PUSH1 0x0 DUP1 REVERT JUMPDEST POP JUMP JUMPDEST PUSH1 0x0 DUP2 CALLDATALOAD SWAP1 POP PUSH2 0x3570 DUP2 PUSH2 0x354A JUMP JUMPDEST SWAP3 SWAP2 POP POP JUMP JUMPDEST PUSH1 0x0 DUP1 PUSH1 0x0 PUSH1 0x60 DUP5 DUP7 SUB SLT ISZERO PUSH2 0x358F JUMPI PUSH2 0x358E PUSH2 0x318E JUMP JUMPDEST JUMPDEST PUSH1 0x0 PUSH2 0x359D DUP7 DUP3 DUP8 ADD PUSH2 0x3561 JUMP JUMPDEST SWAP4 POP POP PUSH1 0x20 PUSH2 0x35AE DUP7 DUP3 DUP8 ADD PUSH2 0x31B9 JUMP JUMPDEST SWAP3 POP POP PUSH1 0x40 PUSH2 0x35BF DUP7 DUP3 DUP8 ADD PUSH2 0x31B9 JUMP JUMPDEST SWAP2 POP POP SWAP3 POP SWAP3 POP SWAP3 JUMP JUMPDEST PUSH1 0x0 DUP2 ISZERO ISZERO SWAP1 POP SWAP2 SWAP1 POP JUMP JUMPDEST PUSH2 0x35DE DUP2 PUSH2 0x35C9 JUMP JUMPDEST DUP3 MSTORE POP POP JUMP JUMPDEST PUSH1 0x0 PUSH1 0x20 DUP3 ADD SWAP1 POP PUSH2 0x35F9 PUSH1 0x0 DUP4 ADD DUP5 PUSH2 0x35D5 JUMP JUMPDEST SWAP3 SWAP2 POP POP JUMP JUMPDEST PUSH1 0x0 DUP1 REVERT JUMPDEST PUSH1 0x0 DUP1 REVERT JUMPDEST PUSH32 0x4E487B7100000000000000000000000000000000000000000000000000000000 PUSH1 0x0 MSTORE PUSH1 0x41 PUSH1 0x4 MSTORE PUSH1 0x24 PUSH1 0x0 REVERT JUMPDEST PUSH2 0x3641 DUP3 PUSH2 0x32C6 JUMP JUMPDEST DUP2 ADD DUP2 DUP2 LT PUSH8 0xFFFFFFFFFFFFFFFF DUP3 GT OR ISZERO PUSH2 0x3660 JUMPI PUSH2 0x365F PUSH2 0x3609 JUMP JUMPDEST JUMPDEST DUP1 PUSH1 0x40 MSTORE POP POP POP JUMP JUMPDEST PUSH1 0x0 PUSH2 0x3673 PUSH2 0x3184 JUMP JUMPDEST SWAP1 POP PUSH2 0x367F DUP3 DUP3 PUSH2 0x3638 JUMP JUMPDEST SWAP2 SWAP1 POP JUMP JUMPDEST PUSH1 0x0 PUSH8 0xFFFFFFFFFFFFFFFF DUP3 GT ISZERO PUSH2 0x369F JUMPI PUSH2 0x369E PUSH2 0x3609 JUMP JUMPDEST JUMPDEST PUSH2 0x36A8 DUP3 PUSH2 0x32C6 JUMP JUMPDEST SWAP1 POP PUSH1 0x20 DUP2 ADD SWAP1 POP SWAP2 SWAP1 POP JUMP JUMPDEST DUP3 DUP2 DUP4 CALLDATACOPY PUSH1 0x0 DUP4 DUP4 ADD MSTORE POP POP POP JUMP JUMPDEST PUSH1 0x0 PUSH2 0x36D7 PUSH2 0x36D2 DUP5 PUSH2 0x3684 JUMP JUMPDEST PUSH2 0x3669 JUMP JUMPDEST SWAP1 POP DUP3 DUP2 MSTORE PUSH1 0x20 DUP2 ADD DUP5 DUP5 DUP5 ADD GT ISZERO PUSH2 0x36F3 JUMPI PUSH2 0x36F2 PUSH2 0x3604 JUMP JUMPDEST JUMPDEST PUSH2 0x36FE DUP5 DUP3 DUP6 PUSH2 0x36B5 JUMP JUMPDEST POP SWAP4 SWAP3 POP POP POP JUMP JUMPDEST PUSH1 0x0 DUP3 PUSH1 0x1F DUP4 ADD SLT PUSH2 0x371B JUMPI PUSH2 0x371A PUSH2 0x35FF JUMP JUMPDEST JUMPDEST DUP2 CALLDATALOAD PUSH2 0x372B DUP5 DUP3 PUSH1 0x20 DUP7 ADD PUSH2 0x36C4 JUMP JUMPDEST SWAP2 POP POP SWAP3 SWAP2 POP POP JUMP JUMPDEST PUSH1 0x0 DUP1 PUSH1 0x0 DUP1 PUSH1 0x80 DUP6 DUP8 SUB SLT ISZERO PUSH2 0x374E JUMPI PUSH2 0x374D PUSH2 0x318E JUMP JUMPDEST JUMPDEST PUSH1 0x0 PUSH2 0x375C DUP8 DUP3 DUP9 ADD PUSH2 0x31B9 JUMP JUMPDEST SWAP5 POP POP PUSH1 0x20 PUSH2 0x376D DUP8 DUP3 DUP9 ADD PUSH2 0x31B9 JUMP JUMPDEST SWAP4 POP POP PUSH1 0x40 PUSH2 0x377E DUP8 DUP3 DUP9 ADD PUSH2 0x31B9 JUMP JUMPDEST SWAP3 POP POP PUSH1 0x60 DUP6 ADD CALLDATALOAD PUSH8 0xFFFFFFFFFFFFFFFF DUP2 GT ISZERO PUSH2 0x379F JUMPI PUSH2 0x379E PUSH2 0x3193 JUMP JUMPDEST JUMPDEST PUSH2 0x37AB DUP8 DUP3 DUP9 ADD PUSH2 0x3706 JUMP JUMPDEST SWAP2 POP POP SWAP3 SWAP6 SWAP2 SWAP5 POP SWAP3 POP JUMP JUMPDEST PUSH1 0x0 DUP1 PUSH1 0x40 DUP4 DUP6 SUB SLT ISZERO PUSH2 0x37CE JUMPI PUSH2 0x37CD PUSH2 0x318E JUMP JUMPDEST JUMPDEST PUSH1 0x0 PUSH2 0x37DC DUP6 DUP3 DUP7 ADD PUSH2 0x31B9 JUMP JUMPDEST SWAP3 POP POP PUSH1 0x20 PUSH2 0x37ED DUP6 DUP3 DUP7 ADD PUSH2 0x31B9 JUMP JUMPDEST SWAP2 POP POP SWAP3 POP SWAP3 SWAP1 POP JUMP JUMPDEST PUSH1 0x0 PUSH2 0x200 DUP4 ADD PUSH1 0x0 DUP4 ADD MLOAD PUSH2 0x3810 PUSH1 0x0 DUP7 ADD DUP3 PUSH2 0x3227 JUMP JUMPDEST POP PUSH1 0x20 DUP4 ADD MLOAD PUSH2 0x3823 PUSH1 0x20 DUP7 ADD DUP3 PUSH2 0x3268 JUMP JUMPDEST POP PUSH1 0x40 DUP4 ADD MLOAD PUSH2 0x3836 PUSH1 0x40 DUP7 ADD DUP3 PUSH2 0x3227 JUMP JUMPDEST POP PUSH1 0x60 DUP4 ADD MLOAD PUSH2 0x3849 PUSH1 0x60 DUP7 ADD DUP3 PUSH2 0x3268 JUMP JUMPDEST POP PUSH1 0x80 DUP4 ADD MLOAD DUP5 DUP3 SUB PUSH1 0x80 DUP7 ADD MSTORE PUSH2 0x3861 DUP3 DUP3 PUSH2 0x32D7 JUMP JUMPDEST SWAP2 POP POP PUSH1 0xA0 DUP4 ADD MLOAD DUP5 DUP3 SUB PUSH1 0xA0 DUP7 ADD MSTORE PUSH2 0x387B DUP3 DUP3 PUSH2 0x32D7 JUMP JUMPDEST SWAP2 POP POP PUSH1 0xC0 DUP4 ADD MLOAD PUSH2 0x3890 PUSH1 0xC0 DUP7 ADD DUP3 PUSH2 0x3227 JUMP JUMPDEST POP PUSH1 0xE0 DUP4 ADD MLOAD PUSH2 0x38A3 PUSH1 0xE0 DUP7 ADD DUP3 PUSH2 0x3227 JUMP JUMPDEST POP PUSH2 0x100 DUP4 ADD MLOAD PUSH2 0x38B8 PUSH2 0x100 DUP7 ADD DUP3 PUSH2 0x3227 JUMP JUMPDEST POP PUSH2 0x120 DUP4 ADD MLOAD PUSH2 0x38CD PUSH2 0x120 DUP7 ADD DUP3 PUSH2 0x3227 JUMP JUMPDEST POP PUSH2 0x140 DUP4 ADD MLOAD DUP5 DUP3 SUB PUSH2 0x140 DUP7 ADD MSTORE PUSH2 0x38E7 DUP3 DUP3 PUSH2 0x32D7 JUMP JUMPDEST SWAP2 POP POP PUSH2 0x160 DUP4 ADD MLOAD DUP5 DUP3 SUB PUSH2 0x160 DUP7 ADD MSTORE PUSH2 0x3903 DUP3 DUP3 PUSH2 0x32D7 JUMP JUMPDEST SWAP2 POP POP PUSH2 0x180 DUP4 ADD MLOAD DUP5 DUP3 SUB PUSH2 0x180 DUP7 ADD MSTORE PUSH2 0x391F DUP3 DUP3 PUSH2 0x32D7 JUMP JUMPDEST SWAP2 POP POP PUSH2 0x1A0 DUP4 ADD MLOAD DUP5 DUP3 SUB PUSH2 0x1A0 DUP7 ADD MSTORE PUSH2 0x393B DUP3 DUP3 PUSH2 0x32D7 JUMP JUMPDEST SWAP2 POP POP PUSH2 0x1C0 DUP4 ADD MLOAD DUP5 DUP3 SUB PUSH2 0x1C0 DUP7 ADD MSTORE PUSH2 0x3957 DUP3 DUP3 PUSH2 0x32D7 JUMP JUMPDEST SWAP2 POP POP PUSH2 0x1E0 DUP4 ADD MLOAD PUSH2 0x396E PUSH2 0x1E0 DUP7 ADD DUP3 PUSH2 0x3227 JUMP JUMPDEST POP DUP1 SWAP2 POP POP SWAP3 SWAP2 POP POP JUMP JUMPDEST PUSH1 0x0 PUSH1 0x20 DUP3 ADD SWAP1 POP DUP2 DUP2 SUB PUSH1 0x0 DUP4 ADD MSTORE PUSH2 0x3993 DUP2 DUP5 PUSH2 0x37F7 JUMP JUMPDEST SWAP1 POP SWAP3 SWAP2 POP POP JUMP JUMPDEST PUSH1 0x0 DUP1 PUSH1 0x40 DUP4 DUP6 SUB SLT ISZERO PUSH2 0x39B2 JUMPI PUSH2 0x39B1 PUSH2 0x318E JUMP JUMPDEST JUMPDEST PUSH1 0x0 PUSH2 0x39C0 DUP6 DUP3 DUP7 ADD PUSH2 0x3561 JUMP JUMPDEST SWAP3 POP POP PUSH1 0x20 PUSH2 0x39D1 DUP6 DUP3 DUP7 ADD PUSH2 0x31B9 JUMP JUMPDEST SWAP2 POP POP SWAP3 POP SWAP3 SWAP1 POP JUMP JUMPDEST PUSH1 0x0 DUP1 PUSH1 0x40 DUP4 DUP6 SUB SLT ISZERO PUSH2 0x39F2 JUMPI PUSH2 0x39F1 PUSH2 0x318E JUMP JUMPDEST JUMPDEST PUSH1 0x0 DUP4 ADD CALLDATALOAD PUSH8 0xFFFFFFFFFFFFFFFF DUP2 GT ISZERO PUSH2 0x3A10 JUMPI PUSH2 0x3A0F PUSH2 0x3193 JUMP JUMPDEST JUMPDEST PUSH2 0x3A1C DUP6 DUP3 DUP7 ADD PUSH2 0x3706 JUMP JUMPDEST SWAP3 POP POP PUSH1 0x20 DUP4 ADD CALLDATALOAD PUSH8 0xFFFFFFFFFFFFFFFF DUP2 GT ISZERO PUSH2 0x3A3D JUMPI PUSH2 0x3A3C PUSH2 0x3193 JUMP JUMPDEST JUMPDEST PUSH2 0x3A49 DUP6 DUP3 DUP7 ADD PUSH2 0x3706 JUMP JUMPDEST SWAP2 POP POP SWAP3 POP SWAP3 SWAP1 POP JUMP JUMPDEST PUSH2 0x3A5C DUP2 PUSH2 0x3198 JUMP JUMPDEST DUP3 MSTORE POP POP JUMP JUMPDEST PUSH1 0x0 PUSH1 0x20 DUP3 ADD SWAP1 POP PUSH2 0x3A77 PUSH1 0x0 DUP4 ADD DUP5 PUSH2 0x3A53 JUMP JUMPDEST SWAP3 SWAP2 POP POP JUMP JUMPDEST PUSH1 0x0 DUP2 MLOAD SWAP1 POP SWAP2 SWAP1 POP JUMP JUMPDEST PUSH1 0x0 DUP3 DUP3 MSTORE PUSH1 0x20 DUP3 ADD SWAP1 POP SWAP3 SWAP2 POP POP JUMP JUMPDEST PUSH1 0x0 DUP2 SWAP1 POP PUSH1 0x20 DUP3 ADD SWAP1 POP SWAP2 SWAP1 POP JUMP JUMPDEST PUSH1 0x0 PUSH2 0x100 DUP4 ADD PUSH1 0x0 DUP4 ADD MLOAD PUSH2 0x3AC2 PUSH1 0x0 DUP7 ADD DUP3 PUSH2 0x3227 JUMP JUMPDEST POP PUSH1 0x20 DUP4 ADD MLOAD DUP5 DUP3 SUB PUSH1 0x20 DUP7 ADD MSTORE PUSH2 0x3ADA DUP3 DUP3 PUSH2 0x32D7 JUMP JUMPDEST SWAP2 POP POP PUSH1 0x40 DUP4 ADD MLOAD PUSH2 0x3AEF PUSH1 0x40 DUP7 ADD DUP3 PUSH2 0x3227 JUMP JUMPDEST POP PUSH1 0x60 DUP4 ADD MLOAD PUSH2 0x3B02 PUSH1 0x60 DUP7 ADD DUP3 PUSH2 0x3227 JUMP JUMPDEST POP PUSH1 0x80 DUP4 ADD MLOAD PUSH2 0x3B15 PUSH1 0x80 DUP7 ADD DUP3 PUSH2 0x3227 JUMP JUMPDEST POP PUSH1 0xA0 DUP4 ADD MLOAD DUP5 DUP3 SUB PUSH1 0xA0 DUP7 ADD MSTORE PUSH2 0x3B2D DUP3 DUP3 PUSH2 0x32D7 JUMP JUMPDEST SWAP2 POP POP PUSH1 0xC0 DUP4 ADD MLOAD DUP5 DUP3 SUB PUSH1 0xC0 DUP7 ADD MSTORE PUSH2 0x3B47 DUP3 DUP3 PUSH2 0x32D7 JUMP JUMPDEST SWAP2 POP POP PUSH1 0xE0 DUP4 ADD MLOAD PUSH2 0x3B5C PUSH1 0xE0 DUP7 ADD DUP3 PUSH2 0x3227 JUMP JUMPDEST POP DUP1 SWAP2 POP POP SWAP3 SWAP2 POP POP JUMP JUMPDEST PUSH1 0x0 PUSH2 0x3B73 DUP4 DUP4 PUSH2 0x3AA9 JUMP JUMPDEST SWAP1 POP SWAP3 SWAP2 POP POP JUMP JUMPDEST PUSH1 0x0 PUSH1 0x20 DUP3 ADD SWAP1 POP SWAP2 SWAP1 POP JUMP JUMPDEST PUSH1 0x0 PUSH2 0x3B93 DUP3 PUSH2 0x3A7D JUMP JUMPDEST PUSH2 0x3B9D DUP2 DUP6 PUSH2 0x3A88 JUMP JUMPDEST SWAP4 POP DUP4 PUSH1 0x20 DUP3 MUL DUP6 ADD PUSH2 0x3BAF DUP6 PUSH2 0x3A99 JUMP JUMPDEST DUP1 PUSH1 0x0 JUMPDEST DUP6 DUP2 LT ISZERO PUSH2 0x3BEB JUMPI DUP5 DUP5 SUB DUP10 MSTORE DUP2 MLOAD PUSH2 0x3BCC DUP6 DUP3 PUSH2 0x3B67 JUMP JUMPDEST SWAP5 POP PUSH2 0x3BD7 DUP4 PUSH2 0x3B7B JUMP JUMPDEST SWAP3 POP PUSH1 0x20 DUP11 ADD SWAP10 POP POP PUSH1 0x1 DUP2 ADD SWAP1 POP PUSH2 0x3BB3 JUMP JUMPDEST POP DUP3 SWAP8 POP DUP8 SWAP6 POP POP POP POP POP POP SWAP3 SWAP2 POP POP JUMP JUMPDEST PUSH1 0x0 PUSH1 0x20 DUP3 ADD SWAP1 POP DUP2 DUP2 SUB PUSH1 0x0 DUP4 ADD MSTORE PUSH2 0x3C17 DUP2 DUP5 PUSH2 0x3B88 JUMP JUMPDEST SWAP1 POP SWAP3 SWAP2 POP POP JUMP JUMPDEST PUSH2 0x3C28 DUP2 PUSH2 0x35C9 JUMP JUMPDEST DUP2 EQ PUSH2 0x3C33 JUMPI PUSH1 0x0 DUP1 REVERT JUMPDEST POP JUMP JUMPDEST PUSH1 0x0 DUP2 CALLDATALOAD SWAP1 POP PUSH2 0x3C45 DUP2 PUSH2 0x3C1F JUMP JUMPDEST SWAP3 SWAP2 POP POP JUMP JUMPDEST PUSH1 0x0 DUP1 PUSH1 0x0 PUSH1 0x60 DUP5 DUP7 SUB SLT ISZERO PUSH2 0x3C64 JUMPI PUSH2 0x3C63 PUSH2 0x318E JUMP JUMPDEST JUMPDEST PUSH1 0x0 PUSH2 0x3C72 DUP7 DUP3 DUP8 ADD PUSH2 0x31B9 JUMP JUMPDEST SWAP4 POP POP PUSH1 0x20 PUSH2 0x3C83 DUP7 DUP3 DUP8 ADD PUSH2 0x31B9 JUMP JUMPDEST SWAP3 POP POP PUSH1 0x40 PUSH2 0x3C94 DUP7 DUP3 DUP8 ADD PUSH2 0x3C36 JUMP JUMPDEST SWAP2 POP POP SWAP3 POP SWAP3 POP SWAP3 JUMP JUMPDEST PUSH1 0x0 DUP1 PUSH1 0x0 DUP1 PUSH1 0x80 DUP6 DUP8 SUB SLT ISZERO PUSH2 0x3CB8 JUMPI PUSH2 0x3CB7 PUSH2 0x318E JUMP JUMPDEST JUMPDEST PUSH1 0x0 PUSH2 0x3CC6 DUP8 DUP3 DUP9 ADD PUSH2 0x31B9 JUMP JUMPDEST SWAP5 POP POP PUSH1 0x20 PUSH2 0x3CD7 DUP8 DUP3 DUP9 ADD PUSH2 0x31B9 JUMP JUMPDEST SWAP4 POP POP PUSH1 0x40 DUP6 ADD CALLDATALOAD PUSH8 0xFFFFFFFFFFFFFFFF DUP2 GT ISZERO PUSH2 0x3CF8 JUMPI PUSH2 0x3CF7 PUSH2 0x3193 JUMP JUMPDEST JUMPDEST PUSH2 0x3D04 DUP8 DUP3 DUP9 ADD PUSH2 0x3706 JUMP JUMPDEST SWAP3 POP POP PUSH1 0x60 DUP6 ADD CALLDATALOAD PUSH8 0xFFFFFFFFFFFFFFFF DUP2 GT ISZERO PUSH2 0x3D25 JUMPI PUSH2 0x3D24 PUSH2 0x3193 JUMP JUMPDEST JUMPDEST PUSH2 0x3D31 DUP8 DUP3 DUP9 ADD PUSH2 0x3706 JUMP JUMPDEST SWAP2 POP POP SWAP3 SWAP6 SWAP2 SWAP5 POP SWAP3 POP JUMP JUMPDEST PUSH1 0x0 DUP1 PUSH1 0x0 DUP1 PUSH1 0x0 PUSH1 0xA0 DUP7 DUP9 SUB SLT ISZERO PUSH2 0x3D59 JUMPI PUSH2 0x3D58 PUSH2 0x318E JUMP JUMPDEST JUMPDEST PUSH1 0x0 PUSH2 0x3D67 DUP9 DUP3 DUP10 ADD PUSH2 0x31B9 JUMP JUMPDEST SWAP6 POP POP PUSH1 0x20 PUSH2 0x3D78 DUP9 DUP3 DUP10 ADD PUSH2 0x31B9 JUMP JUMPDEST SWAP5 POP POP PUSH1 0x40 PUSH2 0x3D89 DUP9 DUP3 DUP10 ADD PUSH2 0x3561 JUMP JUMPDEST SWAP4 POP POP PUSH1 0x60 DUP7 ADD CALLDATALOAD PUSH8 0xFFFFFFFFFFFFFFFF DUP2 GT ISZERO PUSH2 0x3DAA JUMPI PUSH2 0x3DA9 PUSH2 0x3193 JUMP JUMPDEST JUMPDEST PUSH2 0x3DB6 DUP9 DUP3 DUP10 ADD PUSH2 0x3706 JUMP JUMPDEST SWAP3 POP POP PUSH1 0x80 DUP7 ADD CALLDATALOAD PUSH8 0xFFFFFFFFFFFFFFFF DUP2 GT ISZERO PUSH2 0x3DD7 JUMPI PUSH2 0x3DD6 PUSH2 0x3193 JUMP JUMPDEST JUMPDEST PUSH2 0x3DE3 DUP9 DUP3 DUP10 ADD PUSH2 0x3706 JUMP JUMPDEST SWAP2 POP POP SWAP3 SWAP6 POP SWAP3 SWAP6 SWAP1 SWAP4 POP JUMP JUMPDEST PUSH1 0x0 PUSH2 0x100 DUP4 ADD PUSH1 0x0 DUP4 ADD MLOAD PUSH2 0x3E09 PUSH1 0x0 DUP7 ADD DUP3 PUSH2 0x3227 JUMP JUMPDEST POP PUSH1 0x20 DUP4 ADD MLOAD DUP5 DUP3 SUB PUSH1 0x20 DUP7 ADD MSTORE PUSH2 0x3E21 DUP3 DUP3 PUSH2 0x32D7 JUMP JUMPDEST SWAP2 POP POP PUSH1 0x40 DUP4 ADD MLOAD PUSH2 0x3E36 PUSH1 0x40 DUP7 ADD DUP3 PUSH2 0x3227 JUMP JUMPDEST POP PUSH1 0x60 DUP4 ADD MLOAD PUSH2 0x3E49 PUSH1 0x60 DUP7 ADD DUP3 PUSH2 0x3227 JUMP JUMPDEST POP PUSH1 0x80 DUP4 ADD MLOAD PUSH2 0x3E5C PUSH1 0x80 DUP7 ADD DUP3 PUSH2 0x3227 JUMP JUMPDEST POP PUSH1 0xA0 DUP4 ADD MLOAD DUP5 DUP3 SUB PUSH1 0xA0 DUP7 ADD MSTORE PUSH2 0x3E74 DUP3 DUP3 PUSH2 0x32D7 JUMP JUMPDEST SWAP2 POP POP PUSH1 0xC0 DUP4 ADD MLOAD DUP5 DUP3 SUB PUSH1 0xC0 DUP7 ADD MSTORE PUSH2 0x3E8E DUP3 DUP3 PUSH2 0x32D7 JUMP JUMPDEST SWAP2 POP POP PUSH1 0xE0 DUP4 ADD MLOAD PUSH2 0x3EA3 PUSH1 0xE0 DUP7 ADD DUP3 PUSH2 0x3227 JUMP JUMPDEST POP DUP1 SWAP2 POP POP SWAP3 SWAP2 POP POP JUMP JUMPDEST PUSH1 0x0 PUSH1 0x20 DUP3 ADD SWAP1 POP DUP2 DUP2 SUB PUSH1 0x0 DUP4 ADD MSTORE PUSH2 0x3EC8 DUP2 DUP5 PUSH2 0x3DF0 JUMP JUMPDEST SWAP1 POP SWAP3 SWAP2 POP POP JUMP JUMPDEST PUSH1 0x0 DUP3 DUP3 MSTORE PUSH1 0x20 DUP3 ADD SWAP1 POP SWAP3 SWAP2 POP POP JUMP JUMPDEST PUSH32 0x436C756220646F6573206E6F7420657869737400000000000000000000000000 PUSH1 0x0 DUP3 ADD MSTORE POP JUMP JUMPDEST PUSH1 0x0 PUSH2 0x3F17 PUSH1 0x13 DUP4 PUSH2 0x3ED0 JUMP JUMPDEST SWAP2 POP PUSH2 0x3F22 DUP3 PUSH2 0x3EE1 JUMP JUMPDEST PUSH1 0x20 DUP3 ADD SWAP1 POP SWAP2 SWAP1 POP JUMP JUMPDEST PUSH1 0x0 PUSH1 0x20 DUP3 ADD SWAP1 POP DUP2 DUP2 SUB PUSH1 0x0 DUP4 ADD MSTORE PUSH2 0x3F46 DUP2 PUSH2 0x3F0A JUMP JUMPDEST SWAP1 POP SWAP2 SWAP1 POP JUMP JUMPDEST PUSH32 0x4E487B7100000000000000000000000000000000000000000000000000000000 PUSH1 0x0 MSTORE PUSH1 0x22 PUSH1 0x4 MSTORE PUSH1 0x24 PUSH1 0x0 REVERT JUMPDEST PUSH1 0x0 PUSH1 0x2 DUP3 DIV SWAP1 POP PUSH1 0x1 DUP3 AND DUP1 PUSH2 0x3F94 JUMPI PUSH1 0x7F DUP3 AND SWAP2 POP JUMPDEST PUSH1 0x20 DUP3 LT DUP2 EQ ISZERO PUSH2 0x3FA8 JUMPI PUSH2 0x3FA7 PUSH2 0x3F4D JUMP JUMPDEST JUMPDEST POP SWAP2 SWAP1 POP JUMP JUMPDEST PUSH32 0x4E487B7100000000000000000000000000000000000000000000000000000000 PUSH1 0x0 MSTORE PUSH1 0x32 PUSH1 0x4 MSTORE PUSH1 0x24 PUSH1 0x0 REVERT JUMPDEST PUSH32 0x4E487B7100000000000000000000000000000000000000000000000000000000 PUSH1 0x0 MSTORE PUSH1 0x11 PUSH1 0x4 MSTORE PUSH1 0x24 PUSH1 0x0 REVERT JUMPDEST PUSH1 0x0 PUSH2 0x4017 DUP3 PUSH2 0x3198 JUMP JUMPDEST SWAP2 POP PUSH32 0xFFFFFFFFFFFFFFFFFFFFFFFFFFFFFFFFFFFFFFFFFFFFFFFFFFFFFFFFFFFFFFFF DUP3 EQ ISZERO PUSH2 0x404A JUMPI PUSH2 0x4049 PUSH2 0x3FDD JUMP JUMPDEST JUMPDEST PUSH1 0x1 DUP3 ADD SWAP1 POP SWAP2 SWAP1 POP JUMP JUMPDEST PUSH32 0x74686520636C756220646F6573206E6F74206578697374000000000000000000 PUSH1 0x0 DUP3 ADD MSTORE POP JUMP JUMPDEST PUSH1 0x0 PUSH2 0x408B PUSH1 0x17 DUP4 PUSH2 0x3ED0 JUMP JUMPDEST SWAP2 POP PUSH2 0x4096 DUP3 PUSH2 0x4055 JUMP JUMPDEST PUSH1 0x20 DUP3 ADD SWAP1 POP SWAP2 SWAP1 POP JUMP JUMPDEST PUSH1 0x0 PUSH1 0x20 DUP3 ADD SWAP1 POP DUP2 DUP2 SUB PUSH1 0x0 DUP4 ADD MSTORE PUSH2 0x40BA DUP2 PUSH2 0x407E JUMP JUMPDEST SWAP1 POP SWAP2 SWAP1 POP JUMP JUMPDEST PUSH32 0x5468652070726F706F73616C20646F6573206E6F742065786973740000000000 PUSH1 0x0 DUP3 ADD MSTORE POP JUMP JUMPDEST PUSH1 0x0 PUSH2 0x40F7 PUSH1 0x1B DUP4 PUSH2 0x3ED0 JUMP JUMPDEST SWAP2 POP PUSH2 0x4102 DUP3 PUSH2 0x40C1 JUMP JUMPDEST PUSH1 0x20 DUP3 ADD SWAP1 POP SWAP2 SWAP1 POP JUMP JUMPDEST PUSH1 0x0 PUSH1 0x20 DUP3 ADD SWAP1 POP DUP2 DUP2 SUB PUSH1 0x0 DUP4 ADD MSTORE PUSH2 0x4126 DUP2 PUSH2 0x40EA JUMP JUMPDEST SWAP1 POP SWAP2 SWAP1 POP JUMP JUMPDEST PUSH32 0x596F7520617265206E6F742061206D656D626572206F662074686520636C7562 PUSH1 0x0 DUP3 ADD MSTORE POP JUMP JUMPDEST PUSH1 0x0 PUSH2 0x4163 PUSH1 0x20 DUP4 PUSH2 0x3ED0 JUMP JUMPDEST SWAP2 POP PUSH2 0x416E DUP3 PUSH2 0x412D JUMP JUMPDEST PUSH1 0x20 DUP3 ADD SWAP1 POP SWAP2 SWAP1 POP JUMP JUMPDEST PUSH1 0x0 PUSH1 0x20 DUP3 ADD SWAP1 POP DUP2 DUP2 SUB PUSH1 0x0 DUP4 ADD MSTORE PUSH2 0x4192 DUP2 PUSH2 0x4156 JUMP JUMPDEST SWAP1 POP SWAP2 SWAP1 POP JUMP JUMPDEST PUSH32 0x4F6E6C79207468652063726561746F72206F66207468652070726F706F73616C PUSH1 0x0 DUP3 ADD MSTORE PUSH32 0x2063616E20657865637574652069740000000000000000000000000000000000 PUSH1 0x20 DUP3 ADD MSTORE POP JUMP JUMPDEST PUSH1 0x0 PUSH2 0x41F5 PUSH1 0x2F DUP4 PUSH2 0x3ED0 JUMP JUMPDEST SWAP2 POP PUSH2 0x4200 DUP3 PUSH2 0x4199 JUMP JUMPDEST PUSH1 0x40 DUP3 ADD SWAP1 POP SWAP2 SWAP1 POP JUMP JUMPDEST PUSH1 0x0 PUSH1 0x20 DUP3 ADD SWAP1 POP DUP2 DUP2 SUB PUSH1 0x0 DUP4 ADD MSTORE PUSH2 0x4224 DUP2 PUSH2 0x41E8 JUMP JUMPDEST SWAP1 POP SWAP2 SWAP1 POP JUMP JUMPDEST PUSH32 0x54686520616D6F756E7420657863656564732074686520706F6F6C206F662074 PUSH1 0x0 DUP3 ADD MSTORE PUSH32 0x686520636C756200000000000000000000000000000000000000000000000000 PUSH1 0x20 DUP3 ADD MSTORE POP JUMP JUMPDEST PUSH1 0x0 PUSH2 0x4287 PUSH1 0x27 DUP4 PUSH2 0x3ED0 JUMP JUMPDEST SWAP2 POP PUSH2 0x4292 DUP3 PUSH2 0x422B JUMP JUMPDEST PUSH1 0x40 DUP3 ADD SWAP1 POP SWAP2 SWAP1 POP JUMP JUMPDEST PUSH1 0x0 PUSH1 0x20 DUP3 ADD SWAP1 POP DUP2 DUP2 SUB PUSH1 0x0 DUP4 ADD MSTORE PUSH2 0x42B6 DUP2 PUSH2 0x427A JUMP JUMPDEST SWAP1 POP SWAP2 SWAP1 POP JUMP JUMPDEST PUSH32 0x5468652070726F706F73616C20686173206E6F74206265656E20617070726F76 PUSH1 0x0 DUP3 ADD MSTORE PUSH32 0x6564000000000000000000000000000000000000000000000000000000000000 PUSH1 0x20 DUP3 ADD MSTORE POP JUMP JUMPDEST PUSH1 0x0 PUSH2 0x4319 PUSH1 0x22 DUP4 PUSH2 0x3ED0 JUMP JUMPDEST SWAP2 POP PUSH2 0x4324 DUP3 PUSH2 0x42BD JUMP JUMPDEST PUSH1 0x40 DUP3 ADD SWAP1 POP SWAP2 SWAP1 POP JUMP JUMPDEST PUSH1 0x0 PUSH1 0x20 DUP3 ADD SWAP1 POP DUP2 DUP2 SUB PUSH1 0x0 DUP4 ADD MSTORE PUSH2 0x4348 DUP2 PUSH2 0x430C JUMP JUMPDEST SWAP1 POP SWAP2 SWAP1 POP JUMP JUMPDEST PUSH32 0x596F752063616E2774206265666F72652074686520566F74696E672064656164 PUSH1 0x0 DUP3 ADD MSTORE PUSH32 0x6C696E6500000000000000000000000000000000000000000000000000000000 PUSH1 0x20 DUP3 ADD MSTORE POP JUMP JUMPDEST PUSH1 0x0 PUSH2 0x43AB PUSH1 0x24 DUP4 PUSH2 0x3ED0 JUMP JUMPDEST SWAP2 POP PUSH2 0x43B6 DUP3 PUSH2 0x434F JUMP JUMPDEST PUSH1 0x40 DUP3 ADD SWAP1 POP SWAP2 SWAP1 POP JUMP JUMPDEST PUSH1 0x0 PUSH1 0x20 DUP3 ADD SWAP1 POP DUP2 DUP2 SUB PUSH1 0x0 DUP4 ADD MSTORE PUSH2 0x43DA DUP2 PUSH2 0x439E JUMP JUMPDEST SWAP1 POP SWAP2 SWAP1 POP JUMP JUMPDEST PUSH1 0x0 PUSH2 0x43EC DUP3 PUSH2 0x3198 JUMP JUMPDEST SWAP2 POP PUSH2 0x43F7 DUP4 PUSH2 0x3198 JUMP JUMPDEST SWAP3 POP DUP3 DUP3 LT ISZERO PUSH2 0x440A JUMPI PUSH2 0x4409 PUSH2 0x3FDD JUMP JUMPDEST JUMPDEST DUP3 DUP3 SUB SWAP1 POP SWAP3 SWAP2 POP POP JUMP JUMPDEST PUSH32 0x596F75206D7573742073656E642045564D4F5320746F20636F6E747269627574 PUSH1 0x0 DUP3 ADD MSTORE PUSH32 0x6500000000000000000000000000000000000000000000000000000000000000 PUSH1 0x20 DUP3 ADD MSTORE POP JUMP JUMPDEST PUSH1 0x0 PUSH2 0x4471 PUSH1 0x21 DUP4 PUSH2 0x3ED0 JUMP JUMPDEST SWAP2 POP PUSH2 0x447C DUP3 PUSH2 0x4415 JUMP JUMPDEST PUSH1 0x40 DUP3 ADD SWAP1 POP SWAP2 SWAP1 POP JUMP JUMPDEST PUSH1 0x0 PUSH1 0x20 DUP3 ADD SWAP1 POP DUP2 DUP2 SUB PUSH1 0x0 DUP4 ADD MSTORE PUSH2 0x44A0 DUP2 PUSH2 0x4464 JUMP JUMPDEST SWAP1 POP SWAP2 SWAP1 POP JUMP JUMPDEST PUSH1 0x0 PUSH2 0x44B2 DUP3 PUSH2 0x3198 JUMP JUMPDEST SWAP2 POP PUSH2 0x44BD DUP4 PUSH2 0x3198 JUMP JUMPDEST SWAP3 POP DUP3 PUSH32 0xFFFFFFFFFFFFFFFFFFFFFFFFFFFFFFFFFFFFFFFFFFFFFFFFFFFFFFFFFFFFFFFF SUB DUP3 GT ISZERO PUSH2 0x44F2 JUMPI PUSH2 0x44F1 PUSH2 0x3FDD JUMP JUMPDEST JUMPDEST DUP3 DUP3 ADD SWAP1 POP SWAP3 SWAP2 POP POP JUMP JUMPDEST PUSH32 0x566F74696E6720506572696F642046696E697368656400000000000000000000 PUSH1 0x0 DUP3 ADD MSTORE POP JUMP JUMPDEST PUSH1 0x0 PUSH2 0x4533 PUSH1 0x16 DUP4 PUSH2 0x3ED0 JUMP JUMPDEST SWAP2 POP PUSH2 0x453E DUP3 PUSH2 0x44FD JUMP JUMPDEST PUSH1 0x20 DUP3 ADD SWAP1 POP SWAP2 SWAP1 POP JUMP JUMPDEST PUSH1 0x0 PUSH1 0x20 DUP3 ADD SWAP1 POP DUP2 DUP2 SUB PUSH1 0x0 DUP4 ADD MSTORE PUSH2 0x4562 DUP2 PUSH2 0x4526 JUMP JUMPDEST SWAP1 POP SWAP2 SWAP1 POP JUMP JUMPDEST PUSH32 0x596F75206861766520616C726561647920766F746564206F6E20746869732070 PUSH1 0x0 DUP3 ADD MSTORE PUSH32 0x726F706F73616C00000000000000000000000000000000000000000000000000 PUSH1 0x20 DUP3 ADD MSTORE POP JUMP JUMPDEST PUSH1 0x0 PUSH2 0x45C5 PUSH1 0x27 DUP4 PUSH2 0x3ED0 JUMP JUMPDEST SWAP2 POP PUSH2 0x45D0 DUP3 PUSH2 0x4569 JUMP JUMPDEST PUSH1 0x40 DUP3 ADD SWAP1 POP SWAP2 SWAP1 POP JUMP JUMPDEST PUSH1 0x0 PUSH1 0x20 DUP3 ADD SWAP1 POP DUP2 DUP2 SUB PUSH1 0x0 DUP4 ADD MSTORE PUSH2 0x45F4 DUP2 PUSH2 0x45B8 JUMP JUMPDEST SWAP1 POP SWAP2 SWAP1 POP JUMP JUMPDEST PUSH1 0x0 DUP2 SWAP1 POP SWAP3 SWAP2 POP POP JUMP JUMPDEST PUSH1 0x0 DUP2 SWAP1 POP DUP2 PUSH1 0x0 MSTORE PUSH1 0x20 PUSH1 0x0 KECCAK256 SWAP1 POP SWAP2 SWAP1 POP JUMP JUMPDEST PUSH1 0x0 DUP2 SLOAD PUSH2 0x4628 DUP2 PUSH2 0x3F7C JUMP JUMPDEST PUSH2 0x4632 DUP2 DUP7 PUSH2 0x45FB JUMP JUMPDEST SWAP5 POP PUSH1 0x1 DUP3 AND PUSH1 0x0 DUP2 EQ PUSH2 0x464D JUMPI PUSH1 0x1 DUP2 EQ PUSH2 0x465E JUMPI PUSH2 0x4691 JUMP JUMPDEST PUSH1 0xFF NOT DUP4 AND DUP7 MSTORE DUP2 DUP7 ADD SWAP4 POP PUSH2 0x4691 JUMP JUMPDEST PUSH2 0x4667 DUP6 PUSH2 0x4606 JUMP JUMPDEST PUSH1 0x0 JUMPDEST DUP4 DUP2 LT ISZERO PUSH2 0x4689 JUMPI DUP2 SLOAD DUP2 DUP10 ADD MSTORE PUSH1 0x1 DUP3 ADD SWAP2 POP PUSH1 0x20 DUP2 ADD SWAP1 POP PUSH2 0x466A JUMP JUMPDEST DUP4 DUP9 ADD SWAP6 POP POP POP JUMPDEST POP POP POP SWAP3 SWAP2 POP POP JUMP JUMPDEST PUSH1 0x0 PUSH2 0x46A6 DUP3 DUP5 PUSH2 0x461B JUMP JUMPDEST SWAP2 POP DUP2 SWAP1 POP SWAP3 SWAP2 POP POP JUMP JUMPDEST PUSH32 0x5468652070726F706F73616C206973206E6F206C6F6E6765722070656E64696E PUSH1 0x0 DUP3 ADD MSTORE PUSH32 0x6700000000000000000000000000000000000000000000000000000000000000 PUSH1 0x20 DUP3 ADD MSTORE POP JUMP JUMPDEST PUSH1 0x0 PUSH2 0x470D PUSH1 0x21 DUP4 PUSH2 0x3ED0 JUMP JUMPDEST SWAP2 POP PUSH2 0x4718 DUP3 PUSH2 0x46B1 JUMP JUMPDEST PUSH1 0x40 DUP3 ADD SWAP1 POP SWAP2 SWAP1 POP JUMP JUMPDEST PUSH1 0x0 PUSH1 0x20 DUP3 ADD SWAP1 POP DUP2 DUP2 SUB PUSH1 0x0 DUP4 ADD MSTORE PUSH2 0x473C DUP2 PUSH2 0x4700 JUMP JUMPDEST SWAP1 POP SWAP2 SWAP1 POP JUMP JUMPDEST PUSH32 0x54686520636C756220646F6573206E6F74206578697374000000000000000000 PUSH1 0x0 DUP3 ADD MSTORE POP JUMP JUMPDEST PUSH1 0x0 PUSH2 0x4779 PUSH1 0x17 DUP4 PUSH2 0x3ED0 JUMP JUMPDEST SWAP2 POP PUSH2 0x4784 DUP3 PUSH2 0x4743 JUMP JUMPDEST PUSH1 0x20 DUP3 ADD SWAP1 POP SWAP2 SWAP1 POP JUMP JUMPDEST PUSH1 0x0 PUSH1 0x20 DUP3 ADD SWAP1 POP DUP2 DUP2 SUB PUSH1 0x0 DUP4 ADD MSTORE PUSH2 0x47A8 DUP2 PUSH2 0x476C JUMP JUMPDEST SWAP1 POP SWAP2 SWAP1 POP JUMP JUMPDEST PUSH32 0x54686520616D6F756E74206F66207468652070726F706F73616C206D75737420 PUSH1 0x0 DUP3 ADD MSTORE PUSH32 0x62652067726561746572207468616E2030000000000000000000000000000000 PUSH1 0x20 DUP3 ADD MSTORE POP JUMP JUMPDEST PUSH1 0x0 PUSH2 0x480B PUSH1 0x31 DUP4 PUSH2 0x3ED0 JUMP JUMPDEST SWAP2 POP PUSH2 0x4816 DUP3 PUSH2 0x47AF JUMP JUMPDEST PUSH1 0x40 DUP3 ADD SWAP1 POP SWAP2 SWAP1 POP JUMP JUMPDEST PUSH1 0x0 PUSH1 0x20 DUP3 ADD SWAP1 POP DUP2 DUP2 SUB PUSH1 0x0 DUP4 ADD MSTORE PUSH2 0x483A DUP2 PUSH2 0x47FE JUMP JUMPDEST SWAP1 POP SWAP2 SWAP1 POP JUMP JUMPDEST PUSH32 0x54686520636C75622069732066756C6C2C206E6F206D6F7265206D656D626572 PUSH1 0x0 DUP3 ADD MSTORE PUSH32 0x732063616E206265206164646564000000000000000000000000000000000000 PUSH1 0x20 DUP3 ADD MSTORE POP JUMP JUMPDEST PUSH1 0x0 PUSH2 0x489D PUSH1 0x2E DUP4 PUSH2 0x3ED0 JUMP JUMPDEST SWAP2 POP PUSH2 0x48A8 DUP3 PUSH2 0x4841 JUMP JUMPDEST PUSH1 0x40 DUP3 ADD SWAP1 POP SWAP2 SWAP1 POP JUMP JUMPDEST PUSH1 0x0 PUSH1 0x20 DUP3 ADD SWAP1 POP DUP2 DUP2 SUB PUSH1 0x0 DUP4 ADD MSTORE PUSH2 0x48CC DUP2 PUSH2 0x4890 JUMP JUMPDEST SWAP1 POP SWAP2 SWAP1 POP JUMP JUMPDEST PUSH32 0x596F752061726520616C72656164792061206D656D626572206F662074686520 PUSH1 0x0 DUP3 ADD MSTORE PUSH32 0x636C756200000000000000000000000000000000000000000000000000000000 PUSH1 0x20 DUP3 ADD MSTORE POP JUMP JUMPDEST PUSH1 0x0 PUSH2 0x492F PUSH1 0x24 DUP4 PUSH2 0x3ED0 JUMP JUMPDEST SWAP2 POP PUSH2 0x493A DUP3 PUSH2 0x48D3 JUMP JUMPDEST PUSH1 0x40 DUP3 ADD SWAP1 POP SWAP2 SWAP1 POP JUMP JUMPDEST PUSH1 0x0 PUSH1 0x20 DUP3 ADD SWAP1 POP DUP2 DUP2 SUB PUSH1 0x0 DUP4 ADD MSTORE PUSH2 0x495E DUP2 PUSH2 0x4922 JUMP JUMPDEST SWAP1 POP SWAP2 SWAP1 POP JUMP JUMPDEST PUSH32 0x5468652070726F706F73616C206973206E6F7420696E2070656E64696E672073 PUSH1 0x0 DUP3 ADD MSTORE PUSH32 0x7461747573000000000000000000000000000000000000000000000000000000 PUSH1 0x20 DUP3 ADD MSTORE POP JUMP JUMPDEST PUSH1 0x0 PUSH2 0x49C1 PUSH1 0x25 DUP4 PUSH2 0x3ED0 JUMP JUMPDEST SWAP2 POP PUSH2 0x49CC DUP3 PUSH2 0x4965 JUMP JUMPDEST PUSH1 0x40 DUP3 ADD SWAP1 POP SWAP2 SWAP1 POP JUMP JUMPDEST PUSH1 0x0 PUSH1 0x20 DUP3 ADD SWAP1 POP DUP2 DUP2 SUB PUSH1 0x0 DUP4 ADD MSTORE PUSH2 0x49F0 DUP2 PUSH2 0x49B4 JUMP JUMPDEST SWAP1 POP SWAP2 SWAP1 POP JUMP JUMPDEST PUSH32 0x4F6E6C79207468652070726F706F73616C2063726561746F722063616E20636C PUSH1 0x0 DUP3 ADD MSTORE PUSH32 0x6F7365207468652070726F706F73616C00000000000000000000000000000000 PUSH1 0x20 DUP3 ADD MSTORE POP JUMP JUMPDEST PUSH1 0x0 PUSH2 0x4A53 PUSH1 0x30 DUP4 PUSH2 0x3ED0 JUMP JUMPDEST SWAP2 POP PUSH2 0x4A5E DUP3 PUSH2 0x49F7 JUMP JUMPDEST PUSH1 0x40 DUP3 ADD SWAP1 POP SWAP2 SWAP1 POP JUMP JUMPDEST PUSH1 0x0 PUSH1 0x20 DUP3 ADD SWAP1 POP DUP2 DUP2 SUB PUSH1 0x0 DUP4 ADD MSTORE PUSH2 0x4A82 DUP2 PUSH2 0x4A46 JUMP JUMPDEST SWAP1 POP SWAP2 SWAP1 POP JUMP INVALID LOG2 PUSH5 0x6970667358 0x22 SLT KECCAK256 0xB6 LOG0 EXTCODECOPY 0xAF 0xCD SWAP1 0xDE ADDMOD 0x2D POP 0x5F ORIGIN 0x4C 0xEB MSIZE 0xCB CALLDATACOPY 0x4D DUP13 0x2D DUP4 0xE0 0x29 JUMPI 0xDE DUP8 0xB1 PUSH5 0x43898DA64 PUSH20 0x6F6C634300080A00330000000000000000000000 "},"methodIdentifiers":{"closeProposal(uint256,uint256)":"e7613ea8","contributeToClub(uint256)":"288509b4","createClub(string,string)":"35a1930f","createProposal(uint256,uint256,address,string,string)":"89972a32","executeProposal(uint256,uint256)":"1ab76712","getBalanceByClub(address,uint256)":"890e2456","getCarpiece(uint256,uint256,string,string)":"647e598b","getClubById(uint256)":"c3741fed","getMyClubs()":"549710be","getProposalById(uint256,uint256)":"14204fc6","getProposalsByClub(uint256)":"058694a9","getdelandstorgae(uint256,uint256,uint256,string)":"1063fd19","hasVoted(address,uint256,uint256)":"0ee29404","isClubFull(uint256)":"c4670878","isClubIdExist(uint256)":"6764fd48","isMemberOfClub(address,uint256)":"34fa3d83","isProposalIdExist(uint256,uint256)":"eec8e0db","isVotingOn(uint256,uint256)":"ab7ca348","joinClub(uint256)":"e1542742","leaveClub(uint256)":"4d7f75c3","listClubs()":"5ff847fb","proverifiydocs(uint256,uint256)":"9d9087b9","verifiydocs(uint256)":"82b7661b","voteOnProposal(uint256,uint256,bool)":"54a2e233"}}}}}