{"contracts/Num2.sol":{"Num2":{"abi":[{"inputs":[],"name":"get","outputs":[{"internalType":"uint256","name":"","type":"uint256"}],"stateMutability":"view","type":"function"},{"inputs":[],"name":"inc","outputs":[],"stateMutability":"nonpayable","type":"function"},{"inputs":[],"name":"num","outputs":[{"internalType":"uint256","name":"","type":"uint256"}],"stateMutability":"view","type":"function"},{"inputs":[{"internalType":"uint256","name":"_num","type":"uint256"}],"name":"update","outputs":[],"stateMutability":"nonpayable","type":"function"}],"evm":{"bytecode":{"linkReferences":{},"object":"608060405234801561001057600080fd5b50610230806100206000396000f3fe608060405234801561001057600080fd5b506004361061004c5760003560e01c8063371303c0146100515780634e70b1dc1461005b5780636d4ce63c1461007957806382ab890a14610097575b600080fd5b6100596100b3565b005b6100636100ca565b60405161007091906100fc565b60405180910390f35b6100816100d0565b60405161008e91906100fc565b60405180910390f35b6100b160048036038101906100ac9190610148565b6100d9565b005b60016000546100c291906101a4565b600081905550565b60005481565b60008054905090565b8060008190555050565b6000819050919050565b6100f6816100e3565b82525050565b600060208201905061011160008301846100ed565b92915050565b600080fd5b610125816100e3565b811461013057600080fd5b50565b6000813590506101428161011c565b92915050565b60006020828403121561015e5761015d610117565b5b600061016c84828501610133565b91505092915050565b7f4e487b7100000000000000000000000000000000000000000000000000000000600052601160045260246000fd5b60006101af826100e3565b91506101ba836100e3565b9250827fffffffffffffffffffffffffffffffffffffffffffffffffffffffffffffffff038211156101ef576101ee610175565b5b82820190509291505056fea26469706673582212206352eb86f6f1f0d5b76b78e2cfb4c01c211d2acc10b0f545e7a308d5d93fc9ec64736f6c634300080a0033","opcodes":"PUSH1 0x80 PUSH1 0x40 MSTORE CALLVALUE DUP1 ISZERO PUSH2 0x10 JUMPI PUSH1 0x0 DUP1 REVERT JUMPDEST POP PUSH2 0x230 DUP1 PUSH2 0x20 PUSH1 0x0 CODECOPY PUSH1 0x0 RETURN INVALID PUSH1 0x80 PUSH1 0x40 MSTORE CALLVALUE DUP1 ISZERO PUSH2 0x10 JUMPI PUSH1 0x0 DUP1 REVERT JUMPDEST POP PUSH1 0x4 CALLDATASIZE LT PUSH2 0x4C JUMPI PUSH1 0x0 CALLDATALOAD PUSH1 0xE0 SHR DUP1 PUSH4 0x371303C0 EQ PUSH2 0x51 JUMPI DUP1 PUSH4 0x4E70B1DC EQ PUSH2 0x5B JUMPI DUP1 PUSH4 0x6D4CE63C EQ PUSH2 0x79 JUMPI DUP1 PUSH4 0x82AB890A EQ PUSH2 0x97 JUMPI JUMPDEST PUSH1 0x0 DUP1 REVERT JUMPDEST PUSH2 0x59 PUSH2 0xB3 JUMP JUMPDEST STOP JUMPDEST PUSH2 0x63 PUSH2 0xCA JUMP JUMPDEST PUSH1 0x40 MLOAD PUSH2 0x70 SWAP2 SWAP1 PUSH2 0xFC JUMP JUMPDEST PUSH1 0x40 MLOAD DUP1 SWAP2 SUB SWAP1 RETURN JUMPDEST PUSH2 0x81 PUSH2 0xD0 JUMP JUMPDEST PUSH1 0x40 MLOAD PUSH2 0x8E SWAP2 SWAP1 PUSH2 0xFC JUMP JUMPDEST PUSH1 0x40 MLOAD DUP1 SWAP2 SUB SWAP1 RETURN JUMPDEST PUSH2 0xB1 PUSH1 0x4 DUP1 CALLDATASIZE SUB DUP2 ADD SWAP1 PUSH2 0xAC SWAP2 SWAP1 PUSH2 0x148 JUMP JUMPDEST PUSH2 0xD9 JUMP JUMPDEST STOP JUMPDEST PUSH1 0x1 PUSH1 0x0 SLOAD PUSH2 0xC2 SWAP2 SWAP1 PUSH2 0x1A4 JUMP JUMPDEST PUSH1 0x0 DUP2 SWAP1 SSTORE POP JUMP JUMPDEST PUSH1 0x0 SLOAD DUP2 JUMP JUMPDEST PUSH1 0x0 DUP1 SLOAD SWAP1 POP SWAP1 JUMP JUMPDEST DUP1 PUSH1 0x0 DUP2 SWAP1 SSTORE POP POP JUMP JUMPDEST PUSH1 0x0 DUP2 SWAP1 POP SWAP2 SWAP1 POP JUMP JUMPDEST PUSH2 0xF6 DUP2 PUSH2 0xE3 JUMP JUMPDEST DUP3 MSTORE POP POP JUMP JUMPDEST PUSH1 0x0 PUSH1 0x20 DUP3 ADD SWAP1 POP PUSH2 0x111 PUSH1 0x0 DUP4 ADD DUP5 PUSH2 0xED JUMP JUMPDEST SWAP3 SWAP2 POP POP JUMP JUMPDEST PUSH1 0x0 DUP1 REVERT JUMPDEST PUSH2 0x125 DUP2 PUSH2 0xE3 JUMP JUMPDEST DUP2 EQ PUSH2 0x130 JUMPI PUSH1 0x0 DUP1 REVERT JUMPDEST POP JUMP JUMPDEST PUSH1 0x0 DUP2 CALLDATALOAD SWAP1 POP PUSH2 0x142 DUP2 PUSH2 0x11C JUMP JUMPDEST SWAP3 SWAP2 POP POP JUMP JUMPDEST PUSH1 0x0 PUSH1 0x20 DUP3 DUP5 SUB SLT ISZERO PUSH2 0x15E JUMPI PUSH2 0x15D PUSH2 0x117 JUMP JUMPDEST JUMPDEST PUSH1 0x0 PUSH2 0x16C DUP5 DUP3 DUP6 ADD PUSH2 0x133 JUMP JUMPDEST SWAP2 POP POP SWAP3 SWAP2 POP POP JUMP JUMPDEST PUSH32 0x4E487B7100000000000000000000000000000000000000000000000000000000 PUSH1 0x0 MSTORE PUSH1 0x11 PUSH1 0x4 MSTORE PUSH1 0x24 PUSH1 0x0 REVERT JUMPDEST PUSH1 0x0 PUSH2 0x1AF DUP3 PUSH2 0xE3 JUMP JUMPDEST SWAP2 POP PUSH2 0x1BA DUP4 PUSH2 0xE3 JUMP JUMPDEST SWAP3 POP DUP3 PUSH32 0xFFFFFFFFFFFFFFFFFFFFFFFFFFFFFFFFFFFFFFFFFFFFFFFFFFFFFFFFFFFFFFFF SUB DUP3 GT ISZERO PUSH2 0x1EF JUMPI PUSH2 0x1EE PUSH2 0x175 JUMP JUMPDEST JUMPDEST DUP3 DUP3 ADD SWAP1 POP SWAP3 SWAP2 POP POP JUMP INVALID LOG2 PUSH5 0x6970667358 0x22 SLT KECCAK256 PUSH4 0x52EB86F6 CALL CREATE 0xD5 0xB7 PUSH12 0x78E2CFB4C01C211D2ACC10B0 CREATE2 GASLIMIT 0xE7 LOG3 ADDMOD 0xD5 0xD9 EXTCODEHASH 0xC9 0xEC PUSH5 0x736F6C6343 STOP ADDMOD EXP STOP CALLER "},"methodIdentifiers":{"get()":"6d4ce63c","inc()":"371303c0","num()":"4e70b1dc","update(uint256)":"82ab890a"}},"storageLayout":{"storage":[{"astId":3,"contract":"contracts/Num2.sol:Num2","label":"num","offset":0,"slot":"0","type":"t_uint256"}],"types":{"t_uint256":{"encoding":"inplace","label":"uint256","numberOfBytes":"32"}}}}}}